:020000040800F2
:10000000F8D00120E1010008FB980108FD850108F6
:10001000F99801087D5A010821A20108000000009A
:10002000000000000000000000000000FF98010830
:10003000295D010800000000FD980108F901000891
:10004000FB010008FB010008FB010008FB010008A0
:10005000FB010008FB010008FB010008FB01000890
:10006000FB010008FB010008FB010008FB01000880
:10007000FB010008FB010008FB010008FB01000870
:10008000FB010008FB010008FB010008FB01000860
:10009000FB010008FB010008FB010008FB01000850
:1000A000FB010008FB010008FB010008FB01000840
:1000B000099A0108FB010008FB010008FB01000888
:1000C000FB010008FB010008FB010008FB01000820
:1000D000FB010008FB010008FB010008FB01000810
:1000E0002B5D0108FB010008FB010008FB01000873
:1000F000FB010008FB010008FB010008FB010008F0
:10010000FB010008FB010008FB010008FB010008DF
:10011000FB010008FB010008159A0108FB0100081B
:10012000FB010008FB010008FB010008FB010008BF
:10013000FB010008FB010008FB010008FB010008AF
:10014000FB010008FB010008FB010008FB0100089F
:10015000FB010008FB010008FB010008FB0100088F
:10016000FB010008FB010008FB010008FB0100087F
:10017000FB010008FB010008FB0100080000000073
:10018000FB010008FB010008FB010008FB0100085F
:10019000FB010008FB010008FB010008FB0100084F
:1001A000598F0108FB010008E95C0108FB01000808
:1001B000FB010008FB010008FB010008FB0100082F
:1001C000FB010008FB010008DFF810D000F0D6F8B2
:1001D00000480047DDDA0108AFF30080F8D00120C5
:1001E0000648804706480047FEE7FEE7FEE7FEE7D1
:1001F000FEE7FEE7FEE7FEE7FEE7FEE7B59901084A
:10020000C90100082DE9F05F0546002092469B4693
:1002100088460646814640241BE02846414647461C
:10022000224600F09BF853465A46C01A914110D31B
:1002300011461846224600F082F82D1A67EB010895
:100240004F4622460120002100F079F817EB000903
:100250004E41201EA4F10104DFDC484631462A4607
:100260004346BDE8F09F00000649074A086850432E
:1002700043F23902104408604008704701490860A1
:1002800070470000140300206D4EC64110B5441A9B
:100290000346944209D28418114403E011F8013D49
:1002A00004F8013D521EF9D210BD40EA0104A40732
:1002B00003D009E010C9121F10C3042AFAD203E0C8
:1002C00011F8014B03F8014B521EF9D210BDD2B206
:1002D00001E000F8012B491EFBD270470022F6E72F
:1002E00010B513460A4604461946FFF7F0FF2046AC
:1002F00010BD421C10F8011B0029FBD1801A704769
:10030000034611F8012B00F8012B002AF9D11846F9
:10031000704730B50B46014600202022012409E039
:1003200021FA02F59D4205D303FA02F5491B04FAAE
:1003300002F52844151EA2F10102F1DC30BD202A8D
:1003400004DB203A00FA02F1002070479140C2F12C
:10035000200320FA03F3194390407047202A04DB5E
:10036000203A21FA02F00021704721FA02F3D0402E
:10037000C2F120029140084319467047064C074DD0
:1003800006E0E06840F0010394E807009847103465
:10039000AC42F6D3FFF71CFF18E3070838E3070861
:1003A00070B58C1810F8015B15F0070301D110F837
:1003B000013B2A1106D110F8012B03E010F8016B64
:1003C00001F8016B5B1EF9D12B0705D40023521EE7
:1003D0000DD401F8013BFAE710F8013BCB1A921C4F
:1003E00003E013F8015B01F8015B521EF9D5A1424D
:1003F000D8D3002070BD000070B5456882B00446B7
:100400000146284609F046FA68B123680F2B59D0F7
:100410000BDD282B45D0B3F5107F3CD0112B49D0F4
:10042000204609F0C7FE02B070BD0B2B20D00E2B6A
:10043000F6D1E3681A6859680D2A53D0202A31D1C1
:10044000002928464FF480717DDD09F005FB284620
:1004500001F060FC02AB846A43F8040D184601F019
:100460008DFDA207DFD5284601210BF065F8DAE7FC
:10047000284602AD01F04EFC03466830019301F0BE
:100480003BFA55F8040D03216C3001F051FA28466F
:1004900001F074FDC4E7324B214628461B6898479B
:1004A000C1E7E368002BBBD128464FF4807109F007
:1004B000D9F9B5E72B4B1B68002BB4D02146284651
:1004C0009847B0E7284601F025FC034602A840F80B
:1004D000043D5B6E1C6801F051FD002CA3D0284642
:1004E000A047A0E70029DDDD4FF48071284609F020
:1004F000B3FA02AC284601F00DFC866A44F8040DFC
:10050000204601F03BFDB10703D5012128460BF041
:1005100013F84FF48071284609F0A4F9284601F039
:10052000F9FB034620461E8E9C6A019301F026FDCE
:10053000304605F069F8A3077FF575AF284602211C
:100540000AF0FAFF6FE709F08DF9284601F0E2FBA7
:10055000034602A89C6A1E8E40F8043DE6E700BFF1
:100560005401002008C401202DE9F043044687B05F
:10057000304F00260091A569B0F90C104C35B0F948
:100580000A001944B4F910301044B4F90E20039550
:1005900002970196B4F9085009F020FD804618B979
:1005A000404607B0BDE8F083234F0DF1180901F074
:1005B000B1FB2946102205903E1D09F059FB59F860
:1005C00004ED0FCE0EF134050FC50FCE0FC596E822
:1005D0000F0085E80F007B6B4846CEF8643001F0D1
:1005E000CDFC7B6B40465B6898474046656801F0F0
:1005F00091FB034604A89C6E0493059401F0BEFC95
:100600002946484606F090FE0028C9D0059B9C422A
:1006100009D0404601F07EFB059A034604A89A667D
:10062000049301F0ABFC40460AF0B4FC404607B02E
:10063000BDE8F083F903000854010020974A81685F
:1006400043682DE9F041044688B052F82160122B2E
:1006500040D8DFE803F0B03F3F3F3F0A973F3F3FBE
:100660003F3F3F3F3F3F3F3F4300F569002D40F094
:10067000B580371F57F8040F04F076FF04F114011A
:1006800020690EC928445B1B521B2944013502F026
:1006900037FD022DEED162693169E3690191911C48
:1006A000F76813442069A2695B1028440097521B25
:1006B00002F030FCE1696269B0698B1E1144A269E5
:1006C0000190491020697669521B01312844009637
:1006D00002F020FC002008B0BDE8F081006801F0C5
:1006E00019FB876E0490002F00F0D080A368B0F94A
:1006F0005C80002B00F0C880032B14BF0023022372
:1007000000EB8303406D08AC1D6C04F031FF2846FC
:1007100004F02AFF06A802F021FEB28BBDF81810E3
:1007200006A8BDF81C301144BDF81A509A1ABDF83D
:100730001E30ADF81810023554F8101D023BADF80C
:100740001C20B1F96020B1F95E10ADF81E30ADF893
:100750001A5004F083FA204608AC01F00FFC022086
:1007600004F040FF384601F0D5FA06A9424644F8A5
:100770000C0D02F08FF9204601F000FC002008B0BB
:10078000BDE8F081006801F0C5FA049020680CF023
:10079000EBF8B8B9049B5D6F05B9DD6E04A801F0F4
:1007A000EDFB0023284621681A4602F09FF800203E
:1007B00008B0BDE8F08100680BF00AF9002008B02D
:1007C000BDE8F081A368002B64D1049A136F002B5D
:1007D00014BF6C23682313445D68DFE7B268B0463A
:1007E000C3690027039271688269029158F804096D
:1007F000009561690190206906F09AF858F8040F95
:1008000004F0B2FEF369A26921696069D21A194441
:10081000384402F04FFCF369A2692169E069D21AF9
:100820001944C01B02F046FCF369E2696169206962
:10083000D21A1944384402F0A5FCA069F369E269B0
:10084000C01B61690137D21A194402F09BFC022FC8
:10085000D4D1B06804F088FEF16922696569901C02
:10086000E3690A445B1A2944013A02F0DDFCF169AC
:10087000A0696569E369821E401A5B1A2944013048
:1008800002F0D2FCF56906E7012339E704A801F07C
:1008900075FB1FE7049BDD6E80E700BF90E2070851
:1008A00070B5164604460D46049A3046194601F0C6
:1008B000F9FF294602462046BDE8704000F042B8E4
:1008C00000B9704730B583B00D46044601F022FAF6
:1008D00002AB456543F8040D184601F04FFB204676
:1008E0000AF058FB03B030BD70B582B018B90124CE
:1008F000204602B070BD0C46054601F00BFA0346D7
:10090000866E68468DE8480001F038FB214601A854
:1009100006F00AFD00280CBF01240024E8D0019B4A
:100920009E4209D0284601F0F5F9019A034668462F
:100930009A66009301F022FB28460AF02BFB204622
:1009400002B070BD00B9704770B50C4682B0064663
:10095000154601F0DFF9022C019004D901A801F03D
:100960000DFB02B070BD1A34A4002044043000F026
:10097000C3FF019B30461C4465600AF00BFB01A8D5
:1009800001F0FCFA02B070BD2DE9F04F4468054655
:100990008BB020460BF0E8FF29460646204608F0BB
:1009A00079FF002834D02B680F2B5CD033DC0B2B65
:1009B00046D00E2B51D1002E4FD0EB685A68002A3A
:1009C0004BDDD3F80080A8F10903192B06D80121CB
:1009D000BF4A01FA03F31A40002A3ED1C4B10AAE5D
:1009E000204601F097F90346876D46F8180D30460A
:1009F00093F854A0D3F83490DD6C01F0BFFA002FC7
:100A000000F0DC8041462046B84720460AF0C2FA92
:100A10000BB0BDE8F08F40F21312934228D0B3F52B
:100A2000107F1AD1EB68002B00F096801A7A002A0A
:100A30004ED0002C41D1204601210AF07DFD0CE072
:100A400020460AAC01F066F90346343044F8043D10
:100A500000F052FF204601F091FA284609F0AAFB67
:100A60000BB0BDE8F08F2046012113F05BF9CFE712
:100A700020460AAE0AF09AFE204601F04BF90346E2
:100A800046F8040D304693F8562082F0040283F8AD
:100A9000562001F073FA0021204613F043F9204656
:100AA00001F038F903460021D0F8840009930AF0D8
:100AB00023FE304601F062FACFE720461E6801F0BF
:100AC00029F9436B079043B907A801F057FAB2E739
:100AD000204602210AF030FDBFE7184601F01AF95E
:100AE000079B0690986E04F043FD8046204609F06F
:100AF0006FFE0746069802F077FC079A8146136E50
:100B000003F00303012B00F0E781022B40F0DD81AD
:100B10003B1A013348BF0133A6EB6306069806F083
:100B2000FFF9002E0746C0F2F881B14519DA2046D8
:100B300001F0F0F8436B0890002B40F0D38108A837
:100B400001F01CFA06A801F019FA404604F010FD65
:100B500020460AF01FFAB7E7204603210AF0ECFC12
:100B60007BE702463146069806F05AF906462046CB
:100B700001F0D0F8436B0890002BE0D0184626EA2D
:100B8000E67601F0C7F8099006F0CAF90899B1F9BC
:100B9000383091F85470CA6C002F18BF013BB34233
:100BA000A8BF33469842A8BF1846824200D0C86406
:100BB000002309A80B6501F0E1F9C0E7A8F10803DB
:100BC000162B00F2E680DFE813F0A000E400E4005A
:100BD000E400E400E400E400E400BC0085007600EA
:100BE0004800E400E400E400E400E400E400E40081
:100BF000E400E40038001700204601F08BF80346BB
:100C00000AA85D6B40F8083DDF6C01F0B7F9002DD4
:100C10003FF4FBAE284601F07DF8394606460990C0
:100C200004F0CAFE05463046FFF763FB8542C0F07C
:100C3000E28109A801F0A2F9E7E6204601F06AF88E
:100C4000BAF1010F0346049040F08781002280F83A
:100C50005420304601F092F9D7E6B9F1000F3FF485
:100C6000D4AE484601F056F806462946099004F0ED
:100C7000A3FE0644304604F05FFE002305468DF8CF
:100C80002230ADF82030013D04F062FE0746ADB2DF
:100C9000284604F05DFE8742CBD1294608A804F01F
:100CA00045FE08A93A463046FFF7F0FA05212046EE
:100CB0000AF042FCBDE7204601F02CF8436B089097
:100CC000002B40F0A88108A801F058F99DE600BF6C
:100CD00013000403B9F1000F3FF497AE484601F04A
:100CE00019F806462946099004F066FE0644304687
:100CF00004F022FE002305468DF82230ADF82030A6
:100D0000013504F025FE0746C1E7002D3FF47DAE16
:100D1000204600F0FFFF436B0890002B40F09481C9
:100D200008A801F02BF9204600F0F4FF034608A8BC
:100D30005D6BDF6C089301F021F9002D3FF465AE87
:100D400068E7204600F0E6FF436B0890002BBAD01E
:100D5000184600F0DFFF099006F0E2F8089A6B1ED3
:100D6000B2F9381023EAE37392F85460D56C002E80
:100D700018BF01398B42A8BF0B469842A8BF18463E
:100D800000238542136518BFD06409A801F0F6F866
:100D900099E7B8F11F0F7FF738AEBAF1000F40F0B6
:100DA0000881204600F0B6FFB0F938308146059042
:100DB000002B07DD406B002840F06B8107469F4207
:100DC00080F263811FFA88F30DF128091E46019312
:100DD00059F8143DDB6C4846039301F0CFF83046D8
:100DE00004F0B6FD8346204600F094FF436B069066
:100DF000002B40F08F811E460AA80BEB060350F82B
:100E0000102D0133568F9E1B01F0B8F8002E40F3D1
:100E10007E812046103600F07DFF0346B0F83A8010
:100E20000AAFD3F834A0B04447F8080D384601F0B3
:100E3000A5F84146504600F081FF029000283FF49B
:100E4000E4ADBAF1000F00F0548109AE204600F085
:100E500061FF029A034638460893A3F83A805A6322
:100E600001F08CF8204600F055FF03464846D3F8C1
:100E70003480059301F082F8404600F04BFF804635
:100E80000399099004F098FD80444046FFF731FA39
:100E90004146421C08EB0B00FFF7F8F90199404668
:100EA00004F044FD304601F069F8052120460AF0BF
:100EB00043FB204600F02EFF436B0890002B40F0D0
:100EC000F680384601F05AF89FE5536ED16A5A1CF5
:100ED0000B681344F61A21E6536E3F1A0133FB1ACE
:100EE000F61A1BE6184627EAE77700F013FF099089
:100EF00006F016F80899B1F9383091F85460CA6CC8
:100F0000002E18BF013BBB42A8BF3B469842A8BF7A
:100F1000184682427FF44BAE4AE6204600F0FAFEC5
:100F2000436B0890002B3FF40AAE184600F0F2FE27
:100F3000099005F0F5FF0899B1F9383091F854603F
:100F4000CA6C002E18BF013B03EAE3739842A8BFA6
:100F5000184682427FF42BAE2AE60122204683F80F
:100F6000542000F0D7FE436B0890F3B1184625EAF1
:100F7000E57500F0CFFE099005F0D2FF089AB2F9AE
:100F8000383092F85470D16C002F18BF013BAB423F
:100F9000A8BF2B469842A8BF18460023814213657C
:100FA00018BFD06409A800F0E9FF08A800F0E6FF28
:100FB0004FE60AAF204600F0ADFE466B034647F809
:100FC000080D3846D3F84C9000F0D8FF002E3FF4BF
:100FD000E8AE304600F09EFE49460746099004F010
:100FE000EBFC06463846FFF784F986421CD309A875
:100FF00000F0C4FFD5E63544284604F0A3FC2918C8
:101000002846FFF77DF909A800F0B8FF0521204622
:101010000AF092FAF9E4184600F07CFE099005F017
:101020007FFF089A6B1C9BE63E44304604F08AFC26
:1010300031183046FFF764F909A800F09FFF052139
:1010400020460AF079FAACE6184600F063FE0990F3
:1010500005F066FF089A6B1EB2F9381092F85460DA
:1010600023EAE373D56C002E18BF01398B42A8BF69
:101070000B469842A8BF184600238542136518BF47
:10108000D06409A800F07AFF4AE605A800F076FFD0
:10109000BBE40AAE00F03EFE46F8040D05F040FF4A
:1010A0000746304600F06AFFB9F9383087E618463F
:1010B00000F030FE099005F033FF08996B1C91F8A1
:1010C00054E0B1F9385023EAE373CA6CBEF1000F63
:1010D00018BF013DAB42A8BF2B469842A8BF184697
:1010E000002390420B6518BFC864304600F046FFED
:1010F000E7E600F00FFE0AAE0D4B514646F8040D30
:1011000042461B689847304600F038FF9EE609AE1D
:1011100008AFA7E618460AAF00F0FCFD47F80C0D33
:10112000FFF7E7F80646384600F028FF64E600BF00
:10113000100200202DE9F047044688B04D4F4FF4CF
:1011400080560091A569B0F90C106035B0F90A001D
:101150001944B4F910301044B4F90E2003950297E5
:101160000196B4F90850D4F8148008F037FF20B97C
:101170000027384608B0BDE8F087074600F0CAFDF2
:1011800029461022059008F073FD3B4E4FF0010CEC
:10119000DDF814E00FCE0EF160050FC50FCED6F8C6
:1011A000009018F1010618BF0126B8F1000F0FC515
:1011B000C5F800908EF855C08EF8886055DD0FFA9E
:1011C00088F808EB0C050023AEF8388005A808AEB7
:1011D000AEF83A30CEF8343000F0D0FE384600F0A9
:1011E00099FD0346428FD3F83480154446F8080D24
:1011F000304600F0C3FE2946404600F09FFD82467F
:1012000078B3B8F1000F1DD00DF11C09384600F07D
:1012100081FD034630465D87C3F834A0069300F095
:10122000ADFE3846648A00F075FD079018B104667B
:10123000384609F0AFFE484600F0A0FE384608B038
:10124000BDE8F08700F066FD0DF120090B4B41462B
:1012500049F8040D2A461B689847484600F08EFE60
:10126000D4E7384608F0D6FF82E709254FF0080892
:10127000A9E700BF890900088C01002010020020A6
:1012800000B9704770B582B00D46044600F042FDCB
:1012900002AE03468566204646F8043D09F07AFE14
:1012A000304600F06BFE02B070BD00BF00B9704761
:1012B000AFF300802DE9F04F8BB00E46074600F0EB
:1012C00029FD0AAD0246446B45F8180D2846B2F9CF
:1012D000388000F053FE002E00F0A880002C7DD155
:1012E000A1463046444605F01BFE8045A8BF044693
:1012F0003046214604F060FB00F10108384600F05A
:1013000009FD436BC9EB080A0690002B57D199469B
:10131000D144438F06A809F10109C3EB090900F084
:101320002DFEB9F1000F25DD384609F1100900F056
:10133000F1FC0346428F0DF1280AD3F834B09144F2
:101340004AF8080D504600F019FE4946584600F08C
:10135000F5FC019068B3BBF1000F54D0384600F0A3
:10136000D9FC019B02465046A2F83A90536308927A
:1013700000F004FE384600F0CDFC0346406B0493B9
:1013800000F0C8FC314B4246314605901B68984737
:10139000059A0023904408F8013C049BB3F93820D7
:1013A000DC64A24228D005A800F0E8FD284600F041
:1013B000E5FD384609F0EEFD0BB0BDE8F08F1846AC
:1013C0000DF1280B00F0A6FC4BF80C0DFEF791FF79
:1013D0008146584600F0D2FD069899E720460AACAF
:1013E00000F098FC44F8140DFEF783FF00F10109AA
:1013F000204600F0C3FD74E793F85420012AD2D1AF
:10140000013CDC64CFE700F085FC0AABDFF840E08C
:10141000594643F8040D4A46DEF800B002930393A0
:10142000D847029B184600F0A9FD97E7384600F020
:1014300071FC03463430049300F05EFA049B2846A6
:101440005E87DE6400F09AFDB3E700BF0C02002067
:101450001002002000B9704730B583B004460D4635
:1014600000F058FC019018B10566204609F092FD85
:1014700001A800F083FD03B030BD00BF0D4B10B5D7
:10148000186807F05FFA0C4B0C4C186807F094FAD8
:101490002368002201219A8510465A85197607F0A3
:1014A000BDFA074A2368126802B1DA6100229A760F
:1014B00010BD00BF340100203001002038010020A1
:1014C0002C010020014B83E8030070475CC201201F
:1014D000014B83E80300704764C20120014B83E89D
:1014E000030070476CC20120704700BF704700BF07
:1014F0002DE9F04F5C4E8DB03368DA69B3F92250B4
:10150000D469B4F80CB0834500F29780E189814238
:10151000C0F093802168CBEB000B08914FF0FF31B6
:101520000A91BBF1FF3F00F0828092F81880A27C04
:10153000B3F92A10B3F9249018FB02F30846079177
:101540001F4694F810A007F069FAD6F800E0089951
:101550004346DEF838C05246099007FB0B10DEF810
:101560001CE00B97012704904946CDF814C028468B
:1015700094F812C00297CDF80CC09EF81BC0DFF89B
:10158000E8B0CDF804C09EF81AE0CDF800E006F00F
:101590002DFB0A9F7B1C25D0079941F0020007F024
:1015A0003DFADBF800100B9A43460898D1F838C092
:1015B00002FB0700D1F81CE00127CDF814C004900D
:1015C000524694F812C0494602972846CDF80CC0FE
:1015D0009EF81BC0CDF804C09EF81AE0CDF800E0DC
:1015E00006F004FB3368DFF88080DB695A7E1B7EDF
:1015F0009A4215D9079B022B12D083F0040007F002
:101600000DFAD8F800302846DB691F7ED97E9A7E15
:101610005B7E07FB01910AFB02524B4406F0EEFC95
:101620009DF8240007F0FAF93368B3F92250627C80
:1016300015445D840DB0BDE8F08FA1680029F6D097
:101640000F88B842F3D3B1F802E08645EFD3C01B50
:101650004968676880B2089701EB800731F920B0CC
:10166000B7F902100A915CE738010020044B1B68AF
:10167000DB69DB6909B11A7C0A60587C704700BFDE
:101680003801002002230B80704700BFC3699A898C
:101690008A4202D8DA898A4211D2986818B103883E
:1016A000994201D20020704742888A42FAD3C91A6F
:1016B000436833F82100C043C0F3C03070470120B5
:1016C000704700BF2DE9F04F3A4D89B02B68DA69B9
:1016D000B3F92A90D36943B11A88904202D359884A
:1016E000814205D29B68002BF6D109B0BDE8F08F8E
:1016F000841AD3F80480484608EBC40696F802B072
:1017000007F08CF98246286818F834204FF0010E53
:10171000C769D0F838C0B0F92410B0F922003B7E78
:101720000790CDF814C07068CDF80CB00490CDF8D7
:1017300008E097F81BE00798CDF804E0BF7E00971B
:1017400006F054FA2B68DA69537E177EBB4223D920
:10175000B9F1020F07931FD092F81BB001F002FEFF
:10176000814601F0E3FD03F0FFFE124B18F834E070
:101770001868079BC169B0F92240CA7EB0F92410ED
:1017800020460EFB02420BFB03130BFB071106F076
:1017900035FC484603F0E8FE504607F03FF92B6859
:1017A0007178D8695A8C807E00FB01225A8409B076
:1017B000BDE8F08F38010020114B1B6870B4DD6963
:1017C000EB6943B11A88904202D35C88844205D207
:1017D0009B68002BF6D1184670BC7047821A5E6871
:1017E000AC7E06EBC2035B7813FB04F00029F3D058
:1017F00016F8323014FB03F370BC0B60704700BF67
:101800003801002001230B80704700BFC06950B130
:1018100003888B4202D843888B4203D28068002819
:10182000F6D170470120704700B970470BF090BCAB
:1018300008B900207047F8B506460BF089FC04464D
:1018400038B3154D3246154F0021E8696B6B0130F6
:1018500003EBC406E86113F83400013003F83400E8
:1018600076683B6806F10800984731686A6B12F8A1
:101870003130012B01D9E86920B9013B204602F83B
:101880003130F8BD0138013BE861204602F83130C3
:10189000F8BD0020F8BD00BFE4C501201002002003
:1018A00021F00301014B83E80300704774C201205B
:1018B00000B9704770B50A4CC6000546636B3344E7
:1018C000596848680BF096FA6368626B0021606A99
:1018D000013316446360706002F83510656270BDB4
:1018E000E4C5012028B1034AD36B036003B15860FB
:1018F000D0637047E4C50120F8B50468054694B18B
:101900000A4EE700736B3B44596848680BF072FA63
:101910007368726B0020716A0133174473607960D9
:1019200002F83400746200232B60F8BDE4C5012086
:1019300000292ADD2DE9F04700258A46041F134FB0
:10194000A94603E0AA45C4F800901CD054F8046FDF
:101950000135002EF6D04FEAC6087B6B4344596828
:1019600048680BF047FA7B68796BAA457A6A03F1FD
:10197000010388447B60C8F8042001F836907E6239
:10198000C4F80090E2D1BDE8F0877047E4C50120BB
:10199000F8B58B4E044696F82830002B2FD0033430
:1019A000356CF26B24F003040434A54238BF25469D
:1019B00062B152F8043C14469D4204D114E054F83C
:1019C000043C9D4210D02468002CF8D1F368B46B1D
:1019D0001C4454F8041C611A0B68002B68D14B6836
:1019E0009D426FDD002408E023680BB161685960F7
:1019F000616801B10B60A24256D02046F8BD714B20
:101A000001219A6886F8281058680AB982089A60F5
:101A10005A27102220254FF0400E3762802732646B
:101A20004FF48072B5644FF400751968C6F850E041
:101A30004FF4806EB7654FF4006732664FF4805202
:101A4000B5664FF40055A1F11403C6F870E0B7670E
:101A50004FF4804EC6F880204FF40047C6F88850F7
:101A60004FF480324FF400350344C6F890E04FF451
:101A7000802EC6F898704FF40027C6F8A0200222E6
:101A8000C6F8A8500125B1637363C6F8B0E03261AF
:101A9000F060C6F8B8705D60756275600BF0AAF909
:101AA0000FF008FF35637AE723682046F363F8BD3B
:101AB000002012F09FFD54F8041C611A0B68002BE3
:101AC00090D18CE7581BD6F8B8703D4A041DBB4234
:101AD0000C4472D2D2F8B070BB426CD2D2F8A8706B
:101AE000BB4266D2D2F8A070BB4260D2D2F89870E6
:101AF0009F425AD9D2F89070BB4254D2D2F8887023
:101B0000BB424ED2D2F88070BB4248D2926F934211
:101B100043D2376F2A4ABB423DD2976EBB4238D27E
:101B2000176EBB4233D2976DBB422ED2176DBB42AC
:101B300029D2976CBB4224D2126C93420CD2F26829
:101B40007369521B2B44F260736110B944F8045C52
:101B500053E70BF04FF9F9E700223768D1F808E0B6
:101B6000FF1ACB683760BEF1000F01D0CEF8043009
:101B700013B1C3F800E0E2E706EBC202C2F844E0AA
:101B8000DDE70122E9E70222E7E70322E5E7042295
:101B9000E3E70522E1E70622DFE70722DDE7082287
:101BA000DBE70922D9E70A22D7E70B22D5E70C2287
:101BB000D3E70D22D1E70E22CFE70F22CDE700BFFA
:101BC000E4C5012074C20120F8B54A4C94F82830CD
:101BD000002B3DD0D4F8BC30464A3BBBD2F8B430E1
:101BE00023BBD2F8AC300BBBD2F8A430F3B9D2F897
:101BF0009C30DBB9D2F89430C3B9D2F88C30ABB991
:101C0000D2F8843093B9D36F83B9536F73B9E36E4D
:101C100063B9536E53B9D36D43B9536D33B9D36CB4
:101C200023B9536C13B96FF00B00F8BD9B68002B00
:101C3000F9D0002201E09B6843B1596810469142F7
:101C400001D90A4608469B68002BF4D10C38F8BD30
:101C5000294B01219A6884F8281058680AB982082B
:101C60009A605A2610222025402726628026226468
:101C70004FF48072A5644FF40075196827654FF41E
:101C80008067A6654FF4006622664FF48052A56611
:101C90004FF40055A1F114032767A6674FF480475E
:101CA000C4F880204FF40046C4F888504FF48032C6
:101CB0004FF400350344C4F890704FF48027C4F803
:101CC00098604FF40026C4F8A0200222C4F8A8505F
:101CD0000125A16363632261E060C4F8B070C4F8B9
:101CE000B8605D60656265600BF084F80FF0E2FD3E
:101CF00025636FE7E4C5012074C2012030B1044BB5
:101D00005B6B03EBC000436858680C38704700BF3A
:101D1000E4C50120084AD169536B013110B4D16187
:101D200003EBC00413F83020013203F83020606860
:101D30005DF8044B08307047E4C5012009B9084636
:101D400070472DE9F047064608468A460BF000FA30
:101D5000044600285AD0002E58D02E4DF700DFF848
:101D6000B8C06B6BE969DA1913F8300003EBC40EE5
:101D70000231D2F804800130D8F8042003F834008E
:101D80000C3ADEF80490E96108F1080113F836E036
:101D9000524509F108000EF1010EA8BF524603F8A2
:101DA00036E0DCF800309847D9F800106B6B13F878
:101DB0003120012A03D9E86908B10138E861013A04
:101DC00003F83120D8F8001013F83120012A06D981
:101DD000E869DFF840E010B10138CEF81C00D819EE
:101DE000013A03F83120416848680BF003F86B684A
:101DF000696B4FF0000E6A6A01330F4420466B6036
:101E00007A6001F836E06E62BDE8F0872046BDE8F2
:101E1000F08700BFE4C501200C020020F8B5544C47
:101E200094F82830002B51D0D4F8BC30504A83BBF2
:101E3000D2F8B4306BBBD2F8AC3053BBD2F8A4307C
:101E40003BBBD2F89C3023BBD2F894300BBBD2F80A
:101E50008C30F3B9D2F88430DBB9D36FCBB9536F80
:101E6000BBB9E36EABB9536E9BB9D36D8BB9536DF0
:101E70007BB9D36C6BB9536C5BB96FF00B033D4905
:101E8000DA1781FB0313C2EB6313206A00FB03F034
:101E9000F8BD9B68002BF8D0002201E09B6843B19D
:101EA00059681046914201D90A4608469B68002BA2
:101EB000F4D10C38B0F5800F0346E0D8226A2D4BE0
:101EC00002FB00F0A3FB00235809F8BD2A4B0121B7
:101ED0009A6884F8281058680AB982089A605A26C5
:101EE0001022202540272662802622644FF480722B
:101EF000A5644FF40075196827654FF48067A665DF
:101F00004FF4006622664FF48052A5664FF40055E8
:101F1000A1F114032767A6674FF48047C4F8802017
:101F20004FF40046C4F888504FF480324FF4003527
:101F30000344C4F890704FF48027C4F898604FF4BD
:101F40000026C4F8A0200222C4F8A8500125A163ED
:101F500063632261E060C4F8B070C4F8B8605D608B
:101F6000656265600AF046FF0FF0A4FC25635BE73D
:101F7000E4C501201F85EB5174C2012003680B4AA0
:101F800030B4044653F8085C506B10F83530012B20
:101F900003D9D16909B10139D1610022013B00F8AF
:101FA00035301046226030BC704700BFE4C50120C8
:101FB000034B5B6B03EBC00040680830704700BF09
:101FC000E4C5012070B50D46044601F019FB00225E
:101FD0002B46C1B22046BDE8704000F001B800BFFA
:101FE000B0F1004F2DE9F04346D0002851DB002529
:101FF0004D1B4FF0000EEDB20AB1013DEDB275B3CD
:102000006C1EAA42274F4FF03108DFF89CC0E4B2A3
:102010001ED057F8246090FBF6F1C9B20A2901F1ED
:10202000010906FB11001AD824B9BEF1000F01D036
:102030005FFA89F10A2901F1300115D01D686E1C83
:102040001E6029705CB125466C1EAA42E4B2E0D144
:1020500019684E1C1E609CF800600E70D9E71B6862
:1020600000221A70BDE8F08319682C464D1C1D60D3
:10207000254681F80080E7E71C684FF0010E4D1EF1
:102080002D2104EB0E066FF00040EDB21E602170B2
:10209000B2E71C6801252D26404267191F60267093
:1020A000A6E700BF98650708A8C6012010B584B050
:1020B0000C46064B114601AA009020460193CDF82C
:1020C0000CD00BF0E5FD04B010BD00BF09210008E5
:1020D00000B583B000F1120302A840F8043D05F0FA
:1020E000BFF803B05DF804FB00B583B000F1160340
:1020F00002A840F8043D05F0B3F80028B8BF4042FC
:1021000003B05DF804FB00BF10B40468104623441C
:102110005DF8044B0B6070472DE9F043044683B033
:102120000020894690461E46606003462568694641
:10213000A0683622A847362803D0012003B0BDE8A6
:10214000F083636868463633636005F083F8009B6C
:10215000054668460C33009305F082F8074668464A
:1021600005F07EF8C9F80000684605F079F8009B94
:10217000C8F8000068460233009305F06BF8308021
:10218000684605F06DF8009B0B9A0C3310606846AA
:10219000009305F065F83388013B1F2BCDD801A2D1
:1021A00052F823F06F2200083B2100083B21000871
:1021B000672200083B2100083B2100083B21000862
:1021C000252200083B2100083B2100083B21000894
:1021D0003B2100083B2100083B2100083B2100086F
:1021E000772200083B2100083B2100083B21000822
:1021F0003B2100083B2100083B2100083B2100084F
:10220000772200083B2100083B2100083B21000801
:102210003B2100083B2100083B2100083B2100082E
:10222000772200084FF480730A9A136008B10A9B62
:1022300018600B9B1B68032B21D06068283838443A
:1022400060600A9B1B68B3F5807F3FF776AF44F66A
:1022500042539D427FF471AF0B9B1868032894BFD3
:10226000002001206AE710230A9A1360DEE70223A8
:102270000A9A1360DAE700230A9A1360D9E72668FE
:102280001022636801A9A068B047102805D06368D0
:10229000A3F1380038446060D3E7636801A8254E95
:1022A0001033636004F0DCFF306001A804F0D8FF55
:1022B000706001A804F0D4FF00223368F260DA07EE
:1022C000B06007D401225B081146013213F0010F00
:1022D000F9D0F16001225B089646013213F001014A
:1022E000F9D17368C6F818E0DA07316107D4012222
:1022F0005B081146013213F0010FF9D03161012260
:102300005B089646013213F00101F9D1C307C6F804
:102310001CE0716106D4012340081A460133C1074D
:10232000FAD57261012340081A460133C107FAD475
:102330003262ACE718C401202DE9F0410646104690
:102340001446884601F016F8C8B9A700184D3B1985
:1023500005EB8303DA68B24204D11B69434501D11E
:10236000BDE8F0813B1905EB83035869B0B93C44E3
:1023700005EB8404E660C4F81080BDE8F0810C4BE6
:1023800004EB840403EB840463689A685968C2EB25
:102390000802711ABDE8F04103F008B95B689A6859
:1023A0005968C2EB0802711A02F096FDDFE700BF20
:1023B00044C50120C3B2CAB29A1A92B210B414B280
:1023C000002C1EDBC1F30722C0F307239B1A9BB22C
:1023D0001AB2002A12DB090C02FB02F2C1EB104117
:1023E00004FB042089B20CB2002C01DA49420CB281
:1023F000A1B25DF8044B01FB010070475B421AB2C9
:10240000E9E7524214B2DDE700212DE9F041084628
:1024100082B001F029F8042006F000FB144B154FA0
:1024200043F6FF761B6980463D463446DA6C6846C3
:102430001B6D174416441D441C44ADF80070ADF8E4
:102440000460ADF80250ADF8064009F097FE48B1BF
:10245000234632462946384605F0D0FD09F020FDD6
:102460000028F5D1404606F0D9FA02B0BDE8F08167
:102470002801002001C0FFFF2DE9F041074682B08E
:10248000042016461C460D4606F0C8FA124B80463C
:1024900068461B69DA6C1B6D174416441D441C44C6
:1024A000ADF80070ADF80460ADF80250ADF806402C
:1024B00009F064FE48B1234632462946384605F005
:1024C0009DFD09F0EDFC0028F5D1404606F0A6FA86
:1024D00002B0BDE8F08100BF2801002003460420BF
:1024E0002DE9F04182B0B3F90070B3F90260B3F99D
:1024F0000450B3F9064006F091FA124B8046684644
:102500001B69DA6C1B6D174415441E441C44ADF85E
:102510000070ADF80450ADF80260ADF8064009F067
:102520002DFE48B123462A463146384605F066FD61
:1025300009F0B6FC0028F5D1404606F06FFA02B06B
:10254000BDE8F081280100202DE9F047044682B063
:102550000D461646002B37D09A46009651460B9BE7
:10256000204626680A9AB047074618B9384602B08E
:10257000BDE8F08708F0C4F8618A8046384607F065
:102580006BFA013D384609F081FA404609F07EFABF
:10259000002D1DDD4FF0000903E009F077FA013D41
:1025A00016D054F81C6F0023CDF800904146204609
:1025B0001A46B04706460028EFD1384607F02AFEF3
:1025C000304602B0BDE8F08708F0A8F88246C4E7BC
:1025D00040461D2109F020F9BAF1FF3FC6D008F0AE
:1025E000C1F840B9BA450CD0384609F07BF93846F5
:1025F000BDE70028F8D0FFF7DBFC80698742F8D1FF
:10260000B4E75046B3E700BF012B17DC2DE9F041DA
:1026100007461C2090460D461E46FFF7B9F90446B2
:10262000D0B16DB1056100232046A661A4F81480E5
:10263000E76023606360A360BDE8F081002070471D
:10264000074B53F826200AB9EDE71A461368002B0A
:10265000FBD113692361E6E70020BDE8F08100BFEC
:10266000C0C60120012B3BDC2DE9F84381461C202C
:1026700090460F461E46FFF78BF9054600287FD08F
:10268000414A002F31D00023DFF804E152F8264000
:1026900003609EF8001007618E428661A0F81480E6
:1026A000C0F80C904360836002DB731C8EF800302E
:1026B000002C5DD021464C68002CFBD1D9F80000DD
:1026C000CB681B6883422CDD09680029F8D148B922
:1026D0002E4B163628461A6842F82650BDE8F88375
:1026E000002070472846BDE8F88352F826100029DC
:1026F00030D0084600E018460368002BFBD1006983
:10270000DFF88CE02B6028619EF80000AE61864205
:10271000A5F81480C5F80C906B60AB60CBDB0C4661
:10272000C3E70AD04B6843B31D606B608D4214BF92
:102730000B4600234D602B60C9E7B8F1010FF1D1C2
:1027400004E0DC68194623688342EBDB0B68002B4E
:10275000F7D1E7E7DFF838E001609EF800308661E6
:102760009E42A0F81480C0F80C9041608160D6DAD7
:1027700042F82650D9F80000A9E742F82650D5E7DC
:102780000020BDE8F88300BFC0C60120380100204A
:10279000B9C60120FFF7A6B800283DD070B48469FF
:1027A000012C03DD0123184670BC70471F4B1A78BB
:1027B000944221DA1E4D55F824300BB932E013460D
:1027C0005A68002AFBD1C268116802E01B68002B1E
:1027D000E8D0DA6812689142F8DB10D05A68F2B19A
:1027E00010604260984214BF1A46002258600023CD
:1027F0000260184670BC7047621C1A70DAE7828A61
:10280000012AEBD104E0D668134632689142E5DC38
:102810001A68002AF7D1E1E701231846704745F806
:102820002400DFE745F82400BDE700BFB9C601205A
:10283000C0C601200F4A816952F8213098420AD05F
:1028400042680AB103681360036803B15A60002349
:10285000036043607047036842F821302BB10022C7
:102860005A604268002AEED1F0E74268002AEAD1B5
:10287000EDE700BFC0C6012001280EDC084B53F86D
:10288000200058B1C3681B681BB908E0C3681B6807
:1028900023B100680028F9D17047002070477047C5
:1028A000C0C60120F0B583B0D0B104460C20154657
:1028B0000E46FEF7BDFF074610B9384603B0F0BD1F
:1028C000FFF728FA084A034602A85C6040F8043D76
:1028D0001E815D811A60FFF751FB384603B0F0BDE1
:1028E0000746384603B0F0BDA0E2070800B97047BC
:1028F0002DE9F04182B01E4615460C460746FFF70B
:1029000009FA02AB026843F8040D1846D2F80080B9
:10291000FFF734FB33462A4621463846C04702B00B
:10292000BDE8F08170B50546094E13F049FB05443A
:1029300007E000F04BFC3068A042A8BF204613F02F
:1029400035FB13F03DFB2C1A002CF2DC70BD00BFF0
:10295000440100202DE9F04F484D83B0044600F0BB
:1029600019FD2B680646B3F9228000F055FD2B684F
:102970001FFA80F99A8CC9EB020212B29A8421786C
:1029800000294FD0B6B22F4647F6FF71204604F01B
:102990009FFA01468346204604F05AFA29688B8D37
:1029A00003F00303012B58D0022B5AD01FFA80FAF0
:1029B0004FF0000E4B8C0AF1FF3CB1F92420CEEB16
:1029C0000303ADF80220013A9BB2B0186A460FFA31
:1029D00083FE6344ADF806002046A1F822E0594684
:1029E000ADF800E0ADF8043003F098FB2B6820460A
:1029F000BDF8022059469A8402F0DEFF235C0444AD
:102A00000A2B19D00D2B17D0BDF800003B6882446B
:102A1000A3F822A022781AB162780134002AB3D137
:102A2000B3F92420998D914421F00302A3F8249056
:102A30009A8503B0BDE8F08F2B689A8D02F00302EF
:102A4000013A012A16D8A3F8228022780A2AE2D174
:102A50009A8C32449A842278DDE71FFA80FEF2468F
:102A6000A8E7002803461FFA80FAB8BF431CC3F347
:102A70004F0E9FE71A8C5A84E7E700BF3801002009
:102A8000034B1B6859849A8408B1FFF763BF7047F2
:102A90003801002000B3F0B5054683B016460C4659
:102AA000C1B1084608F0E6FF074638B102462146A4
:102AB000684604F085FA684608F0DCFF3246214695
:102AC000284647F6FF7303F08BFB384608F0D2FF29
:102AD00003B0F0BD0F46F1E7704700BF08B100F04A
:102AE00001B870472DE9F04F89468BB01F46B1F908
:102AF0000030B1F90410154600930446CE1AB9F916
:102B00000630059201910136B9F902B0039300F045
:102B100041FC15F00C05029019D0A2463A46314608
:102B20004FF00008504604F06BFC48B182443A462E
:102B3000314608F10108504604F062FC0028F5D146
:102B4000082D79D00C2D00F08280042D74D0BDF8B2
:102B500008A0484608F08EFF02460490A8B10099EC
:102B6000002506A82B4661F30F0501996BF31F455D
:102B700061F30F030399069561F31F4349460793D9
:102B800004F01EFA06A808F075FF059B1FFA8BF5E6
:102B900003F003080AF1FF3302934346B0461E4692
:102BA00015E0022E34D01EB9B9F80030ADF820304F
:102BB0002046594608AA554403F0B0FA20463A4642
:102BC000414604F01DFC0444ADB2237873B33A4689
:102BD0004146204604F076FCBDF80020029B834667
:102BE000ADF820202046EB18BDF804205946ADF87A
:102BF0002250ADF82420ADF8263004F029F9012E3A
:102C0000CFD1B9F804300133181AADF82000CFE75E
:102C1000B9F90010B9F904305B1A181A013048BF2D
:102C2000013001EB6000ADF82000C1E7049808F026
:102C300021FF0BB0BDE8F08FBDF808A0039B18FB87
:102C40000AF85D1CC8EB05050FFA85FB81E7039BBD
:102C5000029ACBEB0303BDF808A0013308FB12383E
:102C6000B8F1000FB8BF08F101080BEB68050FFAC7
:102C700085FB6EE72DE9F04FDFF8F090044689B050
:102C8000D9F80030258806A8DF6C1E6D013D6388E9
:102C90000F4402EB0608013B3D44ADF81870434475
:102CA000ADF81A80ADF81C50ADF81E3009F066FA88
:102CB000002851D0CB46DFF8B8A01BE040F002005E
:102CC00002F054FC26692EB3E0680122D4F808E033
:102CD0004146638803920292228801903846CDF8DB
:102CE00000E03668B047284602F040FC09F0D8F80A
:102CF000002831D0E668002002F038FC054616B105
:102D00003379002BDAD125F0020002F02FFC26697E
:102D1000002ED9D1D9F800202146DAF80030527CB3
:102D2000E0689847E188D0B1638801262288059041
:102D3000A0680291414604903846B4F804E0019638
:102D4000CDF80CE0009604F051FF284602F00EFC8E
:102D500009F0A6F80028CDD109B0BDE8F08F01290F
:102D6000E2D1DBF80030986BDEE700BF38010020CD
:102D7000280100202DE9F04F654C91B02468E56CE6
:102D8000246D2818AA186118E318064602900EA8A8
:102D90000192079114460893ADF83860ADF83C20D5
:102DA000ADF83A10ADF83E3009F0E8F9002800F02F
:102DB0009580C6EB040B1A999DF86820C1F307248F
:102DC000BBF1000F1B995B46B8BF0BF101030BFB76
:102DD00002FEC1F307271A995B109DF86CC0C1F37E
:102DE00007401B9903EB0E05C1F307461A990A9594
:102DF000090E0BFB04353C1B0B9503940BFB0034B5
:102E0000301A0BFB01335E460C940D931B9B049010
:102E1000C1EB13630593C2EB0C03069300F0A2FA17
:102E20001A9B1B9A0990934268D0002E52D0029DA3
:102E3000019A95425ADC0AAF86464FF0010B97E89B
:102E4000800706E00BF1010B0135019BA646AB4262
:102E50002FDB70469AFBF6F499FBF6F197FBF6F33D
:102E600098FBF6FC2206059C43EA0C23A24442EAA6
:102E70000144049A1C43029B9144069AAB421744B6
:102E8000039A9044E0DA7445DCD005F095FDBBF17F
:102E9000010FCBEB0500089B05F1FF32079920D00D
:102EA00005F0ACF80135019B4FF0010BA646AB4293
:102EB000CFDA204605F080FDBBF1010F18D0019A52
:102EC000089BCBEB02000799013005F097F80998B1
:102ED00005F072FD08F0E4FF00289FD111B0BDE8B5
:102EE000F08F1A46681E05F061F8ADE705F064FD45
:102EF000089A0799019805F059F8E8E7184605F08F
:102F00005BFD089B019A0799029805F077F8DEE7C8
:102F1000380100202DE9F04F654C91B02468E56C34
:102F2000246D2818AA186118E318064607900EA801
:102F300008920D46029101931C46ADF83860ADF839
:102F40003C20ADF83A10ADF83E3009F017F90028F2
:102F500000F09580C5EB040B1A999DF86820C1F329
:102F60000724BBF1000F1B995B46B8BF0BF10103AF
:102F70000BFB02FEC1F307271A995B109DF86CC08A
:102F8000C1F307401B9903EB0E05C1F307461A99DD
:102F90000A95090E0BFB04353C1B0B9503940BFBA8
:102FA0000034301A0BFB01335E460C940D931B9BCF
:102FB0000490C1EB13630593C2EB0C03069300F07E
:102FC000D1F91A9B1B9A0990934267D0002E52D0D8
:102FD000029D019A954259DC0AAF86464FF0010BDB
:102FE00097E8800706E00BF1010B0135019BA6462F
:102FF000AB422FDB70469AFBF6F499FBF6F197FB98
:10300000F6F398FBF6FC2206059C43EA0C23A24447
:1030100042EA0144049A1C43029B9144069AAB4243
:103020001744039A9044E0DA7445DCD005F0C4FC00
:10303000BBF1010FCBEB050105F1FF33089A0798AF
:1030400020D004F0DBFF0135019B4FF0010BA646B9
:10305000AB42CFDA204605F0AFFCBBF1010F17D031
:10306000019B089ACBEB03010798013104F0C6FFDE
:10307000099805F0A1FC08F013FF00289FD111B0BA
:10308000BDE8F08F691E04F037FFAEE705F094FC51
:10309000089A0199079804F02FFFE9E7184605F010
:1030A0008BFC019B089A0299079804F0A7FFDFE7C1
:1030B00038010020F0B5114F83B03B681D6DDC6C0A
:1030C00005446846661814442BB2ADF80060ADF8AC
:1030D0000440ADF80230ADF8063009F04FF850B1B9
:1030E0003B682246294630465B6E1B68984708F0CD
:1030F000D7FE0028F4D103B0F0BD00BF3801002096
:103100002DE9F0431E4C83B025682E7E2F6DEC6CAC
:10311000013E07EB010907EB030825181444B2B27E
:103120006846AE1A1119C2EB09034244ADF80060BB
:10313000ADF80410ADF80230ADF8062009F01EF825
:10314000D8B109F1010708F1FF3622464946284661
:1031500004F0D2FE22464146284604F0CDFE324617
:103160003946284604F022FF32463946204604F00C
:103170001DFF08F095FE0028E7D103B0BDE8F083FD
:1031800038010020104B1B6870B5DD6C82B01C6DDF
:1031900005446846661814442BB2ADF80260ADF8D9
:1031A0000640ADF80030ADF8043008F0E7FF40B15C
:1031B00022463146284604F0F9FE08F071FE002848
:1031C000F6D102B070BD00BF380100202DE9F041FA
:1031D0000025124F124EDFF84C803C681CB1A0470E
:1031E000041C18BF012407F031F93368002818BF08
:1031F00001244BB1984738B1D8F8003013B10124FD
:1032000098473CB10125E8E7D8F80030002BF7D10A
:10321000002CF7D12846BDE8F08100BFECC60120A4
:10322000F0C60120E8C60120F0B5104C83B0246838
:10323000E56C246D2F18154466181C446846ADF8DB
:103240000070ADF80450ADF80260ADF8064008F02B
:1032500095FF48B123462A463146384604F0CEFE53
:1032600008F01EFE0028F5D103B0F0BD38010020A3
:10327000002850D0C388013B10B5848880681F2B7C
:1032800047D8DFE803F0162346314646463C46461B
:1032900046464646464046464646464646464646D4
:1032A000464646464610A31002FB031150F8210083
:1032B00010BD02FB04F200EBD104C843A35C00F094
:1032C000070023FA00F000F0010010BD02FB04F239
:1032D00000EB91046FEA4100A35C00F0060023FAC2
:1032E00000F000F0030010BD02FB04F200EB5104FB
:1032F000CB07A05C4CBF00F00F00000910BD02FB23
:103300000404605C10BD631002FB031130F811006F
:1033100010BD002010BD7047034B082153F820005A
:10332000C3689B6A184700BFC0C6012008B504F0F7
:10333000A5FEBDE8084005F09FB800BF024B002184
:103340001B68DB695B68184738010020024B1B686B
:10335000DB695B68184700BF3801002008B107F03F
:10336000BFB9704708B504F091FEBDE8084005F00C
:1033700083B800BF012801D900207047014B53F8E2
:1033800020007047A8C30120014B1B68187C7047C0
:1033900038010020024B1B68DB69587E704700BF74
:1033A00038010020034B1B68DB69187EDB7E00FBC5
:1033B00003F070473801002038B50D46144604F07C
:1033C00029FF10B100232B60236038BD044A054B50
:1033D000B2F90020B3F9003002600B60704700BF03
:1033E000AAC60120ACC6012010B5044603F098FD22
:1033F00001462046BDE8104003F02ABD12F0E0BDB2
:10340000044B3422352061219A70187018461971C6
:10341000DA707047200100200A4B1A68938D03F080
:103420000C03082B05D00C2B03D0042B05D0002057
:103430007047D369187E40087047D369187E0138F9
:10344000704700BF38010020024B53F820301B6941
:1034500018687047C0C60120024B53F820301B6922
:1034600058687047C0C60120024B1B685884002072
:10347000998470473801002090B583B000AF534A5B
:10348000524B1B6823F001031360514B1B68C3F3BD
:103490000A0340F2494293420CBF01230023DAB2EF
:1034A0004B4B1B68C3F30A0340F251418B420CBFE4
:1034B00001230023DBB21343DBB21946444B1B68E4
:1034C000C3F30A0340F2524293420CBF012300238C
:1034D000DBB20B43002B10D03E4B01221A6000BF21
:1034E0003C4B1B68002BFBD13B4B3C4A1A603A4BD0
:1034F0001B683B4A934218D0FEE73A4B1B68C3F364
:103500000A03B3F58A6F10D1374B01221A6000BF4E
:10351000354B1B68002BFBD1344B304A1A60334BC0
:103520001B682F4A934200D0FEE702F0B7FD304BF4
:103530002E221A7012F04AFD2E480FF0EDFD12F007
:1035400011F9786004F0E0FE0346002B0CBF012364
:103550000023DCB204F01EFF0346002B0CBF012346
:103560000023DBB22343DBB2002B09D004F0E2FEE0
:10357000044604F025FF03461946204605F048FAA4
:103580000021002002F014F807F0EEFB1A4B1B6834
:10359000002B12D00DE0184B1B681B68002B03D0CA
:1035A000154B1B681B689847134B1B685B68124AD6
:1035B0001360114B1B68002BEDD1104B01221A70C8
:1035C0007B6818460C37BD4690BD00BF002000E068
:1035D000002004E00830024000300240C2A507F499
:1035E000CDB5E8B50010005C084C0258004C0258FC
:1035F000A8C6012088C2012000C30120B8C601204E
:1036000080EAE0730246A3EBE073092B1FDD632B16
:1036100020D9B3F57A7F20D342F20F718B421FD9A4
:1036200017498B421FD917498B421FD916498B4224
:103630001FD916498B421FD915498B428BBF0A20CF
:10364000092009230823002AB8BF981C70470120CD
:103650000023F8E702200123F5E703200223F2E725
:1036600004200323EFE705200423ECE706200523CD
:10367000E9E707200623E6E708200723E3E700BF82
:103680009F8601003F420F007F969800FFE0F505FE
:10369000FFC99A3B10B582B028B90F4B1B68186E52
:1036A00008B902B010BDFEF735FB02AB446943F820
:1036B000080D1846FEF762FC002CF2D0204602AC42
:1036C000FEF728FB826844F8040D9368984720466B
:1036D000FEF754FC02B010BD3801002000B970475D
:1036E000014A114600F002B801F0FFFF2DE9F04752
:1036F000DFF8F08084B0064600200C46154601F045
:1037000035FFD8F80030814630461F6EFEF702FBC9
:1037100003680090986901F00BFF314B82469C4290
:10372000009B4DD01A895B89013AADF80840013BF6
:10373000ADF80A5022442B44ADF80C20ADF80E3001
:1037400006F088FB6846FEF719FC02A808F016FD93
:1037500018BB504601F0ECFE002F39D0D8F80030ED
:103760001B6E93BB06F01CFD3846FEF7D3FA04AC83
:10377000D8F8003044F80C0D1F660068FFF70CF80D
:103780002046FEF7FBFB05F0F5F905F007F9484682
:1037900001F0ECFE04B0BDE8F0872A462146304631
:1037A00000F038FD08F07CFB0028D2D02A462146E4
:1037B000304600F02FFD08F073FB0028EDD1C8E77C
:1037C000B3F90440B3F90650ACE701F0A7FEC9E72E
:1037D00001F0A4FE484601F0C9FE04B0BDE8F08740
:1037E00001F0FFFF380100202DE9F0431D4F0E4688
:1037F00005461D4C396885B017469846487C54F8F4
:10380000204001E0246814B3E3681A68042AF9D15F
:10381000DB6A0121204698478146F0B12469A368FC
:103820009847124A013043463146CDF8049006BF0E
:1038300014464FF0010E4FF0000E3A46284602940F
:10384000CDF800E000F062FB05B0BDE8F083FFF7C3
:1038500013F8044608B1C368DAE7002005B0BDE8F4
:10386000F08300BF38010020C0C60120F0640708C3
:103870002DE9F0431C4D0F4606461C4C296885B0C7
:1038800090469946487C54F8204001E02468DCB119
:10389000E3681A68042AF9D1DB6A012120469847B7
:1038A0000546B8B12469A3689847013016D00C9931
:1038B0004B4642460294009139460195304600F04D
:1038C00025FB05B0BDE8F083FEF7D6FF044608B13E
:1038D000C368E1E7002005B0BDE8F0830C9B044C11
:1038E00043F001030C93E2E738010020C0C6012039
:1038F000F064070870B4059C14B170BC00F006BBFE
:10390000204670BC704700BFC0B1114B1B681B6ED6
:10391000984210B5044682B016D02046FEF7FAF958
:10392000436901905BB90068FEF734FF01A8FEF718
:1039300025FB2046FDF7BCFF02B010BD70471846BE
:1039400002F044F90198EEE701F0E8FDE5E700BF79
:10395000380100202DE9F04FDFF864B189460446B4
:103960005548DBF800101E4687B092464F7CC3577F
:103970003846012B40F38E8004F0CCFC05463846D7
:1039800004F00EFD0746002C00F0818005A904A874
:10399000FFF71CFD049A059B1544B4F900201F4451
:1039A000B4F9023022EAE272013D23EAE373013FF7
:1039B000114602921846B4F9042003939542D4BFED
:1039C000C1EB0501C1EB0201B4F9063002460D4618
:1039D0009F42D4BFC2EB0702C2EB03020135174678
:1039E000013706B97E42002D4DDD002F4BDD109BC7
:1039F0002A460399009333460298FFF739FF804621
:103A000000284FD000F0C2F88742064604D0DBF809
:103A10000030986C00284BD140463D46002400F011
:103A2000B5F90EE0AD1BACB950463444C847234B42
:103A3000FF201B6803B198474046FFF74FFEA7429F
:103A400012DDAE42EEDD2946404600F085F9AD1BA1
:103A5000002CE9D0039B40460299E21800F0C0F91F
:103A60004046FFF717FEDFE74046FFF74DFF002017
:103A700000F08CF9B74206D0DBF80030986C10B13A
:103A8000332109F0C9F8002007B0BDE8F08F039496
:103A90000294A6E704F0E8FB0546384604F00EFC65
:103AA000074670E75046C847012007B0BDE8F08FD1
:103AB000322109F0B1F8AFE7BCC6012010C50120E2
:103AC0003801002030B583B018B90446204603B051
:103AD00030BDFEF71FF9036802AD1B6945F8040D00
:103AE0009B68984705F066F904462846FEF746FAB3
:103AF000204603B030BD00BF70B110B582B0FEF7F4
:103B000009F900F1180402AB43F8040D1846FEF75A
:103B100035FA204602B010BD704700BF10B582B024
:103B200060B1FEF7F7F802ABB0F9044043F8040DBA
:103B30001846FEF723FA204602B010BD044B1B685E
:103B4000186E0028EDD10446204602B010BD00BF1B
:103B50003801002010B582B060B1FEF7DBF802AB8F
:103B6000B0F9064043F8040D1846FEF707FA204660
:103B700002B010BD044B1B68186E0028EDD104463E
:103B8000204602B010BD00BF3801002010B582B041
:103B900060B1FEF7BFF802ABB0F90A4043F8040D7C
:103BA0001846FEF7EBF9204602B010BD044B1B6827
:103BB000186E0028EDD10446204602B010BD00BFAB
:103BC000380100202DE9F04F804687B0002758E0EB
:103BD000002E7ED106F0A2FD804500F09A80584B61
:103BE00001264946224602935846564B00960193B9
:103BF0002B4600F08BF981464046FEF78BF80346D2
:103C00000590C0F82490B9F1000F79D0826A05A818
:103C1000DFF840B142F480329A62FEF7AFF94846CD
:103C200000F0B4F882463046474E02F033F848467A
:103C3000FFF762FF454B05FB04F2454C19789200F3
:103C40003568A84740462568CBF8008006F0B8FDE7
:103C50002060404608F0A8FE002225601046CBF800
:103C6000002002F017F8504600F090F84046FEF7AA
:103C70009FF9406AB0FA80F35B090137042F22DC18
:103C80000BB34046FEF746F8034605A8B3F900B06B
:103C9000B3F90290B3F90440B3F90650CBEB040436
:103CA0000593C9EB05055E6A0134FEF767F9013536
:103CB000002DC8BF002CD4BF0123002388DC0137AE
:103CC0000020042FDCDD08B100F0BCF807B0BDE82F
:103CD000F08F3046FEF71EF8034606A8B3F90650EB
:103CE00040F8083DB3F90440FEF748F9A94501D171
:103CF000A345BBD04A465946304600F071F8B5E7B7
:103D000005A8FEF73BF9404608F04EFE334648460C
:103D1000B3E704F0E3FA064604F026FBB44202DC03
:103D200085427FF75CAFB442A8BF34468542A8BF46
:103D30000546214640462A4607F070FE4FE700BF81
:103D4000F06407081CE207081002002014C50120D7
:103D5000E0C5012070D1012010B50C4682B060B1E1
:103D6000FDF7D8FFB0F90A300190A342C8BF4481E3
:103D700001A8FEF703F902B010BD034B1B68186ED3
:103D80000028EDD102B010BD38010020F0B5134F6E
:103D900083B03B681E6ED8B10446B6B906F000FA8F
:103DA0002046FDF7B7FF02AD3B6845F8040D1C66E1
:103DB0000068FEF7F1FC2846FEF7E0F804F0DAFEB2
:103DC00004F0ECFD304603B0F0BD01F0A7FBE5E7E1
:103DD00001F0A4FB304603B0F0BD00BF3801002065
:103DE00030B50C4683B028B9154B1B68186E08B95E
:103DF00003B030BD15B224B2FDF78CFFC5808480BE
:103E0000009004F0CBFD009B586920B96846FEF78E
:103E1000B5F803B030BDFDF77DFF009B0190B3F90D
:103E20000820B3F90A308280C38013B10AB104803C
:103E3000458001A8FEF7A2F86846FEF79FF8E8E77C
:103E40003801002000B9704770B584B00446FDF712
:103E500061FF014601A8B1F90460B1F906500A8971
:103E60004B89324401912B44ADF80860013AADF81A
:103E70000A50013BADF80C20ADF80E30FEF77EF88D
:103E800002A808F07BF940B12A463146204600F0EE
:103E9000A3F908F005F80028F6D104B070BD00BF02
:103EA00000B9704770B584B00C4615460646FDF75C
:103EB00031FF154A0346019094421FD01A8901A888
:103EC0005B89013AADF80840013BADF80A50224445
:103ED0002B44ADF80C20ADF80E30FEF74FF802A8D9
:103EE00008F04CF940B12A462146304600F074F9FA
:103EF00007F0D6FF0028F6D104B070BDB0F9044039
:103F0000B0F90650DAE700BF01F0FFFF2DE9F04FEE
:103F1000DFF82C8187B082468B46D8F80000174620
:103F20001E461299437C00221198FEF76DFB002873
:103F30004DD0036905469B68984704F03BFF00FBA2
:103F400007F48146FDF76AFF109B073413F0010365
:103F50004FEAD4043FD0002E2CDD002B42D004FBCE
:103F600006F01830FDF760FC024668B300230293A8
:103F700010460392FDF7CEFE029A034606A8A3F868
:103F800004A0A3F806B01F815E81DC60C3F8109026
:103F90005A6140F8043D1D60FDF7F0FF129AD8F811
:103FA00000302A61039A1046AA605B7CAB6107B0BF
:103FB000BDE8F08F002C34D1204676428642A8BF5F
:103FC000064693B3002ECADC2846FEF7E3FB00202A
:103FD00007B0BDE8F08F0028B8BF0330801000EBB9
:103FE0004000B8E700933A4633465946504601F040
:103FF00063FD029004FB06F01830FDF719FC024641
:104000000028B5D128460392FEF7C4FB029B002B83
:10401000DDD01846FDF74CFC039A104607B0BDE80A
:10402000F08F1838B0FBF4F0C7E700933A463346F8
:104030005946504601F040FD002E0290DADCC3E7FD
:10404000380100202DE9F04FDFF880918BB05D4BF7
:10405000D9F800C0DFF878819CF811E053F82E40C1
:10406000D8F80030D4F810E0002B00F0A6801646F7
:10407000DCF8602007460D46002A75D0E268126819
:10408000072A78D0504AC2EB0E02B2FA82F25209E5
:10409000002A70D03846FDF73DFE03460AA8B3F962
:1040A00008B040F8083DB3F90AA00BEB0504DB6843
:1040B000013C0593FDF762FFD9F80010B1F90C300F
:1040C000B1F90800E41A002CCCBFC4EB0B045C4629
:1040D00085425EDB0023002C43DD0AEB0600B1F9CC
:1040E0000EE00138CEEB00000028C8BFC0EB0A0A82
:1040F000B1F90A00B04247DC0021BAF1000F079382
:1041000006912EDD3846FFF7F7FC079BD9F8002013
:10411000069901FB0B31136E00EB8107002B3CD09D
:104120001846FDF7F7FD02460AA8B2F90410B2F9E5
:1041300006306D1A40F8042DF31AA900D56801F174
:10414000180605FB03661644FDF718FF4EB1059BE4
:10415000224600953946019330465346D8F8004030
:10416000A0470BB0BDE8F08FE2681268B2FA82F2A5
:104170005209002A8ED1734632462946384611F03C
:1041800087F80BB0BDE8F08F811B0646C1EB0A0A29
:10419000B3E7431B0546E41A9DE7507C4FEA8B02C8
:1041A000DFF830E03B4602922946CDF804A03246C3
:1041B0000094DEF80040A047D3E7734611F068F89A
:1041C000CFE700BFC0C60120F06407083801002017
:1041D000CCC60120C8C601202DE9F04182B00F46AF
:1041E00090460646FDF796FD034602AC16211D6873
:1041F000002044F8043DEB685B6A9847054620467A
:10420000FDF7BCFE1DB1424639463046A84702B014
:10421000BDE8F08100B970472DE9F04FA3B08B469F
:1042200092460446FDF776FD22AB456943F81C0D26
:104230001846FDF7A3FE2046FFF744FC08288146F8
:1042400040DD002D3ED12046FDF764FD22AA034645
:10425000B0F9081042F8100D10460D92B3F90A207B
:104260000A9109921968DA680E690B930E92FDF7AC
:1042700085FE924892490068D6F80480407C51F847
:1042800020100D692B680C93FFF746F808280B9B4C
:1042900014D910288BBF20221022042702270B924A
:1042A000AE4200F0F882B9F1200F00F0B381B9F10D
:1042B000100F00F0458123B0BDE8F08F08220127E0
:1042C0000B92EDE70021012320467C4E20910DF159
:1042D00088080B9121930A93FDF71CFD074630686F
:1042E0003A68FB68B7F908101269139314913B6997
:1042F000B7F90A10407C0993169148F8147D556867
:10430000D7F81490FFF708F832680E90507CFFF74A
:10431000A3F807464046FDF731FE099A0A9B082A92
:104320000B9940F29D80102A13460A918CBF0423FA
:1043300002230C93BD4200F0C1813368587CFFF723
:1043400083F8149B06469800FDF76EFA109000283B
:10435000B1D02046FFF7D0FB0446B9F1000F00F0C2
:1043600088804846FDF7D6FC169B1E90002B40F334
:10437000A1810023DDF83880CDF834A00B93139B86
:10438000CDF848B0E31815931FAB19460F93836817
:1043900000225B691F920B9A9847159B139A04465B
:1043A0009B1A0E93149B834200F0F680099B012B0D
:1043B00000F08880002842D01CAB11931098FDF7C4
:1043C000A9FC099B07461C90082B1F9A65D90C9BDA
:1043D000A3460E99824602FB031939F8020BA8473F
:1043E000B047BBF1010B4AF8040BF6D1B8F11F0F2F
:1043F00004D838464246214601F0B6FC0A9901230A
:104400001F982246059112991C9F08440021019390
:1044100000930391CDF808800D99049703F0E6FB13
:104420001198FDF7ABFD1F9B1E981C440B9A8368E7
:104430000F991F945B69984704460028BED1159ACE
:1044400013990B9B0A44013315920D9A0B93013279
:104450000D92169A9A4200F02D811E980F9996E7B8
:10446000012A03D120AB0C920A9363E70C930A91C3
:1044700060E701250A9B139A099905930490584611
:10448000039202915146169B149A0195009503F0F0
:10449000ADFB1098FDF70CFA0DE70C9BA2460E99A8
:1044A000814602FB031B1BF8010BA847B047BAF17A
:1044B000010A49F8040BF6D198E700BF3801002043
:1044C000C0C601200028BAD0CDF8608019960B9F95
:1044D0000A9EDDF83880DDF83490DDF848A0DDF87C
:1044E0003CB017951192DDF87CE02246119D012326
:1044F0000EF0070049460395012506900AEB0E00D1
:10450000BEF1000F05960295B8BF0EF1070E01959A
:10451000009508EBEE0ECDF810E004F03DFB1F9B7C
:104520001E983A461C44594683681F945B69984715
:1045300004460028D7D1179DDDF86080199E7EE7DC
:104540000A9B03FB07F0FDF76FF9109000283FF47A
:10455000B2AEFDF7DFFB20902046FDF7DBFB00F15C
:1045600018031E900E932B69002B00F0A68173692F
:10457000002B00F0A281B0F908008000FDF754F98B
:104580001190002840F0BA811F900D98FDF7F6FCBD
:1045900020A8FDF7F3FC7CE71098FDF7BBFB099B17
:1045A00081461C90082B149F0446DDF838A028D9BA
:1045B0003AF8020BA847B047013F44F8040BF7D183
:1045C000B8F11F0F04D848464246149901F0CCFBBD
:1045D00022AB12980D991A460A9B05930023039368
:1045E000012352F818EDCDF8088017460193149A6C
:1045F0000093CDF810E003F0F9FA3846FDF7BEFC61
:104600001DE71AF8010BA847B047013F44F8040B17
:10461000F7D1D5E70A9B07FB03F0FDF705F90E90EC
:1046200000283FF448AEFDF775FB20902046FDF7CB
:1046300071FB1E902C6900F11808002C00F0EB8033
:104640000A9A5C4601260A954FEA82099346CDF8FC
:104650003090DDF8249017E0042F21D0012F15D0E1
:104660000B9B0020209D51460293012305905A4642
:104670000390204601969A440096049503F0B6FAFA
:10468000B9F1010900F0E880022FE5D10C9D404608
:104690003B465A46A8440A9D20992D69A847DFE762
:1046A0000C9B40460A9D5A46984420993B462D69EA
:1046B000A847D5E71EA8FDF761FCEAE62046FFF70C
:1046C0001BFA8046B9F1000F00F0D4804846FDF790
:1046D00021FB169B1E90002B40F3C88000261FABC9
:1046E000CDF834A00125B146DA461F46836832462C
:1046F000CDF87C9039465B699847149B0446834209
:1047000031D0099B012B57D020B30D9B0B9603EBA7
:10471000060B1F9801230C990A9A01FB008E099E33
:10472000139950440592224603915946CDF810E062
:1047300002960195009503F059FA1F9B1E98394681
:104740001C440B9A83681F945B69984704460028B1
:10475000DFD10B9E139B01369844169BB34240F366
:1047600085801E98C2E7CDF82C80B346984600E0BD
:10477000A3461E980BF101043946836822465B6903
:1047800098478045F4D00A9AC6EB0B03DDF82C80DD
:104790005046059201330D9ACDF810809119139E61
:1047A000099A039602920195149A06FB03880095D4
:1047B000264603F01BFAD0E70028CBD00D9B0B96C2
:1047C00003EB060BDDF87CE022460A9E01230EF087
:1047D00007005946059606900AEB0E00BEF1000F41
:1047E000139E0295B8BF0EF1070E0396019508EBD4
:1047F000EE0E0095CDF810E004F0CEF91F9B1E9848
:1048000039461C440B9A83681F945B699847044699
:104810000028D7D19DE7A1460125099E0123022F3B
:1048200051460A9A58460AEB030E00F0A981042F5C
:1048300000F07D819F4200F052810B9CF246CDF842
:1048400014900294209CCDF80C900195009504944E
:1048500003F0CCF9013EE1D10D98FDF78FFB20A8C4
:10486000FDF78CFB0E98FDF723F824E51EA8FDF755
:1048700085FB20E501240A9B139A0999059304906E
:104880005846039202915146169B149A0194009443
:1048900003F0ACF90FE50E9A0124183300250392BA
:1048A000514604935846099BCDF808900A9A0595FD
:1048B0000194009403F09AF9FDE40125DDF82890B5
:1048C000099E0123022F51464A4658460AEB030E21
:1048D00000F0D480042F00F0A0809F426DD000240F
:1048E00001950095F246059403940B9C0294209C3C
:1048F000049403F07BF9013EE3D146E6FDF70AFAA2
:104900001F9000283FF441AE0A9A0124CDF828B048
:104910004FEA420990460C95CDF83C90B146DDF83F
:1049200038B017E0042F2ED0012F28D00B9B002089
:10493000209D5146029301230590424603909A44DC
:10494000019400940A98049503F050F9099B013BE7
:1049500009932BD0022FE5D1209B1E463B464246B1
:104960001F995846D9F81450A8470F9D31463B4629
:10497000AB440C9D42461F982D69A847D6E7209B63
:104980001E460223EBE7209B42460F9E58461D46DB
:104990001F990223B344D9F81460B04729460C9DEF
:1049A0003B4642461F982D69A847BFE71FA8FDF761
:1049B000E5FA1198FCF77CFFE7E50A9B4446099667
:1049C0005D000C9E0C95209DDDF83880DDF8289068
:1049D00038F8020BA047B047B9F1010905F8010BFF
:1049E000F6D10E9D01230B985146AE460C9D0290C8
:1049F0005846AE44209DCDF814909A440A9ACDF8BA
:104A00000C90019700970495CDF838E003F0EEF88C
:104A1000099B013B0993D6D1B7E50A9B012509966D
:104A200044465E000C9F0C96209EDDF83880DDF831
:104A3000289038F8020BA047B847B9F1010946F8A9
:104A4000040BF6D10E9E01230B985146B6460C9EE0
:104A500002905846B644209ECDF814909A440A9A83
:104A6000CDF80C90019500950496CDF838E003F050
:104A7000BDF8099B013B0993D6D186E50A9B012528
:104A8000099644465E000C9F0C96209EDDF8388007
:104A9000DDF8289038F8020BA047B847B9F10109B2
:104AA00026F8020BF6D10E9E01230B985146B6460E
:104AB0000C9E02905846B644209ECDF814909A441D
:104AC0000A9ACDF80C90019500950496CDF838E03F
:104AD00003F08CF8099B013B0993D6D155E595006D
:104AE0000C9C09960C95209D4646DDF8289056F8BA
:104AF000040BA047B9F1010905F8010BF7D10B9898
:104B00000123209E514602905846CDF814909A44B5
:104B10000A9ACDF80C900197009704960C9D03F02B
:104B200065F8099BA844013B0993DCD194E60996FA
:104B3000012596000C9C0C96209E4746DDF8289097
:104B400057F8040BA047B9F1010946F8040BF7D157
:104B50000B980123209F514602905846CDF814909F
:104B60009A440A9ACDF80C900195009504970C9EF2
:104B700003F03CF8099BB044013B0993DCD16BE6A0
:104B80000996012596000C9C0C96209E4746DDF860
:104B9000289057F8040BA047B9F1010926F8020B39
:104BA000F7D10B980123209F514602905846CDF82B
:104BB00014909A440A9ACDF80C90019500950497A8
:104BC0000C9E03F013F8099BB044013B0993DCD120
:104BD00042E600BF094B1A6A002A18BF002003EB07
:104BE000800210B49469002C04DB4FF0FF3443F8CA
:104BF000201094615DF8044B704700BF24C301206E
:104C000058B311B30AB3B1F90030F0B5B2F900509E
:104C1000B2F902E0B1F902409D42B2F90470B2F972
:104C20000660A8BF1D46B1F904207445B1F90630ED
:104C3000A8BF7446BA420580B8BF3A46B342448022
:104C4000B8BF33468280C380F0BD002908BF11463B
:104C50000A684B68026043607047704778B189B258
:104C6000C38892B270B40688448885880E44144480
:104C70001A442944068044808180C28070BC7047F9
:104C800070B4124D04462B686A6893420FD0104EE0
:104C9000B34293E8070014BF0C333C3B84E80700A1
:104CA0002B60207A003070BC18BF01207047094A81
:104CB000934204D013E9070084E80700F1E73C338E
:104CC00093E8070084E80700EBE700BF3C01002001
:104CD0008CC3012050C30120034B09CBC01AB0FA8A
:104CE00080F04009704700BF3C010020F0B53C4E09
:104CF00085B00446336D002B55D03A4A01AD3A4990
:104D0000F36C116094E8070085E807000BB12846B2
:104D10009847364F3C687B689C4232D0B342304A59
:104D200032D09DF80C00A3F10C0113F804EC8C4672
:104D3000864535D18C4233D091423BD002F13C0EB6
:104D400011F8042C82423DD0734595E8070083E8B2
:104D500007000BD00C339C427B600BD0B36C0BB1C3
:104D60002846984700F048FC05B0F0BD1C4B9C421B
:104D70007B60F3D11E4B9C4214BF0C343C3C3C6026
:104D8000ECE7DFF86CE0DFE79DF80C0096F84420D4
:104D900082421DD106F13C0E744519D07146CFE711
:104DA00002F13C0ED0E7134B304640F8503F02F082
:104DB0006DFAA2E791F8442001F13C0E8242C3D182
:104DC0006346C1E7B34208D0A3F10C0C6346BBE7CE
:104DD00095E8070086E80700BCE7054BB4E700BF8D
:104DE00050C301207CD1012029A800083C010020EB
:104DF0008CC301205D3B0108094A136851688B424E
:104E00000CD010B5074CA34293E8030014BF08333D
:104E1000503B136006F0A4FB012010BD002070473A
:104E2000F8010020C0C40120F0B5164C059F25688C
:104E3000069CB5F908E0B5F90C607045B8BF70463E
:104E4000B242A8BF324690421ADCB5F90A60B5F901
:104E50000E50B142B8BF3146AB42A8BF2B468B4281
:104E600003DAF0BD25682DB12C46E5682D6835F0D4
:104E70000405F7D106940597BDE8F04003F030BC77
:104E8000F0BD00BF38010020B0F90220B1F90630B2
:104E90009A4214DCB1F90220B0F906309A420EDCD5
:104EA000B0F90020B1F904309A4208DCB0F90400EE
:104EB000B1F900308342CCBF0020012070470020B0
:104EC000704700BF08B5034B014674221868FBF712
:104ED000DDF908BD3801002000B970472DE9F04F19
:104EE000ABB00D4616461C921B91FCF713FFB0F9B0
:104EF000043004689D422790119400F058810020EE
:104F0000FEF744FFAD4B119A1B689269597C1F90C4
:104F10000846279D19928242209118BF5A74B5F90C
:104F20000430B5F9062019460793B5F90830104644
:104F300012925B1AB5F90A201C46121A08931646FB
:104F4000139222462B8A01329B071A92324602F1B3
:104F500001021D9240F10E811B9B6A695B1A03924C
:104F6000002B1C9A1493A2EB000440F3A481099334
:104F70004FF0010B0023DDF868901093002C40F3F4
:104F8000A5811D9B4FF0000A1794169301231593DA
:104F9000119E8B4BB0691B56012B40F38681002379
:104FA000ADF8A230ADF8A03003F0B4F9431EB069FB
:104FB000ADF8A43003F0F4F90138ADF8A600279855
:104FC0005A4600F1140108F0BBFD2190002800F0C2
:104FD000D08027985A4600F1140108F0B1FD2390C3
:104FE000002800F0C180279BD868002840F07E810F
:104FF000169A524500F0B4801A9B10999A00CDF889
:1050000010900AFB0313C4EB0A01D946229005EB6A
:1050100083030D9115990E93129B01FB02F2234419
:105020001E9218934FEA8B03D3460593179B139A4E
:105030005B45109CCCBF002301235A45B8BF002319
:105040000B93129B5B440F93189B5B440A93049B46
:105050001A46A24275D01498079BC0EB040A0E9D15
:1050600003440C935A4621460398FEF701F9030EB8
:1050700006465FD0099B089AA3420799CCBF00233C
:105080000123A2420C9A214402EB0407BDF9A0209F
:10509000B8BF00230691BA420B9903EA01030DDC65
:1050A000BDF9A2200A98824208DCBDF9A420BA42C8
:1050B00004DBBDF9A620824280F2A6804FF00008F2
:1050C000002B00F08380BAF1000F09DB0D9B002B51
:1050D00006DB1A4651460398FEF7CAF8030E75D050
:1050E000BDF9A0309F4223DBBDF9A2300A9883426C
:1050F0001EDCBDF9A430BB421ADBBDF9A6308342E9
:1051000016DB30462F4B229EFF221B6846F07F4164
:105110009847199A2C4B53F822301B691B68984703
:10512000219B02460A9900933846119B0FF054FDCB
:10513000C5F82080059B4C44CA441D44049BA342EF
:1051400090D10E9B1E99159A0B4493440E930D9B80
:105150001946169B11445B450D917FF467AF279B61
:10516000239918680FF000FA279B219918680FF00F
:10517000FBF9279D1B991A9B1C980B44A980421E82
:105180001D99013BE8800A442B81199B6A811946CD
:10519000209A914202D0094B1B685A741F98FEF75F
:1051A000F5FD27A8FCF7EAFE2BB0BDE8F08FB0F9BB
:1051B00006309E427FF4A3AEF3E700BF3801002023
:1051C000BCC6012048010020C0C60120BDF9A030A6
:1051D000069A934286DCBDF9A2200F98824281DCB8
:1051E000BDF9A42006998A42FFF67CAFBDF9A6203E
:1051F00001468242FFF676AF239B2A6A0698009307
:10520000119B0FF0E9FC6BE7DDF89C80B8F90420F6
:10521000BA422FDCB8F90810B9422BDBB8F906E026
:105220000146864526DCB8F90A00884222DBD8F818
:105230001400F8B12593BB1A194622930A9BCEEBB2
:1052400003031A462493FEF713F8030E259B11D08F
:10525000B8F90410B8F90820521A249902FB011277
:1052600022990A4408EB8208D8F8202042F07F40B7
:1052700090460FE0119A1068002833D0D0F80CE067
:1052800039460A9ADEF814802293C047229B804652
:1052900040F07F402493199A9A4B53F822201269C8
:1052A00052689047249B22900AE7F368304628A969
:1052B0001B6B984783E60022089B4FF0FF39099249
:1052C000149ACB4610931344089357E6139900227F
:1052D0004FF0FF3317920A4616938A4622441593DD
:1052E000139255E680464FF07F40D3E7FCF712FD5E
:1052F000169B2690534500F099801A9B10999A00AE
:10530000CDF810900AFB0313C4EB0A01D9460D91A6
:1053100005EB830312990F934FEA8B032144D34685
:10532000059318911599079B01FB02F22292149A9A
:1053300013440C93179B139A5B45CCBF00230123A6
:105340005A45109AB8BF00230B93129B5B441E93DF
:10535000189B5B440A93049B93425AD01446149AB8
:105360000F9DC2EB040A5A4621460398FDF780FFC1
:105370000646002846D0099B089AA3420B99CCBF49
:1053800000230123A242BDF9A020B8BF00231F467D
:105390000C9B03EB0408079B0F40424523440CDCA5
:1053A000BDF9A2200A98824207DCBDF9A42042453B
:1053B00003DBBDF9A620824257DA00220692002FB5
:1053C00039D0BAF1000F0E9309DB0D9B002B06DBE1
:1053D0001A4651460398FDF74BFF0E9B58B3BDF993
:1053E000A02090450CDBBDF9A2300A998B4207DC66
:1053F000BDF9A430434503DBBDF9A6308B4257DA33
:10540000069B2B62059B4C44CA441D44049B9C4252
:10541000A9D10F9B2299159A0B4493440F930D9B8E
:105420001946169B11449B450D9183D126A8FCF784
:10543000A5FD279B94E6BDF9A0209A42D1DCBDF9D9
:10544000A2101E9FB942CCDCBDF9A4109942C8DB62
:10545000BDF9A610B942C4DB1846239B2A6A394617
:105460000093119B0FF0B8FBB9E7279A0692B2F9A7
:10547000042042450DDC0698B0F90810414508DBD0
:10548000B0F906E00A998E4503DCB0F90A008842BB
:1054900018DA119A106800288FD0D0F80CE0414635
:1054A0000E930A9ADEF8143098470E9B069086E712
:1054B000269A4046119B52F82620219E00960FF016
:1054C0008BFB9DE72593C2EB0803CEEB0102069907
:1054D0000E93486919462492FDF7CAFE259B0028C1
:1054E000D7D00698B0F90410B0F90820521A2499C0
:1054F00002FB01120E990A4400EB8202126A069224
:105500005DE700BFC0C6012008B5034B74221968CF
:10551000FAF7BCFE08BD00BF3801002008B503F053
:10552000EFF903F027FBBDE8084004F093BC00BF8F
:1055300070B50A4D01282A68567C01D9304670BDE5
:105540000446FDF799F90028F8D02B685C74FFF742
:10555000E5FF034B30461C6070BD00BF38010020E2
:1055600014D1012003F0EEB903F026BA03F056BAC5
:10557000034B02461B68D86902B1DA61704700BF6D
:105580003801002010B418B111B10346002002E028
:10559000002101200B46034C034A216013605DF893
:1055A000044B7047C8C60120CCC6012003F07CBA6A
:1055B000084A0B46014670B415681A46064C074E59
:1055C0006D7C308054F82500054DC4682B80236A1B
:1055D00070BC184738010020C0C60120AAC60120AF
:1055E000ACC60120034B1B68B3F92A20588510462E
:1055F000704700BF38010020024B1B6803B11847F9
:10560000704700BFE0C40120024B1A6802B918605D
:10561000FFF7F2BF6CC401202DE9F041804682B053
:105620001C200D4617461E46FCF702F9044618B921
:10563000204602B0BDE8F081194B1A4A1A60FCF707
:1056400069FB009035B303465D616846C3F800808E
:105650001F619E81144DFCF791FC20460DF00EFE5B
:10566000AB683BB9114A2846012340F80C2FAB60C8
:1056700001F00CFE2046FCF74DFB2A68034602A809
:105680002C6040F8043D9A60FCF778FC204602B09C
:10569000BDE8F081FDF7B2FE009B0546D4E700BFF0
:1056A000ECC6012079570008CCC401203D3C01081C
:1056B00000B970472DE9F041DFF8B88082B00546A7
:1056C000D8F80040A04242D06F461CB919E0FCF760
:1056D00055FCB4B12046FCF71DFB034638469C68D8
:1056E0000093A542F3D12846FCF714FB0346009A29
:1056F00001A8996801939160FCF740FC3846FCF7DB
:105700003DFC2846FCF706FBD8F804400090A54273
:10571000184B29D094B101AE02E0FCF72FFC6CB11C
:105720002046FCF7F7FA034630465C680193A54231
:10573000F3D1009A52685A60FCF720FC3846FCF717
:105740001DFC2846FCF7B4F802B0BDE8F08102AEBB
:10575000FCF7E0FA83686F4646F8040D3046C8F857
:105760000030FCF70BFCCCE7426838465A60FCF787
:1057700005FCE6E7CCC401202DE9F0431B4D85B0C4
:1057800000266F682C463B462BB3FDF737FE80465C
:105790006868FCF7BFFA034668465A690093C8EB8D
:1057A0000202002A1BDCD3F8049061681A69CDF864
:1057B000048003910292C4F80490D3F80080FCF7AF
:1057C000DDFB01A8C047B9F1000F04D063680126D2
:1057D0009F42D9D10026304605B0BDE8F083684627
:1057E000FCF7CCFB304605B0BDE8F083CCC401200B
:1057F00010B582B018B90124204602B010BD0C4685
:10580000FCF788FA828902AB224243F8040D18465D
:1058100014BF01240024FCF7B1FB204602B010BDE8
:1058200000B9704730B585B00546FCF773FA0190B2
:10583000FDF7E4FD04AA52F80C1D8B6903441046E1
:105840004B61FCF79BFB2846FCF764FA124B029075
:105850005C68A54219D084B12046FCF75BFA034688
:1058600003A85C680393A54202D0FCF787FBF2E72C
:10587000029A52685A60FCF781FB02A8FCF77EFB93
:1058800028460DF0FBFC05B030BD426802A85A6006
:10589000FCF774FBF4E700BFCCC4012000B97047EB
:1058A00010B582B00C46FCF735FA02AB846143F8C0
:1058B000040D1846FCF762FB02B010BD0A4A002333
:1058C00030B5146883B003605CB105462046FCF730
:1058D00021FA02AB026943F8040D18462A60FCF76E
:1058E0004DFB204603B030BDCCC40120002370B571
:1058F0000B6082B018B90446204602B070BD0D4658
:10590000FCF708FA846801AE01902CB93046FCF728
:1059100035FB204602B070BD3046FCF72FFB204619
:10592000FCF7F8F9036901902B60EFE7014B1B6866
:10593000DB681847DCC60120014B1B681B68184751
:10594000DCC60120014B1B685B681847DCC60120E0
:10595000014B1B689B681847DCC60120F8B5084E50
:1059600005460468336820461B6898473368074635
:1059700020465B689847044438462C60F8BD00BF59
:10598000DCC6012000292DE9F04111DD00240F467D
:105990000646DFF820802546D8F80030301901355A
:1059A0005B6898470444A742F6DC2846BDE8F081CE
:1059B0000025FAE7DCC60120F8B569B105460C46BA
:1059C0000026064F3B6828465B689847013C054423
:1059D0000644F7D13046F8BD0E46FBE7DCC6012091
:1059E0002DE9F843089C054689469846A968434630
:1059F0002846561C4F684946B847013C3246F5D107
:105A0000BDE8F883F8B5B0F90040B0F904500C1BBC
:105A1000AC422ADA2344B0F90250E710FF21013BDF
:105A2000551B026904F00704DE4302FB057541FAC9
:105A300004F406F00706D7EBE30205F11405E4B21F
:105A400001FA06F600EB050EF6B20FD0435D013AFF
:105A50000EF101071C43002A445503DD3846174464
:105A6000FAF73EFC3C7834433C70F8BD435D34406B
:105A70001C434455F8BD00BF30B4B0F90240802546
:105A80000369121BB0F9004003FB02F3091B143336
:105A900001F0070203EBE1011541435C2B4330BCED
:105AA000435470470346B0F90620002114301B69A7
:105AB00003FB02F2FAF714BC2DE9F04302F10F04E4
:105AC000804683B0164624111D460F46640003FB32
:105AD00004F01430FBF7ACFE814688B1FCF71AF9EC
