:020000040800F2
:1000000028230020E1010008B3960108E9800108D7
:10001000B1960108532D0108A7B0010800000000A7
:10002000000000000000000000000000C3A2010862
:10003000192F010800000000C1960108F90100080D
:10004000FB010008FB010008FB010008FB010008A0
:10005000FB010008FB010008FB010008FB01000890
:10006000FB010008FB010008FB010008FB01000880
:10007000FB010008FB010008FB010008FB01000870
:10008000FB010008FB010008FB010008FB01000860
:10009000FB010008FB010008FB010008FB01000850
:1000A000FB010008FB010008FB010008FB01000840
:1000B00035A50108FB010008FB010008FB01000851
:1000C000FB010008FB010008FB010008FB01000820
:1000D000FB010008FB010008FB010008FB01000810
:1000E000812F0108FB010008FB010008FB0100084B
:1000F000FB010008FB010008FB010008FB010008F0
:10010000FB010008DD970108FB010008FB01000866
:10011000FB010008FB01000841A50108FB010008E4
:10012000FB010008FB010008FB010008852E010807
:10013000FB010008FB010008FB010008FB010008AF
:10014000FB010008FB010008FB010008B59601084F
:10015000FB010008912E0108FB010008FB010008CB
:10016000FB010008FB010008FB010008FB0100087F
:10017000FB010008FB010008FB0100080000000073
:10018000FB010008FB010008FB010008FB0100085F
:10019000FB010008FB010008FB010008FB0100084F
:1001A000458A0108FB010008452E0108FB010008F3
:1001B000FB010008FB010008FB010008FB0100082F
:1001C000FB010008FB010008DFF810D000F0AEF8DA
:1001D0000048004715C70108AFF30080282300201E
:1001E0000648804706480047FEE7FEE7FEE7FEE7D1
:1001F000FEE7FEE7FEE7FEE7FEE7FEE7E1A4010813
:10020000C90100082DE9F05F0546002092469B4693
:1002100088460646814640241BE02846414647461C
:10022000224600F072F853465A46C01A914110D344
:1002300011461846224600F059F82D1A67EB0108BE
:100240004F4622460120002100F050F817EB00092C
:100250004E41201EA4F10104DFDC484631462A4607
:100260004346BDE8F09F10B5441A0346944209D2B4
:100270008418114403E011F8013D04F8013D521EB9
:10028000F9D210BD40EA0104A40703D009E010C967
:10029000121F10C3042AFAD203E011F8014B03F82D
:1002A000014B521EF9D210BDD2B201E000F8012B71
:1002B000491EFBD270470022F6E710B513460A46E6
:1002C00004461946FFF7F0FF204610BD421C10F807
:1002D000011B0029FBD1801A7047034611F8012B3E
:1002E00000F8012B002AF9D118467047202A04DBB8
:1002F000203A00FA02F1002070479140C2F1200339
:1003000020FA03F3194390407047202A04DB203A77
:1003100021FA02F00021704721FA02F3D040C2F125
:10032000200291400843194670470000064C074DD3
:1003300006E0E06840F0010394E8070098471034B5
:10034000AC42F6D3FFF744FF98400208B8400208D9
:1003500070B58C1810F8015B15F0070301D110F887
:10036000013B2A1106D110F8012B03E010F8016BB4
:1003700001F8016B5B1EF9D12B0705D40023521E37
:100380000DD401F8013BFAE710F8013BCB1A921C9F
:1003900003E013F8015B01F8015B521EF9D5A1429D
:1003A000D8D3002070BD000070B5456882B0044607
:1003B0000146284608F04CFA68B123680F2B59D043
:1003C0000BDD282B45D0B3F5107F3CD0112B49D045
:1003D000204608F0ADFE02B070BD0B2B20D00E2BD6
:1003E000F6D1E3681A6859680D2A53D0202A31D112
:1003F000002928464FF480717DDD08F00BFB28466C
:1004000001F048FC02AB846A43F8040D184601F081
:1004100085FDA207DFD5284601210AF045F8DAE775
:10042000284602AD01F036FC03466830019301F026
:1004300023FA55F8040D03216C3001F039FA2846EF
:1004400001F06CFDC4E7324B214628461B689847F3
:10045000C1E7E368002BBBD128464FF4807108F058
:10046000DFF9B5E72B4B1B68002BB4D0214628469B
:100470009847B0E7284601F00DFC034602A840F873
:10048000043D5B6E1C6801F049FD002CA3D028469A
:10049000A047A0E70029DDDD4FF48071284608F071
:1004A000B9FA02AC284601F0F5FB866A44F8040D5F
:1004B000204601F033FDB10703D50121284609F09C
:1004C000F3FF4FF48071284608F0AAF9284601F09E
:1004D000E1FB034620461E8E9C6A019301F01EFD3F
:1004E000304605F01FF9A3077FF575AF28460221B6
:1004F00009F0DAFF6FE708F093F9284601F0CAFB2C
:10050000034602A89C6A1E8E40F8043DE6E700BF41
:10051000D4000020CC1000202DE9F043044687B021
:10052000304F00260091A569B0F90C104C35B0F998
:100530000A001944B4F910301044B4F90E200395A0
:1005400002970196B4F9085008F006FD804618B9E4
:10055000404607B0BDE8F083234F0DF1180901F0C4
:1005600099FB2946102205903E1D08F051FB59F8D1
:1005700004ED0FCE0EF134050FC50FCE0FC596E872
:100580000F0085E80F007B6B4846CEF8643001F021
:10059000C5FC7B6B40465B6898474046656801F048
:1005A00079FB034604A89C6E0493059401F0B6FC05
:1005B0002946484606F000FD0028C9D0059B9C420C
:1005C00009D0404601F066FB059A034604A89A66E6
:1005D000049301F0A3FC404609F094FC404607B0A8
:1005E000BDE8F083A9030008D4000020974A816881
:1005F00043682DE9F041044688B052F82160122B7F
:1006000040D8DFE803F0B03F3F3F3F0A973F3F3F0E
:100610003F3F3F3F3F3F3F3F4300F569002D40F0E4
:10062000B580371F57F8040F05F02CF804F11401BA
:1006300020690EC928445B1B521B2944013502F076
:10064000FDFE022DEED162693169E3690191911CD1
:10065000F76813442069A2695B1028440097521B75
:1006600002F0F6FDE1696269B0698B1E1144A2696E
:100670000190491020697669521B01312844009687
:1006800002F0E6FD002008B0BDE8F081006801F04E
:1006900001FB876E0490002F00F0D080A368B0F9B2
:1006A0005C80002B00F0C880032B14BF00230223C2
:1006B00000EB8303406D08AC1D6C04F0E7FF284697
:1006C00004F0E0FF06A802F0E7FFB28BBDF81810B7
:1006D00006A8BDF81C301144BDF81A509A1ABDF88E
:1006E0001E30ADF81810023554F8101D023BADF85D
:1006F0001C20B1F96020B1F95E10ADF81E30ADF8E4
:100700001A5004F039FB204608AC01F007FC022027
:1007100004F0F6FF384601F0BDFA06A9424644F857
:100720000C0D02F0A5FC204601F0F8FB002008B0FB
:10073000BDE8F081006801F0ADFA049020680BF08C
:10074000BBF8B8B9049B5D6F05B9DD6E04A801F074
:10075000E5FB0023284621681A4602F0B5FB00207D
:1007600008B0BDE8F08100680AF0EAF8002008B09F
:10077000BDE8F081A368002B64D1049A136F002BAD
:1007800014BF6C23682313445D68DFE7B268B0468A
:10079000C3690027039271688269029158F80409BD
:1007A000009561690190206905F0ACFF58F8040FCD
:1007B00004F068FFF369A26921696069D21A1944DB
:1007C000384402F015FEF369A2692169E069D21A82
:1007D0001944C01B02F00CFEF369E26961692069EB
:1007E000D21A1944384402F06BFEA069F369E26939
:1007F000C01B61690137D21A194402F061FE022F51
:10080000D4D1B06804F03EFFF16922696569901C9B
:10081000E3690A445B1A2944013A02F0A3FEF16934
:10082000A0696569E369821E401A5B1A2944013098
:1008300002F098FEF56906E7012339E704A801F004
:100840006DFB1FE7049BDD6E80E700BF8836020862
:1008500000B9704730B583B00D46044601F01AFA6E
:1008600002AB456543F8040D184601F057FB2046DE
:1008700009F048FB03B030BD70B582B018B901244F
:10088000204602B070BD0C46054601F003FA03464F
:10089000866E68468DE8480001F040FB214601A8BD
:1008A00006F08AFB00280CBF01240024E8D0019B3D
:1008B0009E4209D0284601F0EDF9019A03466846A8
:1008C0009A66009301F02AFB284609F01BFB20469C
:1008D00002B070BD2DE9F04F446805468BB020464C
:1008E0000AF0EAFF29460646204607F0B1FF002835
:1008F00034D02B680F2B5CD033DC0B2B46D00E2B67
:1009000051D1002E4FD0EB685A68002A4BDDD3F846
:100910000080A8F10903192B06D80121BF4A01FA6A
:1009200003F31A40002A3ED1C4B10AAE204601F0BA
:10093000B1F90346876D46F8180D304693F854A078
:10094000D3F83490DD6C01F0E9FA002F00F0DC8080
:1009500041462046B847204609F0D4FA0BB0BDE81E
:10096000F08F40F21312934228D0B3F5107F1AD1C2
:10097000EB68002B00F096801A7A002A4ED0002CEB
:1009800041D12046012109F08FFD0CE020460AAC40
:1009900001F080F90346343044F8043D00F06CFF68
:1009A000204601F0BBFA284608F0C2FB0BB0BDE8B8
:1009B000F08F2046012110F03FFBCFE720460AAE22
:1009C00009F0ACFE204601F065F9034646F8040D37
:1009D000304693F8562082F0040283F8562001F046
:1009E0009DFA0021204610F027FB204601F052F925
:1009F00003460021D0F88400099309F035FE304603
:100A000001F08CFACFE720461E6801F043F9436BF2
:100A1000079043B907A801F081FAB2E72046022106
:100A200009F042FDBFE7184601F034F9079B069034
:100A3000986E04F02BFE8046204608F085FE07469F
:100A4000069802F065FE079A8146136E03F00303D1
:100A5000012B00F0E781022B40F0DD813B1A0133CE
:100A600048BF0133A6EB6306069806F0DBF8002EBC
:100A70000746C0F2F881B14519DA204601F00AF9BB
:100A8000436B0890002B40F0D38108A801F046FA90
:100A900006A801F043FA404604F0F8FD204609F0AC
:100AA00031FAB7E72046032109F0FEFC7BE7024656
:100AB0003146069806F036F80646204601F0EAF878
:100AC000436B0890002BE0D0184626EAE67601F04A
:100AD000E1F8099006F0A6F80899B1F9383091F8D4
:100AE0005470CA6C002F18BF013BB342A8BF3346F5
:100AF0009842A8BF1846824200D0C864002309A8C3
:100B00000B6501F00BFAC0E7A8F10803162B00F201
:100B1000E680DFE813F0A000E400E400E400E40075
:100B2000E400E400E400BC00850076004800E40036
:100B3000E400E400E400E400E400E400E400E40095
:100B400038001700204601F0A5F803460AA85D6B9F
:100B500040F8083DDF6C01F0E1F9002D3FF4FBAEF9
:100B6000284601F097F839460646099004F0B2FF8E
:100B700005463046FFF7AAFB8542C0F0E28109A88E
:100B800001F0CCF9E7E6204601F084F8BAF1010F54
:100B90000346049040F08781002280F854203046BC
:100BA00001F0BCF9D7E6B9F1000F3FF4D4AE4846E6
:100BB00001F070F806462946099004F08BFF0644C0
:100BC000304604F047FF002305468DF82230ADF88B
:100BD0002030013D04F04AFF0746ADB2284604F03C
:100BE00045FF8742CBD1294608A804F02DFF08A96C
:100BF0003A463046FFF737FB0521204609F054FC02
:100C0000BDE7204601F046F8436B0890002B40F00A
:100C1000A88108A801F082F99DE600BF1300040333
:100C2000B9F1000F3FF497AE484601F033F806469D
:100C30002946099004F04EFF0644304604F00AFFAE
:100C4000002305468DF82230ADF82030013504F040
:100C50000DFF0746C1E7002D3FF47DAE204601F0B1
:100C600019F8436B0890002B40F0948108A801F01C
:100C700055F9204601F00EF8034608A85D6BDF6CBD
:100C8000089301F04BF9002D3FF465AE68E720466C
:100C900001F000F8436B0890002BBAD0184600F022
:100CA000F9FF099005F0BEFF089A6B1EB2F93810E3
:100CB00023EAE37392F85460D56C002E18BF013913
:100CC0008B42A8BF0B469842A8BF18460023854216
:100CD000136518BFD06409A801F020F999E7B8F1AD
:100CE0001F0F7FF738AEBAF1000F40F008812046A1
:100CF00000F0D0FFB0F9383081460590002B07DDB9
:100D0000406B002840F06B8107469F4280F2638170
:100D10001FFA88F30DF128091E46019359F8143D76
:100D2000DB6C4846039301F0F9F8304604F09EFE70
:100D30008346204600F0AEFF436B0690002B40F048
:100D40008F811E460AA80BEB060350F8102D0133C5
:100D5000568F9E1B01F0E2F8002E40F37E81204664
:100D6000103600F097FF0346B0F83A800AAFD3F888
:100D700034A0B04447F8080D384601F0CFF841469A
:100D8000504600F09BFF029000283FF4E4ADBAF11A
:100D9000000F00F0548109AE204600F07BFF029A5C
:100DA000034638460893A3F83A805A6301F0B6F830
:100DB000204600F06FFF03464846D3F83480059381
:100DC00001F0ACF8404600F065FF804603990990B9
:100DD00004F080FE80444046FFF778FA4146421C0A
:100DE00008EB0B00FFF73FFA0199404604F02CFE98
:100DF000304601F093F80521204609F055FB2046C6
:100E000000F048FF436B0890002B40F0F680384616
:100E100001F084F89FE5536ED16A5A1C0B681344A5
:100E2000F61A21E6536E3F1A0133FB1AF61A1BE637
:100E3000184627EAE77700F02DFF099005F0F2FE4B
:100E40000899B1F9383091F85460CA6C002E18BF77
:100E5000013BBB42A8BF3B469842A8BF184682420E
:100E60007FF44BAE4AE6204600F014FF436B089037
:100E7000002B3FF40AAE184600F00CFF099005F075
:100E8000D1FE0899B1F9383091F85460CA6C002E3F
:100E900018BF013B03EAE3739842A8BF1846824299
:100EA0007FF42BAE2AE60122204683F8542000F07E
:100EB000F1FE436B0890F3B1184625EAE57500F0A2
:100EC000E9FE099005F0AEFE089AB2F9383092F8C2
:100ED0005470D16C002F18BF013BAB42A8BF2B460A
:100EE0009842A8BF184600238142136518BFD064FA
:100EF00009A801F013F808A801F010F84FE60AAFAE
:100F0000204600F0C7FE466B034647F8080D3846FA
:100F1000D3F84C9001F002F8002E3FF4E8AE3046D2
:100F200000F0B8FE49460746099004F0D3FD064696
:100F30003846FFF7CBF986421CD309A800F0EEFF34
:100F4000D5E63544284604F08BFD29182846FFF7DE
:100F5000C4F909A800F0E2FF0521204609F0A4FA2F
:100F6000F9E4184600F096FE099005F05BFE089A39
:100F70006B1C9BE63E44304604F072FD311830464F
:100F8000FFF7ABF909A800F0C9FF0521204609F0D9
:100F90008BFAACE6184600F07DFE099005F042FEA3
:100FA000089A6B1EB2F9381092F8546023EAE37382
:100FB000D56C002E18BF01398B42A8BF0B46984252
:100FC000A8BF184600238542136518BFD06409A83E
:100FD00000F0A4FF4AE605A800F0A0FFBBE40AAEBB
:100FE00000F058FE46F8040D05F01CFE074630469A
:100FF00000F094FFB9F9383087E6184600F04AFE51
:10100000099005F00FFE08996B1C91F854E0B1F9B6
:10101000385023EAE373CA6CBEF1000F18BF013DDC
:10102000AB42A8BF2B469842A8BF18460023904267
:101030000B6518BFC864304600F070FFE7E600F0AB
:1010400029FE0AAE0D4B514646F8040D42461B6878
:101050009847304600F062FF9EE609AE08AFA7E66B
:1010600018460AAF00F016FE47F80C0DFFF72EF9F0
:101070000646384600F052FF64E600BF60010020DB
:101080002DE9F047044688B04D4F4FF4805600914B
:10109000A569B0F90C106035B0F90A001944B4F92B
:1010A00010301044B4F90E20039502970196B4F95C
:1010B0000850D4F8148007F04FFF20B900273846B5
:1010C00008B0BDE8F087074600F0E4FD294610228D
:1010D000059007F09DFD3B4E4FF0010CDDF814E04C
:1010E0000FCE0EF160050FC50FCED6F8009018F1A7
:1010F000010618BF0126B8F1000F0FC5C5F8009012
:101100008EF855C08EF8886055DD0FFA88F808EB28
:101110000C050023AEF8388005A808AEAEF83A30CA
:10112000CEF8343000F0FAFE384600F0B3FD034646
:10113000428FD3F83480154446F8080D304600F04D
:10114000EDFE2946404600F0B9FD824678B3B8F17D
:10115000000F1DD00DF11C09384600F09BFD034621
:1011600030465D87C3F834A0069300F0D7FE3846BA
:10117000648A00F08FFD079018B10466384608F0C5
:10118000C1FE484600F0CAFE384608B0BDE8F08708
:1011900000F080FD0DF120090B4B414649F8040D8C
:1011A0002A461B689847484600F0B8FED4E7384600
:1011B00007F0EEFF82E709254FF00808A9E700BF16
:1011C000D50800080C0100206001002000B970471C
:1011D00070B582B00D46044600F05CFD02AE0346D9
:1011E0008566204646F8043D08F08CFE304600F047
:1011F00095FE02B070BD00BF00B97047AFF300802C
:101200002DE9F04F8BB00E46074600F043FD0AADC6
:101210000246446B45F8180D2846B2F9388000F0B4
:101220007DFE002E00F0A880002C7DD1A146304626
:10123000444605F0F7FC8045A8BF044630462146E9
:1012400004F048FC00F10108384600F023FD436B30
:10125000C9EB080A0690002B57D19946D144438F19
:1012600006A809F10109C3EB090900F057FEB9F11D
:10127000000F25DD384609F1100900F00BFD03468B
:10128000428F0DF1280AD3F834B091444AF8080D82
:10129000504600F043FE4946584600F00FFD0190CD
:1012A00068B3BBF1000F54D0384600F0F3FC019B4B
:1012B00002465046A2F83A905363089200F02EFE80
:1012C000384600F0E7FC0346406B049300F0E2FC74
:1012D000314B4246314605901B689847059A0023DA
:1012E000904408F8013C049BB3F93820DC64A24226
:1012F00028D005A800F012FE284600F00FFE384660
:1013000008F000FE0BB0BDE8F08F18460DF1280B79
:1013100000F0C0FC4BF80C0DFEF7D8FF8146584694
:1013200000F0FCFD069899E720460AAC00F0B2FCFC
:1013300044F8140DFEF7CAFF00F10109204600F041
:10134000EDFD74E793F85420012AD2D1013CDC640E
:10135000CFE700F09FFC0AABDFF840E0594643F8C6
:10136000040D4A46DEF800B002930393D847029B6F
:10137000184600F0D3FD97E7384600F08BFC034693
:101380003430049300F078FA049B28465E87DE64CC
:1013900000F0C4FDB3E700BF5C0100206001002045
:1013A00000B9704730B583B004460D4600F072FCBA
:1013B000019018B10566204608F0A4FD01A800F0D0
:1013C000ADFD03B030BD00BF00B9704770B582B04D
:1013D000064615460C4600F05DFC019008B1022C53
:1013E00004D901A800F09AFD02B070BD00EB8401A1
:1013F0003046CD6608F086FDF3E700BF0D4B10B513
:10140000186806F0A5FE0C4B0C4C186806F0DAFEC6
:101410002368002201219A8510465A85197606F024
:1014200003FF074A2368126802B1DA6100229A7644
:1014300010BD00BFB4000020B0000020B8000020A4
:10144000AC000020014B83E803007047CC0E002065
:10145000014B83E803007047D40E0020014B83E862
:1014600003007047DC0E0020704700BF704700BFCC
:101470002DE9F04F5C4E8DB03368DA69B3F9225034
:10148000D469B4F80CB0834500F29780E1898142B9
:10149000C0F093802168CBEB000B08914FF0FF3137
:1014A0000A91BBF1FF3F00F0828092F81880A27C85
:1014B000B3F92A10B3F9249018FB02F308460791F8
:1014C0001F4694F810A006F0AFFED6F800E0089989
:1014D0004346DEF838C05246099007FB0B10DEF891
:1014E0001CE00B97012704904946CDF814C028460C
:1014F00094F812C00297CDF80CC09EF81BC0DFF81C
:10150000E8B0CDF804C09EF81AE0CDF800E005F090
:10151000B7FF0A9F7B1C25D0079941F0020006F017
:1015200083FEDBF800100B9A43460898D1F838C0C8
:1015300002FB0700D1F81CE00127CDF814C004908D
:10154000524694F812C0494602972846CDF80CC07E
:101550009EF81BC0CDF804C09EF81AE0CDF800E05C
:1015600005F08EFF3368DFF88080DB695A7E1B7ED2
:101570009A4215D9079B022B12D083F0040006F083
:1015800053FED8F800302846DB691F7ED97E9A7E4C
:101590005B7E07FB01910AFB02524B4406F078F98F
:1015A0009DF8240006F040FE3368B3F92250627CB7
:1015B00015445D840DB0BDE8F08FA1680029F6D018
:1015C0000F88B842F3D3B1F802E08645EFD3C01BD1
:1015D0004968676880B2089701EB800731F920B04D
:1015E000B7F902100A915CE7B8000020044B1B68B1
:1015F000DB69DB6909B11A7C0A60587C704700BF5F
:10160000B800002002230B80704700BFC3699A898D
:101610008A4202D8DA898A4211D2986818B10388BE
:10162000994201D20020704742888A42FAD3C91AEF
:10163000436833F82100C043C0F3C0307047012035
:10164000704700BF2DE9F04F3A4D89B02B68DA6939
:10165000B3F92A90D36943B11A88904202D35988CA
:10166000814205D29B68002BF6D109B0BDE8F08F0E
:10167000841AD3F80480484608EBC40696F802B0F2
:1016800006F0D2FD8246286818F834204FF0010E8B
:10169000C769D0F838C0B0F92410B0F922003B7EF9
:1016A0000790CDF814C07068CDF80CB00490CDF858
:1016B00008E097F81BE00798CDF804E0BF7E00979C
:1016C00005F0DEFE2B68DA69537E177EBB4223D914
:1016D000B9F1020F07931FD092F81BB001F0E0FFA1
:1016E000814601F0C1FF03F0CDFF124B18F834E042
:1016F0001868079BC169B0F92240CA7EB0F924106E
:1017000020460EFB02420BFB03130BFB071106F0F6
:10171000BFF8484603F0B6FF504606F085FD2B683B
:101720007178D8695A8C807E00FB01225A8409B0F6
:10173000BDE8F08FB8000020114B1B6870B4DD6964
:10174000EB6943B11A88904202D35C88844205D287
:101750009B68002BF6D1184670BC7047821A5E68F1
:10176000AC7E06EBC2035B7813FB04F00029F3D0D8
:1017700016F8323014FB03F370BC0B60704700BFE7
:10178000B800002001230B80704700BFC06950B132
:1017900003888B4202D843888B4203D2806800289A
:1017A000F6D170470120704700B970470AF078BC45
:1017B00008B900207047F8B506460AF071FC0446E7
:1017C00038B3154D3246154F0021E8696B6B013077
:1017D00003EBC406E86113F83400013003F8340069
:1017E00076683B6806F10800984731686A6B12F822
:1017F0003130012B01D9E86920B9013B204602F8BC
:101800003130F8BD0138013BE861204602F8313043
:10181000F8BD0020F8BD00BF1812002060010020B4
:1018200021F00301014B83E803007047E40E002020
:1018300000B9704770B50A4CC6000546636B334467
:10184000596848680AF07EFA6368626B0021606A32
:10185000013316446360706002F83510656270BD34
:101860001812002028B1034AD36B036003B15860FB
:10187000D063704718120020F8B50468054694B18B
:101880000A4EE700736B3B44596848680AF05AFAFD
:101890007368726B0020716A01331744736079605A
:1018A00002F83400746200232B60F8BD1812002087
:1018B00000292ADD2DE9F04700258A46041F134F31
:1018C000A94603E0AA45C4F800901CD054F8046F60
:1018D0000135002EF6D04FEAC6087B6B43445968A9
:1018E00048680AF02FFA7B68796BAA457A6A03F197
:1018F000010388447B60C8F8042001F836907E62BA
:10190000C4F80090E2D1BDE8F087704718120020BB
:10191000F8B58B4E044696F82830002B2FD00334B0
:10192000356CF26B24F003040434A54238BF25461D
:1019300062B152F8043C14469D4204D114E054F8BC
:10194000043C9D4210D02468002CF8D1F368B46B9D
:101950001C4454F8041C611A0B68002B68D14B68B6
:101960009D426FDD002408E023680BB16168596077
:10197000616801B10B60A24256D02046F8BD714BA0
:1019800001219A6886F8281058680AB982089A6076
:101990005A27102220254FF0400E376280273264EC
:1019A0004FF48072B5644FF400751968C6F850E0C2
:1019B0004FF4806EB7654FF4006732664FF4805283
:1019C000B5664FF40055A1F11403C6F870E0B7678F
:1019D0004FF4804EC6F880204FF40047C6F8885078
:1019E0004FF480324FF400350344C6F890E04FF4D2
:1019F000802EC6F898704FF40027C6F8A020022267
:101A0000C6F8A8500125B1637363C6F8B0E032612F
:101A1000F060C6F8B8705D60756275600AF092F9A2
:101A20000DF07EFC35637AE723682046F363F8BD4A
:101A300000200FF02DFE54F8041C611A0B68002BD7
:101A400090D18CE7581BD6F8B8703D4A041DBB42B4
:101A50000C4472D2D2F8B070BB426CD2D2F8A870EB
:101A6000BB4266D2D2F8A070BB4260D2D2F8987066
:101A70009F425AD9D2F89070BB4254D2D2F88870A3
:101A8000BB424ED2D2F88070BB4248D2926F934292
:101A900043D2376F2A4ABB423DD2976EBB4238D2FF
:101AA000176EBB4233D2976DBB422ED2176DBB422D
:101AB00029D2976CBB4224D2126C93420CD2F268AA
:101AC0007369521B2B44F260736110B944F8045CD3
:101AD00053E70AF037F9F9E700223768D1F808E050
:101AE000FF1ACB683760BEF1000F01D0CEF804308A
:101AF00013B1C3F800E0E2E706EBC202C2F844E02B
:101B0000DDE70122E9E70222E7E70322E5E7042215
:101B1000E3E70522E1E70622DFE70722DDE7082207
:101B2000DBE70922D9E70A22D7E70B22D5E70C2207
:101B3000D3E70D22D1E70E22CFE70F22CDE700BF7A
:101B400018120020E40E0020F8B54A4C94F8283012
:101B5000002B3DD0D4F8BC30464A3BBBD2F8B43061
:101B600023BBD2F8AC300BBBD2F8A430F3B9D2F817
:101B70009C30DBB9D2F89430C3B9D2F88C30ABB911
:101B8000D2F8843093B9D36F83B9536F73B9E36ECE
:101B900063B9536E53B9D36D43B9536D33B9D36C35
:101BA00023B9536C13B96FF00B00F8BD9B68002B81
:101BB000F9D0002201E09B6843B159681046914278
:101BC00001D90A4608469B68002BF4D10C38F8BDB1
:101BD000294B01219A6884F8281058680AB98208AC
:101BE0009A605A26102220254027266280262264E9
:101BF0004FF48072A5644FF40075196827654FF49F
:101C00008067A6654FF4006622664FF48052A56691
:101C10004FF40055A1F114032767A6674FF48047DE
:101C2000C4F880204FF40046C4F888504FF4803246
:101C30004FF400350344C4F890704FF48027C4F883
:101C400098604FF40026C4F8A0200222C4F8A850DF
:101C50000125A16363632261E060C4F8B070C4F839
:101C6000B8605D60656265600AF06CF80DF058FB65
:101C700025636FE718120020E40E002030B1044BFA
:101C80005B6B03EBC000436858680C38704700BFBB
:101C900018120020084AD169536B013110B4D16188
:101CA00003EBC00413F83020013203F830206068E1
:101CB0005DF8044B083070471812002009B9084637
:101CC00070472DE9F047064608468A460AF0E8F9CB
:101CD000044600285AD0002E58D02E4DF700DFF8C9
:101CE000B8C06B6BE969DA1913F8300003EBC40E66
:101CF0000231D2F804800130D8F8042003F834000F
:101D00000C3ADEF80490E96108F1080113F836E0B6
:101D1000524509F108000EF1010EA8BF524603F822
:101D200036E0DCF800309847D9F800106B6B13F8F8
:101D30003120012A03D9E86908B10138E861013A84
:101D400003F83120D8F8001013F83120012A06D901
:101D5000E869DFF840E010B10138CEF81C00D8196E
:101D6000013A03F831204168486809F0EBFF6B68DD
:101D7000696B4FF0000E6A6A01330F4420466B60B6
:101D80007A6001F836E06E62BDE8F0872046BDE873
:101D9000F08700BF181200205C010020F8B5544CF9
:101DA00094F82830002B51D0D4F8BC30504A83BB73
:101DB000D2F8B4306BBBD2F8AC3053BBD2F8A430FD
:101DC0003BBBD2F89C3023BBD2F894300BBBD2F88B
:101DD0008C30F3B9D2F88430DBB9D36FCBB9536F01
:101DE000BBB9E36EABB9536E9BB9D36D8BB9536D71
:101DF0007BB9D36C6BB9536C5BB96FF00B033D4986
:101E0000DA1781FB0313C2EB6313206A00FB03F0B4
:101E1000F8BD9B68002BF8D0002201E09B6843B11D
:101E200059681046914201D90A4608469B68002B22
:101E3000F4D10C38B0F5800F0346E0D8226A2D4B60
:101E400002FB00F0A3FB00235809F8BD2A4B012137
:101E50009A6884F8281058680AB982089A605A2645
:101E60001022202540272662802622644FF48072AB
:101E7000A5644FF40075196827654FF48067A6655F
:101E80004FF4006622664FF48052A5664FF4005569
:101E9000A1F114032767A6674FF48047C4F8802098
:101EA0004FF40046C4F888504FF480324FF40035A8
:101EB0000344C4F890704FF48027C4F898604FF43E
:101EC0000026C4F8A0200222C4F8A8500125A1636E
:101ED00063632261E060C4F8B070C4F8B8605D600C
:101EE0006562656009F02EFF0DF01AFA25635BE765
:101EF000181200201F85EB51E40E0020102807D98E
:101F0000054B5A685208904228BF104698607047A7
:101F10001020014B98607047E40E002003680B4AC4
:101F200030B4044653F8085C506B10F83530012B80
:101F300003D9D16909B10139D1610022013B00F80F
:101F400035301046226030BC704700BF18120020A8
:101F5000034B5B6B03EBC00040680830704700BF69
:101F6000181200202DE9F04FBB4DA5B00E469A4641
:101F70002D6824AC0DF1700C0DF16C0EE96B15465B
:101F8000B64F1AAA0B6819A944F8300D21A8069378
:101F90000DF15E03CDF804C0CDF800E02394219745
:101FA000DDF8B8B000F07CFB40B10120AA4B069AE6
:101FB0001B68DB6B1A6025B0BDE8F08F01F070FB89
:101FC000A54A199B116803FB0AF31A9ACC6C02FB11
:101FD0000AF2096D34190A9069181FA8079408912C
:101FE000ADF87E100139ADF87C40B3FBFBF3B2FBDA
:101FF000FBF223440A44013BADF88220ADF8803067
:1020000009F064F800286FD0BBF1000F5B464FF079
:102010000004B8BF0BF101035B10099319E014DB56
:10202000022B12DC1B9921A800F062FC1C981A9C60
:10203000019021A80094199B089ACDF80CB007993B
:10204000CDF808A00CF044FB044608F0E1FE00289F
:102050004BD01C9B002BE2D1BDF85E30013B1F2B07
:10206000F3D801A252F823F0552400084B200008B1
:102070004B200008552400084B2000084B20000886
:102080004B200008552400084B2000084B20000876
:102090004B2000084B2000084B2000084B20000874
:1020A0004B200008372300084B2000084B20000875
:1020B0004B2000084B2000084B2000084B20000854
:1020C0004B2000080F2200084B2000084B2000087E
:1020D0004B2000084B2000084B2000084B20000834
:1020E0004B200008F520000804460A9803F0CAFABD
:1020F00020465BE71A9B0022199903FB0AF30C9117
:102100001E9293FBFBF39342109340F34182013BF9
:102110000B934FF0FF330E930B4643F31A03DDF896
:102120002480D9469E00D0440024C1450AD9D04419
:102130000134C845FBD305E000F0C2FB013C002898
:1021400040F0B581631C1EAA4FF00003314621A860
:10215000F2D1D9440123C14500F24682D94401336A
:10216000C845FBD20E9A119302FB03F212921E9AFB
:1021700010460E9A013200F02082089B0B9A1344FD
:1021800019460F93119B5D4613960646013B099C29
:102190000C9A0B441593079B0D930023511C02E0EE
:1021A0000133994227D05444D71AAC42F8D332783D
:1021B0000133B1785D4442F07F427078A54206EB6E
:1021C000830642EA014343EA002000F21182012221
:1021D0005D440132AC42FBD2149205F0F3FF149A35
:1021E0000D98159B02440F990D92013A05F050FB92
:1021F0007A1E002FD1D10B9B129A10991344139E73
:102200008B420B9380F29781002B8CDA93E11A9B1F
:102210000022199903FB0AF30C911E9293FBFBF326
:102220009342109340F3AC81013B0B934FF0FF338B
:102230000E930B4603EB4303DDF82480D946DB0005
:102240001F335B119E00D0440024C8450ED2D044F9
:102250000134C845FBD309E0B800002091260008EE
:1022600000F02EFB013C002840F02181002C4FF0B3
:1022700000031EAA314621A8F2DAD9440123C14540
:1022800000F2AE81D9440133C845FBD20E9A1193B6
:1022900002FB03F212921E9A10460E9A013200F0CF
:1022A0008481089B0B9A134419460F93119B5D463A
:1022B00013960646013B099C0C9A0B441593079B09
:1022C0000D930023511C02E00133994228D054445D
:1022D000D71AAC42F8D331780133B2785D4441F07B
:1022E0007F41707803EB4303AC4241EA02421E4453
:1022F00042EA0020C0F09C8101225D440132AC42E0
:10230000FBD2149205F05EFF149A0D98159B0244BF
:102310000F990D92013A05F0BBFA7A1E002FD0D129
:102320000B9B129A139E9B180B9300F10481109A39
:10233000934288DBFFE01A9B0022199903FB0AF302
:102340000C911E9293FBFBF39342109340F3108188
:10235000013B0B934FF0FF330E930B461B01DDF84F
:102360002480D9461F335B119E00D0440024C14510
:102370000AD9D0440134C845FBD305E000F0A0FAE7
:10238000013C002840F09380621C4FF000031EAA1D
:10239000314621A8F2D1D9440123C845C0F01C819F
:1023A000D9440133C845FBD20E9A119302FB03F2C4
:1023B00014920E9A01321E9900F00781089B0B9A25
:1023C00013440F9324AA119B099C5D461046013BC0
:1023D0000F9A13440C9A1593079B0D93034643F8E9
:1023E0001C1D12930023511C02E00133994228D096
:1023F0005444D71AAC42F8D312985D44139304F0B6
:10240000ABFD05F0DFFC1D9A139BAC42014602EBCD
:1024100043031D93C0F0F98001225D440132AC42B8
:10242000FBD20846139205F0CDFE139A0D98159B2A
:1024300002440F990D92013A05F02AFA7A1E002FF4
:10244000D0D10B9B149A9B180B9374D4109A93427F
:102450008BDB70E01B9921A800F04AFA1A9B00223E
:10246000199903FB0AF30C91BDF85E101E920B91B3
:1024700093FBFBF8904573DD4FF0FF3308F1FF3914
:102480000D930B46013B1F2B68D8DFE803F0616713
:10249000675B67676756676767676767671267673E
:1024A000676767676712676767676767671201240F
:1024B000CBE50C9BDF001F377F11BF00099D5E46F7
:1024C00055440024AE4209D955440134B542FBD3EA
:1024D00004E000F0F5F9013C0028E8D1611C4FF060
:1024E00000031EAA394621A8F3D15E44AE4200F291
:1024F000998001235E440133AE42FBD90D9A1946FF
:1025000002FB03FE01321E984AD0089B03EB09022E
:102510000B9B0124F14402910493CDF804B00C9B71
:10252000CDF800A0079903940CF03CFDC14502DAF8
:10253000B9F1000FC4DA002487E50C9BDF1C27F0FB
:102540000307BBE70C9B9F001F377F11BF00B5E758
:102550000C9B03F11F077F11BF00AFE70027ADE71A
:10256000A5D00123C8F1000891460D930B4689E7D9
:102570009DD05B420B92109301230E930B46EDE628
:1025800095D05B420B92109301230E930B4651E6BC
:102590008DD05B420B92109301230E930B46BCE54A
:1025A000089A4A44D31A5A1CB2E70B99089A0A446B
:1025B000D31A01330F93194678E60B99089A0A4407
:1025C000D31A01330F931946DCE5089A0B9802449D
:1025D000D31A01330F93F5E60E9A11931492E9E69C
:1025E0000E9A1193129256E60E9A11931292BEE52C
:1025F00005F0E8FD119B012B27D10F990D9805F0EF
:10260000EDF80D9B01330D93F2E505F0DBFD119B19
:10261000012B1CD10F990D9805F0E0F80D9B0133AB
:102620000D930BE70121DDF834E00B46724669E7B4
:1026300005F0C8FD119B012B0BD10F990D9805F0EA
:10264000CDF80D9B01330D9367E60122C8E5012209
:10265000ECE6012259E600BF00B583B000F1120399
:1026600002A840F8043D04F07DFC03B05DF804FBD3
:1026700000B583B000F1160302A840F8043D04F051
:1026800071FC0028B8BF404203B05DF804FB00BFF6
:1026900010B40468104623445DF8044B0B60704787
:1026A0002DE9F043044683B00020894690461E463B
:1026B0006060034625686946A0683622A847362828
:1026C00003D0012003B0BDE8F08363686846363369
:1026D000636004F041FC009B054668460C330093A0
:1026E00004F040FC0746684604F03CFCC9F80000D2
:1026F000684604F037FC009BC8F8000068460233C7
:10270000009304F029FC3080684604F02BFC009B09
:102710000B9A0C3310606846009304F023FC338856
:10272000013B1F2BCDD801A252F823F0F727000858
:10273000C3260008C3260008EF270008C3260008A8
:10274000C3260008C3260008AD270008C3260008DA
:10275000C3260008C3260008C3260008C3260008B5
:10276000C3260008C3260008FF270008C326000868
:10277000C3260008C3260008C3260008C326000895
:10278000C3260008C3260008FF270008C326000848
:10279000C3260008C3260008C3260008C326000875
:1027A000C3260008C3260008FF2700084FF48073E3
:1027B0000A9A136008B10A9B18600B9B1B68032BD5
:1027C00021D060682838384460600A9B1B68B3F5E4
:1027D000807F3FF776AF44F642539D427FF471AF5E
:1027E0000B9B1868032894BF002001206AE7102380
:1027F0000A9A1360DEE702230A9A1360DAE70023DD
:102800000A9A1360D9E726681022636801A9A068B4
:10281000B047102805D06368A3F1380038446060E1
:10282000D3E7636801A8254E1033636004F09AFB78
:10283000306001A804F096FB706001A804F092FBE0
:1028400000223368F260DA07B06007D401225B0827
:102850001146013213F0010FF9D0F16001225B083B
:102860009646013213F00101F9D17368C6F818E0F9
:10287000DA07316107D401225B081146013213F0F7
:10288000010FF9D0316101225B089646013213F045
:102890000101F9D1C307C6F81CE0716106D4012318
:1028A00040081A460133C107FAD572610123400876
:1028B0001A460133C107FAD43262ACE7F00E0020A9
:1028C00070B504460D464BB94368114626682A4642
:1028D000A068B047854205D0012070BD00210B469D
:1028E0004160F2E7636800201D44656070BD00BF71
:1028F00000292FDD2DE9F0410F4682B00446002566
:10290000DFF8548015E06368019A0433D8F800605A
:1029100063601378917843F07F43507843EA014332
:1029200043EA002004F066FD46F825000135AF4279
:102930000CD00422266863680DEB0201A068B04742
:102940000428E0D0012002B0BDE8F081002002B0F0
:10295000BDE8F08100207047201300202DE9F041F0
:10296000064610461446884600F0A2FEC8B9A700E5
:10297000184D3B1905EB8303DA68B24204D11B6999
:10298000434501D1BDE8F0813B1905EB830358694C
:10299000B0B93C4405EB8404E660C4F81080BDE89F
:1029A000F0810C4B04EB840403EB840463689A68A5
:1029B0005968C2EB0802711ABDE8F04102F084BE0A
:1029C0005B689A685968C2EB0802711A02F012FB40
:1029D000DFE700BFA8110020C3B2CAB29A1A92B2B0
:1029E00010B414B2002C1EDBC1F30722C0F307237E
:1029F0009B1A9BB21AB2002A12DB090C02FB02F2EC
:102A0000C1EB104104FB042089B20CB2002C01DAA6
:102A100049420CB2A1B25DF8044B01FB01007047C2
:102A20005B421AB2E9E7524214B2DDE700212DE918
:102A3000F041084682B000F0ABFE042005F0F4FB44
:102A4000144B154F43F6FF761B6980463D463446CE
:102A5000DA6C68461B6D174416441D441C44ADF8DF
:102A60000070ADF80460ADF80250ADF8064008F013
:102A70002DFB48B1234632462946384604F008FF6C
:102A800008F0C6F90028F5D1404605F0CDFB02B0AC
:102A9000BDE8F081A800002001C0FFFF2DE9F04152
:102AA000074682B0042016461C460D4605F0BCFBC6
:102AB000124B804668461B69DA6C1B6D174416443E
:102AC0001D441C44ADF80070ADF80460ADF8025030
:102AD000ADF8064008F0FAFA48B1234632462946D6
:102AE000384604F0D5FE08F093F90028F5D14046A9
:102AF00005F09AFB02B0BDE8F08100BFA8000020FD
:102B0000034604202DE9F04182B0B3F90070B3F917
:102B10000260B3F90450B3F9064005F085FB124B8F
:102B2000804668461B69DA6C1B6D174415441E44C9
:102B30001C44ADF80070ADF80450ADF80260ADF87B
:102B4000064008F0C3FA48B123462A4631463846C3
:102B500004F09EFE08F05CF90028F5D1404605F02F
:102B600063FB02B0BDE8F081A80000202DE9F0472A
:102B7000044682B00D461646002B37D09A46009682
:102B800051460B9B204626680A9AB047074618B95B
:102B9000384602B0BDE8F08706F06EFD618A8046D7
:102BA000384605F037FF013D384607F027FF40461D
:102BB00007F024FF002D1DDD4FF0000903E007F0B2
:102BC0001DFF013D16D054F81C6F0023CDF8009076
:102BD000414620461A46B04706460028EFD13846FF
:102BE00006F0D6FA304602B0BDE8F08706F052FD96
:102BF0008246C4E740461D2107F0C6FDBAF1FF3FFB
:102C0000C6D006F06BFD40B9BA450CD0384607F087
:102C100021FE3846BDE70028F8D0FFF799F9806912
:102C20008742F8D1B4E75046B3E700BF012B17DC69
:102C30002DE9F04107461C2090460D461E46FEF742
:102C400067FE0446D0B16DB1056100232046A66140
:102C5000A4F81480E76023606360A360BDE8F0819E
:102C600000207047074B53F826200AB9EDE71A46B3
:102C70001368002BFBD113692361E6E70020BDE850
:102C8000F08100BFF4120020012B3BDC2DE9F8435A
:102C900081461C2090460F461E46FEF739FE05462B
:102CA00000287FD0414A002F31D00023DFF804E113
:102CB00052F8264003609EF8001007618E4286613C
:102CC000A0F81480C0F80C904360836002DB731C92
:102CD0008EF80030002C5DD021464C68002CFBD1D2
:102CE000D9F80000CB681B6883422CDD09680029F5
:102CF000F8D148B92E4B163628461A6842F82650A5
:102D0000BDE8F883002070472846BDE8F88352F8F4
:102D10002610002930D0084600E018460368002B32
:102D2000FBD10069DFF88CE02B6028619EF8000081
:102D3000AE618642A5F81480C5F80C906B60AB605C
:102D4000CBDB0C46C3E70AD04B6843B31D606B6016
:102D50008D4214BF0B4600234D602B60C9E7B8F1CC
:102D6000010FF1D104E0DC68194623688342EBDBF4
:102D70000B68002BF7D1E7E7DFF838E001609EF839
:102D8000003086619E42A0F81480C0F80C9041602B
:102D90008160D6DA42F82650D9F80000A9E742F857
:102DA0002650D5E70020BDE8F88300BFF4120020CC
:102DB000B8000020ED120020FEF754BD00283DD0E1
:102DC00070B48469012C03DD0123184670BC704780
:102DD0001F4B1A78944221DA1E4D55F824300BB956
:102DE00032E013465A68002AFBD1C268116802E03B
:102DF0001B68002BE8D0DA6812689142F8DB10D02B
:102E00005A68F2B110604260984214BF1A4600221C
:102E1000586000230260184670BC7047621C1A702C
:102E2000DAE7828A012AEBD104E0D66813463268D9
:102E30009142E5DC1A68002AF7D1E1E70123184640
:102E4000704745F82400DFE745F82400BDE700BFE0
:102E5000ED120020F41200200F4A816952F821304F
:102E600098420AD042680AB103681360036803B14C
:102E70005A600023036043607047036842F82130C2
:102E80002BB100225A604268002AEED1F0E7426876
:102E9000002AEAD1EDE700BFF412002001280EDC81
:102EA000084B53F8200058B1C3681B681BB908E0F1
:102EB000C3681B6823B100680028F9D1704700205F
:102EC00070477047F412002000B970472DE9F041B7
:102ED00082B01E4615460C460746FEF7DBFE02ABE7
:102EE000026843F8040D1846D2F80080FFF716F880
:102EF00033462A4621463846C04702B0BDE8F08135
:102F000070B50546094E10F08BF9054407E000F056
:102F1000FBFA3068A042A8BF204610F077F910F005
:102F20007FF92C1A002CF2DC70BD00BFC400002019
:102F30002DE9F04F484D83B0044600F0C9FB2B68E3
:102F40000646B3F9228000F0FBFB2B681FFA80F9DC
:102F50009A8CC9EB020212B29A84217800294FD0D0
:102F6000B6B22F4647F6FF71204603F033FE014606
:102F70008346204603F0EEFD29688B8D03F00303A2
:102F8000012B58D0022B5AD01FFA80FA4FF0000EB6
:102F90004B8C0AF1FF3CB1F92420CEEB0303ADF8D2
:102FA0000220013A9BB2B0186A460FFA83FE6344CE
:102FB000ADF806002046A1F822E05946ADF800E041
:102FC000ADF8043003F038F92B682046BDF8022034
:102FD00059469A8402F07EFD235C04440A2B19D0E2
:102FE0000D2B17D0BDF800003B688244A3F822A047
:102FF00022781AB162780134002AB3D1B3F92420BF
:10300000998D914421F00302A3F824909A8503B08E
:10301000BDE8F08F2B689A8D02F00302013A012A75
:1030200016D8A3F8228022780A2AE2D19A8C324458
:103030009A842278DDE71FFA80FEF246A8E700288E
:1030400003461FFA80FAB8BF431CC3F34F0E9FE735
:103050001A8C5A84E7E700BFB8000020034B1B68B6
:1030600059849A8408B1FFF763BF7047B800002005
:1030700000B3F0B5054683B016460C46C1B108460C
:1030800007F0B0FC074638B102462146684603F017
:1030900019FE684607F0A6FC32462146284647F648
:1030A000FF7303F02BF9384607F09CFC03B0F0BD2A
:1030B0000F46F1E7704700BF08B100F001B8704754
:1030C0002DE9F04F89468BB01F46B1F90030B1F9B8
:1030D0000410154600930446CE1AB9F9063005923D
:1030E00001910136B9F902B0039300F0F1FA15F03D
:1030F0000C05029019D0A2463A4631464FF000081E
:10310000504603F0C5FF48B182443A46314608F1C3
:103110000108504603F0BCFF0028F5D1082D79D0F6
:103120000C2D00F08280042D74D0BDF808A0484614
:1031300007F058FC02460490A8B10099002506A8A3
:103140002B4661F30F0501996BF31F4561F30F03E4
:103150000399069561F31F434946079303F0B2FDB7
:1031600006A807F03FFC059B1FFA8BF503F0030848
:103170000AF1FF3302934346B0461E4615E0022E85
:1031800034D01EB9B9F80030ADF820302046594689
:1031900008AA554403F050F820463A46414603F049
:1031A00077FF0444ADB2237873B33A4641462046D4
:1031B00003F0D0FFBDF80020029B8346ADF820202D
:1031C0002046EB18BDF804205946ADF82250ADF862
:1031D0002420ADF8263003F0BDFC012ECFD1B9F884
:1031E00004300133181AADF82000CFE7B9F9001008
:1031F000B9F904305B1A181A013048BF013001EBED
:103200006000ADF82000C1E7049807F0EBFB0BB0BD
:10321000BDE8F08FBDF808A0039B18FB0AF85D1C01
:10322000C8EB05050FFA85FB81E7039B029ACBEB00
:103230000303BDF808A0013308FB1238B8F1000FF2
:10324000B8BF08F101080BEB68050FFA85FB6EE7C4
:103250002DE9F04F654C91B02468E56C246D281879
:10326000AA186118E318064607900EA808920D46A2
:10327000029101931C46ADF83860ADF83C20ADF8E2
:103280003A10ADF83E3007F021FF002800F095809D
:10329000C5EB040B1A999DF86820C1F30724BBF114
:1032A000000F1B995B46B8BF0BF101030BFB02FE3D
:1032B000C1F307271A995B109DF86CC0C1F3074052
:1032C0001B9903EB0E05C1F307461A990A95090EDF
:1032D0000BFB04353C1B0B9503940BFB0034301A9D
:1032E0000BFB01335E460C940D931B9B0490C1EBCA
:1032F00013630593C2EB0C03069300F0D1F91A9BFC
:103300001B9A0990934267D0002E52D0029D019AD9
:10331000954259DC0AAF86464FF0010B97E88007CB
:1033200006E00BF1010B0135019BA646AB422FDBFA
:1033300070469AFBF6F499FBF6F197FBF6F398FBCF
:10334000F6FC2206059C43EA0C23A24442EA01440F
:10335000049A1C43029B9144069AAB421744039A79
:103360009044E0DA7445DCD004F02CFFBBF1010F8F
:10337000CBEB050105F1FF33089A079820D004F044
:1033800087FA0135019B4FF0010BA646AB42CFDA1D
:10339000204604F017FFBBF1010F17D0019B089ADC
:1033A000CBEB03010798013104F072FA099804F09D
:1033B00009FF07F02DFD00289FD111B0BDE8F08F67
:1033C000691E04F0E3F9AEE704F0FCFE089A0199E7
:1033D000079804F0DBF9E9E7184604F0F3FE019BD7
:1033E000089A0299079804F053FADFE7B800002022
:1033F000F0B5114F83B03B681D6DDC6C0544684629
:10340000661814442BB2ADF80060ADF80440ADF876
:103410000230ADF8063007F059FE50B13B68224645
:10342000294630465B6E1B68984707F0F1FC002880
:10343000F4D103B0F0BD00BFB80000202DE9F04387
:103440001E4C83B025682E7E2F6DEC6C013E07EB81
:10345000010907EB030825181444B2B26846AE1AF6
:103460001119C2EB09034244ADF80060ADF8041035
:10347000ADF80230ADF8062007F028FED8B109F10A
:10348000010708F1FF3622464946284604F07EF936
:1034900022464146284604F079F932463946284604
:1034A00004F0CEF932463946204604F0C9F907F057
:1034B000AFFC0028E7D103B0BDE8F083B8000020DE
:1034C000104B1B6870B5DD6C82B01C6D05446846FE
:1034D000661814442BB2ADF80260ADF80640ADF8A2
:1034E0000030ADF8043007F0F1FD40B1224631461E
:1034F000284604F0A5F907F08BFC0028F6D102B0AD
:1035000070BD00BFB80000202DE9F0410025124F2A
:10351000124EDFF84C803C681CB1A047041C18BF59
:10352000012405F051FF3368002818BF01244BB176
:10353000984738B1D8F8003013B1012498473CB10E
:103540000125E8E7D8F80030002BF7D1002CF7D19F
:103550002846BDE8F08100BF181300201C1300208E
:1035600014130020F0B5104C83B02468E56C246D72
:103570002F18154466181C446846ADF80070ADF865
:103580000450ADF80260ADF8064007F09FFD48B169
:1035900023462A463146384604F07AF907F038FCCB
:1035A0000028F5D103B0F0BDB8000020002850D0AD
:1035B000C388013B10B5848880681F2B47D8DFE89B
:1035C00003F0162346314646463C464646464646A6
:1035D0004640464646464646464646464646464691
:1035E0004610A31002FB031150F8210010BD02FB8E
:1035F00004F200EBD104C843A35C00F0070023FAF7
:1036000000F000F0010010BD02FB04F200EB910499
:103610006FEA4100A35C00F0060023FA00F000F01E
:10362000030010BD02FB04F200EB5104CB07A05CC9
:103630004CBF00F00F00000910BD02FB0404605CE9
:1036400010BD631002FB031130F8110010BD002003
:1036500010BD7047034B082153F82000C3689B6AD4
:10366000184700BFF412002008B504F051F9BDE876
:10367000084004F01DBB00BF024B00211B68DB6942
:103680005B681847B8000020024B1B68DB695B6869
:10369000184700BFB800002008B105F0DFBF704731
:1036A00008B504F03DF9BDE8084004F001BB00BFD7
:1036B000012801D900207047014B53F820007047C2
:1036C0006C100020014B1B68187C7047B80000206C
:1036D000024B1B68DB69587E704700BFB8000020B2
:1036E00038B50D46144604F0B9F910B100232B602B
:1036F000236038BD044A054BB2F90020B3F900300D
:1037000002600B60704700BFDE120020E012002054
:1037100010B5044603F086FA01462046BDE8104085
:1037200003F018BA0FF07CBD044B34223520612120
:103730009A70187018461971DA707047A00000204E
:103740000A4B1A68938D03F00C03082B05D00C2B41
:1037500003D0042B05D000207047D369187E4008A1
:103760007047D369187E0138704700BFB800002049
:10377000024B53F820301B6918687047F412002080
:10378000024B53F820301B6958687047F412002030
:10379000024B1B685884002099847047B8000020B1
:1037A00090B583B000AF534A524B1B6823F001031E
:1037B0001360514B1B68C3F30A0340F24942934222
:1037C0000CBF01230023DAB24B4B1B68C3F30A037F
:1037D00040F251418B420CBF01230023DBB2134363
:1037E000DBB21946444B1B68C3F30A0340F2524252
:1037F00093420CBF01230023DBB20B43002B10D0FC
:103800003E4B01221A6000BF3C4B1B68002BFBD1D2
:103810003B4B3C4A1A603A4B1B683B4A934218D0D8
:10382000FEE73A4B1B68C3F30A03B3F58A6F10D166
:10383000374B01221A6000BF354B1B68002BFBD1B0
:10384000344B304A1A60334B1B682F4A934200D0E6
:10385000FEE702F0B1FC304B2E221A700FF0E6FCAE
:103860002E480DF0A9F80EF0CBFF786004F070F947
:103870000346002B0CBF01230023DCB204F0AEF999
:103880000346002B0CBF01230023DBB22343DBB232
:10389000002B09D004F072F9044604F0B5F9034690
:1038A0001946204604F0BAFC0021002001F00EFF6A
:1038B00006F016FA1A4B1B68002B12D00DE0184BBD
:1038C0001B681B68002B03D0154B1B681B689847AF
:1038D000134B1B685B68124A1360114B1B68002B6B
:1038E000EDD1104B01221A707B6818460C37BD468B
:1038F00090BD00BF002000E0002004E0083002403E
:1039000000300240C2A507F4CDB5E8B50010005C58
:10391000084C0258004C0258DC1200204C0F0020CA
:10392000C40F0020EC12002010B582B028B90F4B54
:103930001B68186E08B902B010BDFEF7ABF902ABF8
:10394000446943F8080D1846FEF7E8FA002CF2D057
:10395000204602ACFEF79EF9826844F8040D936895
:1039600098472046FEF7DAFA02B010BDB8000020F2
:1039700000B97047014A114600F002B801F0FFFF9C
:103980002DE9F047DFF8F08084B0064600200C46B1
:10399000154601F079FED8F80030814630461F6E9A
:1039A000FEF778F903680090986901F04FFE314BFB
:1039B00082469C42009B4DD01A895B89013AADF842
:1039C0000840013BADF80A5022442B44ADF80C20CE
:1039D000ADF80E3005F0FCF96846FEF79FFA02A834
:1039E00007F074FB18BB504601F030FE002F39D0B1
:1039F000D8F800301B6E93BB05F090FB3846FEF7FD
:103A000049F904ACD8F8003044F80C0D1F66006882
:103A1000FFF7D4F92046FEF781FA04F0B1FC04F078
:103A2000C3FB484601F030FE04B0BDE8F0872A46EB
:103A30002146304600F07CFC07F0EAF90028D2D09D
:103A40002A462146304600F073FC07F0E1F90028D1
:103A5000EDD1C8E7B3F90440B3F90650ACE701F083
:103A6000EBFDC9E701F0E8FD484601F00DFE04B0AA
:103A7000BDE8F08701F0FFFFB80000202DE9F0431A
:103A80001C4D0F4606461C4C296885B09046994649
:103A9000487C54F8204001E02468DCB1E3681A68EF
:103AA000042AF9D1DB6A0121204698470546B8B1BE
:103AB0002469A3689847013016D00C994B464246BA
:103AC0000294009139460195304600F0ADFA05B0F8
:103AD000BDE8F083FFF7E2F9044608B1C368E1E707
:103AE000002005B0BDE8F0830C9B044C43F00103BB
:103AF0000C93E2E7B8000020F412002064CF010824
:103B0000C0B1114B1B681B6E984210B5044682B0C1
:103B100016D02046FEF7BEF8436901905BB90068F5
:103B2000FFF74AF901A8FEF7F9F92046FDF780FEF4
:103B300002B010BD7047184602F0D6F80198EEE7C3
:103B400001F07AFDE5E700BFB80000202DE9F04F55
:103B5000DFF864B1894604465548DBF800101E467C
:103B600087B092464F7CC3573846012B40F38E8076
:103B700003F0F4FF0546384604F036F80746002CFB
:103B800000F0818005A904A8FFF7B4FD049A059B05
:103B90001544B4F900201F44B4F9023022EAE2725D
:103BA000013D23EAE373013F114602921846B4F93E
:103BB000042003939542D4BFC1EB0501C1EB020180
:103BC000B4F9063002460D469F42D4BFC2EB07024D
:103BD000C2EB030201351746013706B97E42002DBC
:103BE0004DDD002F4BDD109B2A4603990093334691
:103BF0000298FFF743FF804600284FD000F08AF874
:103C00008742064604D0DBF80030986C00284BD180
:103C100040463D46002400F07DF90EE0AD1BACB9F6
:103C200050463444C847234BFF201B6803B19847D4
:103C30004046FFF79DFEA74212DDAE42EEDD29466B
:103C4000404600F04DF9AD1B002CE9D0039B4046E7
:103C50000299E21800F088F94046FFF765FEDFE7B9
:103C60004046FFF74DFF002000F054F9B74206D060
:103C7000DBF80030986C10B1332107F075FF00209D
:103C800007B0BDE8F08F03940294A6E703F010FF9D
:103C90000546384603F036FF074670E75046C847EA
:103CA000012007B0BDE8F08F322107F05DFFAFE7DC
:103CB000F012002074110020B800002030B583B04D
:103CC00018B90446204603B030BDFDF7E3FF036892
:103CD00002AD1B6945F8040D9B68984704F070FC21
:103CE00004462846FEF71AF9204603B030BD00BF4F
:103CF00070B110B582B0FDF7CDFF00F1180402AB32
:103D000043F8040D1846FEF709F9204602B010BD2D
:103D1000704700BF10B582B060B1FDF7BBFF02ABCA
:103D2000B0F90A4043F8040D1846FEF7F7F82046AC
:103D300002B010BD044B1B68186E0028EDD104467C
:103D4000204602B010BD00BFB80000202DE9F04FA2
:103D5000804687B0002758E0002E7ED105F09AFCFF
:103D6000804500F09A80584B01264946224602932E
:103D70005846564B009601932B4600F055F9814664
:103D80004046FDF787FF03460590C0F82490B9F13F
:103D9000000F79D0826A05A8DFF840B142F4803282
:103DA0009A62FEF7BBF8484600F0B4F88246304607
:103DB000474E01F0FDFF4846FFF79AFF454B05FBD4
:103DC00004F2454C197892003568A84740462568AA
:103DD000CBF8008005F0B0FC2060404607F08CFD79
:103DE000002225601046CBF8002001F0E1FF50468C
:103DF00000F090F84046FEF7ABF8406AB0FA80F366
:103E00005B090137042F22DC0BB34046FDF742FF6C
:103E1000034605A8B3F900B0B3F90290B3F9044022
:103E2000B3F90650CBEB04040593C9EB05055E6AB4
:103E30000134FEF773F80135002DC8BF002CD4BF44
:103E40000123002388DC01370020042FDCDD08B1CA
:103E500000F0BCF807B0BDE8F08F3046FDF71AFF60
:103E6000034606A8B3F9065040F8083DB3F90440EC
:103E7000FEF754F8A94501D1A345BBD04A4659469F
:103E8000304600F071F8B5E705A8FEF747F8404660
:103E900007F032FD33464846B3E703F043FE0646DB
:103EA00003F086FEB44202DC85427FF75CAFB44289
:103EB000A8BF34468542A8BF0546214640462A464B
:103EC00006F064FD4FE700BF64CF0108EC3F020835
:103ED000600100207811002014120020A02300208F
:103EE00010B50C4682B060B1FDF7D4FEB0F90A30CF
:103EF0000190A342C8BF448101A8FEF70FF802B0A9
:103F000010BD034B1B68186E0028EDD102B010BD28
:103F1000B8000020F0B5134F83B03B681E6ED8B1D7
:103F20000446B6B905F0FAF82046FDF7B3FE02AD37
:103F30003B6845F8040D1C660068FEF73FFF284605
:103F4000FDF7ECFF04F01CFA04F02EF9304603B044
:103F5000F0BD01F071FBE5E701F06EFB304603B008
:103F6000F0BD00BFB800002030B50C4683B028B9C2
:103F7000154B1B68186E08B903B030BD15B224B2DA
:103F8000FDF788FEC5808480009004F00DF9009B49
:103F9000586920B96846FDF7C1FF03B030BDFDF791
:103FA00079FE009B0190B3F90820B3F90A308280B2
:103FB000C38013B10AB10480458001A8FDF7AEFFAC
:103FC0006846FDF7ABFFE8E7B800002000B970478E
:103FD00070B584B00446FDF75DFE014601A8B1F955
:103FE0000460B1F906500A894B89324401912B448F
:103FF000ADF80860013AADF80A50013BADF80C206D
:10400000ADF80E30FDF78AFF02A807F05FF840B167
:104010002A463146204600F06DF906F0F9FE0028E8
:10402000F6D104B070BD00BF2DE9F04FDFF82C8150
:1040300087B082468B46D8F8000017461E46129974
:10404000437C00221198FEF7F1FD00284DD0036952
:1040500005469B68984704F0B3FA00FB07F48146D5
:10406000FDF79CFE109B073413F001034FEAD404C4
:104070003FD0002E2CDD002B42D004FB06F0183080
:10408000FDF792FB024668B30023029310460392A9
:10409000FDF700FE029A034606A8A3F804A0A3F8C1
:1040A00006B01F815E81DC60C3F810905A6140F851
:1040B000043D1D60FDF732FF129AD8F800302A61E6
:1040C000039A1046AA605B7CAB6107B0BDE8F08F35
:1040D000002C34D1204676428642A8BF064693B3D0
:1040E000002ECADC2846FEF767FE002007B0BDE8B8
:1040F000F08F0028B8BF0330801000EB4000B8E715
:1041000000933A4633465946504601F063FD02900B
:1041100004FB06F01830FDF74BFB02460028B5D132
:1041200028460392FEF748FE029B002BDDD018467E
:10413000FDF77EFB039A104607B0BDE8F08F1838F4
:10414000B0FBF4F0C7E700933A4633465946504671
:1041500001F040FD002E0290DADCC3E7B800002039
:104160002DE9F04FDFF880918BB05D4BD9F800C09E
:10417000DFF878819CF811E053F82E40D8F8003031
:10418000D4F810E0002B00F0A6801646DCF8602082
:1041900007460D46002A75D0E2681268072A78D0D3
:1041A000504AC2EB0E02B2FA82F25209002A70D0D3
:1041B0003846FDF76FFD03460AA8B3F908B040F88A
:1041C000083DB3F90AA00BEB0504DB68013C05933D
:1041D000FDF7A4FED9F80010B1F90C30B1F90800D0
:1041E000E41A002CCCBFC4EB0B045C4685425EDBBA
:1041F0000023002C43DD0AEB0600B1F90EE0013884
:10420000CEEB00000028C8BFC0EB0A0AB1F90A00D3
:10421000B04247DC0021BAF1000F079306912EDD72
:104220003846FFF765FD079BD9F80020069901FB8A
:104230000B31136E00EB8107002B3CD01846FDF7C5
:1042400029FD02460AA8B2F90410B2F906306D1A27
:1042500040F8042DF31AA900D56801F1180605FBF2
:1042600003661644FDF75AFE4EB1059B22460095A3
:104270003946019330465346D8F80040A0470BB06A
:10428000BDE8F08FE2681268B2FA82F25209002AA1
:104290008ED173463246294638460EF047F80BB0A9
:1042A000BDE8F08F811B0646C1EB0A0AB3E7431B4A
:1042B0000546E41A9DE7507C4FEA8B02DFF830E0B8
:1042C0003B4602922946CDF804A032460094DEF81F
:1042D0000040A047D3E773460EF028F8CFE700BFB1
:1042E000F412002064CF0108B80000200013002061
:1042F000FC1200202DE9F04182B00F4690460646A0
:10430000FDF7C8FC034602AC16211D68002044F8E6
:10431000043DEB685B6A984705462046FDF7FEFDC5
:104320001DB1424639463046A84702B0BDE8F0818B
:1043300000B970472DE9F04FA3B08B469246044672
:10434000FDF7A8FC22AB456943F81C0D1846FDF7A4
:10435000E5FD2046FFF7B2FC0828814640DD002D30
:104360003ED12046FDF796FC22AA0346B0F908107C
:1043700042F8100D10460D92B3F90A200A910992E5
:104380001968DA680E690B930E92FDF7C7FD924823
:1043900092490068D6F80480407C51F820100D69DD
:1043A0002B680C93FFF756F908280B9B14D910289B
:1043B0008BBF20221022042702270B92AE4200F06E
:1043C000F882B9F1200F00F0B381B9F1100F00F0BD
:1043D000458123B0BDE8F08F082201270B92EDE75D
:1043E0000021012320467C4E20910DF188080B917D
:1043F00021930A93FDF74EFC074630683A68FB6844
:10440000B7F908101269139314913B69B7F90A10B0
:10441000407C0993169148F8147D5568D7F814909C
:10442000FFF718F932680E90507CFFF7A9F907469C
:104430004046FDF773FD099A0A9B082A0B9940F242
:104440009D80102A13460A918CBF042302230C93EB
:10445000BD4200F0C1813368587CFFF789F9149B95
:1044600006469800FDF7A0F910900028B1D020462C
:10447000FFF73EFC0446B9F1000F00F08880484683
:10448000FDF708FC169B1E90002B40F3A181002332
:10449000DDF83880CDF834A00B93139BCDF848B0ED
:1044A000E31815931FAB19460F93836800225B69CD
:1044B0001F920B9A9847159B139A04469B1A0E93CA
:1044C000149B834200F0F680099B012B00F088804A
:1044D000002842D01CAB11931098FDF7DBFB099B21
:1044E00007461C90082B1F9A65D90C9BA3460E9972
:1044F000824602FB031939F8020BA847B047BBF10B
:10450000010B4AF8040BF6D1B8F11F0F04D8384656
:104510004246214601F0B6FC0A9901231F98224623
:10452000059112991C9F0844002101930093039167
:10453000CDF808800D99049702F0A2FF1198FDF7BD
:10454000EDFC1F9B1E981C440B9A83680F991F94C7
:104550005B69984704460028BED1159A13990B9BB6
:104560000A44013315920D9A0B9301320D92169A5B
:104570009A4200F02D811E980F9996E7012A03D1E7
:1045800020AB0C920A9363E70C930A9160E7012534
:104590000A9B139A09990593049058460392029135
:1045A0005146169B149A0195009502F069FF1098E8
:1045B000FDF73EF90DE70C9BA2460E99814602FBE2
:1045C000031B1BF8010BA847B047BAF1010A49F8D1
:1045D000040BF6D198E700BFB8000020F4120020C9
:1045E0000028BAD0CDF8608019960B9F0A9EDDF89E
:1045F0003880DDF83490DDF848A0DDF83CB0179540
:104600001192DDF87CE02246119D01230EF0070097
:1046100049460395012506900AEB0E00BEF1000FF6
:1046200005960295B8BF0EF1070E0195009508EBAF
:10463000EE0ECDF810E003F0B5FE1F9B1E983A4633
:104640001C44594683681F945B69984704460028B8
:10465000D7D1179DDDF86080199E7EE70A9B03FB8A
:1046600007F0FDF7A1F8109000283FF4B2AEFDF777
:1046700011FB20902046FDF70DFB00F118031E9062
:104680000E932B69002B00F0A6817369002B00F0BC
:10469000A281B0F908008000FDF786F8119000288B
:1046A00040F0BA811F900D98FDF738FC20A8FDF767
:1046B00035FC7CE71098FDF7EDFA099B81461C90CC
:1046C000082B149F0446DDF838A028D93AF8020BCD
:1046D000A847B047013F44F8040BF7D1B8F11F0FCA
:1046E00004D848464246149901F0CCFB22AB1298FC
:1046F0000D991A460A9B059300230393012352F850
:1047000018EDCDF8088017460193149A0093CDF860
:1047100010E002F0B5FE3846FDF700FC1DE71AF880
:10472000010BA847B047013F44F8040BF7D1D5E788
:104730000A9B07FB03F0FDF737F80E9000283FF4C3
:1047400048AEFDF7A7FA20902046FDF7A3FA1E9089
:104750002C6900F11808002C00F0EB800A9A5C46E6
:1047600001260A954FEA82099346CDF83090DDF88C
:10477000249017E0042F21D0012F15D00B9B00208F
:10478000209D51460293012305905A4603902046EE
:1047900001969A440096049502F072FEB9F101095F
:1047A00000F0E880022FE5D10C9D40463B465A467A
:1047B000A8440A9D20992D69A847DFE70C9B404635
:1047C0000A9D5A46984420993B462D69A847D5E74B
:1047D0001EA8FDF7A3FBEAE62046FFF789FA80460C
:1047E000B9F1000F00F0D4804846FDF753FA169B4C
:1047F0001E90002B40F3C88000261FABCDF834A0DC
:104800000125B146DA461F4683683246CDF87C90D2
:1048100039465B699847149B0446834231D0099B13
:10482000012B57D020B30D9B0B9603EB060B1F9863
:1048300001230C990A9A01FB008E099E139950449A
:104840000592224603915946CDF810E00296019553
:10485000009502F015FE1F9B1E9839461C440B9ACA
:1048600083681F945B69984704460028DFD10B9E3C
:10487000139B01369844169BB34240F385801E98E3
:10488000C2E7CDF82C80B346984600E0A3461E98B8
:104890000BF101043946836822465B6998478045DD
:1048A000F4D00A9AC6EB0B03DDF82C805046059233
:1048B00001330D9ACDF810809119139E099A039631
:1048C00002920195149A06FB03880095264602F091
:1048D000D7FDD0E70028CBD00D9B0B9603EB060B42
:1048E000DDF87CE022460A9E01230EF007005946BF
:1048F000059606900AEB0E00BEF1000F139E02957E
:10490000B8BF0EF1070E0396019508EBEE0E009569
:10491000CDF810E003F046FD1F9B1E9839461C445D
:104920000B9A83681F945B69984704460028D7D187
:104930009DE7A1460125099E0123022F51460A9AAF
:1049400058460AEB030E00F0A981042F00F07D8188
:104950009F4200F052810B9CF246CDF814900294D5
:10496000209CCDF80C9001950095049402F088FDF0
:10497000013EE1D10D98FDF7D1FA20A8FDF7CEFA5E
:104980000E98FCF755FF24E51EA8FDF7C7FA20E5B1
:1049900001240A9B139A099905930490584603929F
:1049A00002915146169B149A0194009402F068FDFE
:1049B0000FE50E9A01241833002503925146049303
:1049C0005846099BCDF808900A9A059501940094E1
:1049D00002F056FDFDE40125DDF82890099E012333
:1049E000022F51464A4658460AEB030E00F0D48087
:1049F000042F00F0A0809F426DD000240195009507
:104A0000F246059403940B9C0294209C049402F0BB
:104A100037FD013EE3D146E6FDF73CF91F90002843
:104A20003FF441AE0A9A0124CDF828B04FEA42097A
:104A300090460C95CDF83C90B146DDF838B017E0C3
:104A4000042F2ED0012F28D00B9B0020209D5146F3
:104A5000029301230590424603909A4401940094E6
:104A60000A98049502F00CFD099B013B09932BD099
:104A7000022FE5D1209B1E463B4642461F995846D1
:104A8000D9F81450A8470F9D31463B46AB440C9DC6
:104A900042461F982D69A847D6E7209B1E46022351
:104AA000EBE7209B42460F9E58461D461F99022366
:104AB000B344D9F81460B04729460C9D3B464246A2
:104AC0001F982D69A847BFE71FA8FDF727FA11987F
:104AD000FCF7AEFEE7E50A9B444609965D000C9E96
:104AE0000C95209DDDF83880DDF8289038F8020B11
:104AF000A047B047B9F1010905F8010BF6D10E9DA9
:104B000001230B985146AE460C9D02905846AE4488
:104B1000209DCDF814909A440A9ACDF80C900197F4
:104B200000970495CDF838E002F0AAFC099B013B00
:104B30000993D6D1B7E50A9B0125099644465E0044
:104B40000C9F0C96209EDDF83880DDF8289038F810
:104B5000020BA047B847B9F1010946F8040BF6D19A
:104B60000E9E01230B985146B6460C9E0290584665
:104B7000B644209ECDF814909A440A9ACDF80C9031
:104B8000019500950496CDF838E002F079FC099B78
:104B9000013B0993D6D186E50A9B01250996444637
:104BA0005E000C9F0C96209EDDF83880DDF8289082
:104BB00038F8020BA047B847B9F1010926F8020BF3
:104BC000F6D10E9E01230B985146B6460C9E0290DC
:104BD0005846B644209ECDF814909A440A9ACDF8CF
:104BE0000C90019500950496CDF838E002F048FC51
:104BF000099B013B0993D6D155E595000C9C09967C
:104C00000C95209D4646DDF8289056F8040BA047E9
:104C1000B9F1010905F8010BF7D10B980123209E8A
:104C2000514602905846CDF814909A440A9ACDF80D
:104C30000C900197009704960C9D02F021FC099BB3
:104C4000A844013B0993DCD194E60996012596001E
:104C50000C9C0C96209E4746DDF8289057F8040BD4
:104C6000A047B9F1010946F8040BF7D10B980123CD
:104C7000209F514602905846CDF814909A440A9AC3
:104C8000CDF80C900195009504970C9E02F0F8FB6E
:104C9000099BB044013B0993DCD16BE609960125E1
:104CA00096000C9C0C96209E4746DDF8289057F8FD
:104CB000040BA047B9F1010926F8020BF7D10B98B4
:104CC0000123209F514602905846CDF814909A44F3
:104CD0000A9ACDF80C900195009504970C9E02F06D
:104CE000CFFB099BB044013B0993DCD142E600BFF6
:104CF000094B1A6A002A18BF002003EB800210B487
:104D00009469002C04DB4FF0FF3443F820109461C9
:104D10005DF8044B704700BFE80F002058B311B393
:104D20000AB3B1F90030F0B5B2F90050B2F902E0BF
:104D3000B1F902409D42B2F90470B2F90660A8BF11
:104D40001D46B1F904207445B1F90630A8BF744678
:104D5000BA420580B8BF3A46B3424480B8BF334632
:104D60008280C380F0BD002908BF11460A684B68E5
:104D7000026043607047704778B189B2C38892B2CD
:104D800070B40688448885880E4414441A44294423
:104D9000068044808180C28070BC704770B4124D20
:104DA00004462B686A6893420FD0104EB34293E8D2
:104DB000070014BF0C333C3B84E807002B60207ACB
:104DC000003070BC18BF01207047094A934204D0DC
:104DD00013E9070084E80700F1E73C3393E8070094
:104DE00084E80700EBE700BFBC0000205010002063
:104DF00014100020034B09CBC01AB0FA80F0400910
:104E0000704700BFBC000020F0B53C4E85B00446A2
:104E1000336D002B55D03A4A01AD3A49F36C11601D
:104E200094E8070085E807000BB128469847364FFD
:104E30003C687B689C4232D0B342304A32D09DF805
:104E40000C00A3F10C0113F804EC8C46864535D117
:104E50008C4233D091423BD002F13C0E11F8042C2D
:104E600082423DD0734595E8070083E807000BD0E8
:104E70000C339C427B600BD0B36C0BB12846984737
:104E800000F048FC05B0F0BD1C4B9C427B60F3D1A8
:104E90001E4B9C4214BF0C343C3C3C60ECE7DFF8FA
:104EA0006CE0DFE79DF80C0096F8442082421DD1AB
:104EB00006F13C0E744519D07146CFE702F13C0E65
:104EC000D0E7134B304640F8503F02F061F8A2E7BC
:104ED00091F8442001F13C0E8242C3D16346C1E700
:104EE000B34208D0A3F10C0C6346BBE795E807007A
:104EF00086E80700BCE7054BB4E700BF14100020AC
:104F0000AC230020A1970008BC0000205010002016
:104F1000710E0108094A136851688B420CD010B514
:104F2000074CA34293E8030014BF0833503B1360BF
:104F300005F0CEFA012010BD002070474801002086
:104F400024110020F0B5164C059F2568069CB5F984
:104F500008E0B5F90C607045B8BF7046B242A8BF12
:104F6000324690421ADCB5F90A60B5F90E50B142EA
:104F7000B8BF3146AB42A8BF2B468B4203DAF0BD27
:104F800025682DB12C46E5682D6835F00405F7D16C
:104F900006940597BDE8F04002F0A8BFF0BD00BF41
:104FA000B8000020B0F90220B1F906309A4214DCB2
:104FB000B1F90220B0F906309A420EDCB0F90020B7
:104FC000B1F904309A4208DCB0F90400B1F90030BC
:104FD0008342CCBF0020012070470020704700BFF3
:104FE00008B5034B014674221868FBF73CF908BD6D
:104FF000B800002000B970472DE9F04FABB00D4666
:1050000016461C921B91FCF745FEB0F9043004686B
:105010009D422790119400F058810020FEF77AFFFE
:10502000AD4B119A1B689269597C1F900846279DC9
:1050300019928242209118BF5A74B5F90430B5F91B
:10504000062019460793B5F90830104612925B1AEC
:10505000B5F90A201C46121A0893164613922246E6
:105060002B8A01329B071A92324602F101021D92ED
:1050700040F10E811B9B6A695B1A0392002B1C9AFC
:105080001493A2EB000440F3A48109934FF0010BA9
:105090000023DDF868901093002C40F3A5811D9B40
:1050A0004FF0000A1794169301231593119E8B4B12
:1050B000B0691B56012B40F386810023ADF8A23066
:1050C000ADF8A03002F04AFD431EB069ADF8A4303F
:1050D00002F08AFD0138ADF8A60027985A4600F183
:1050E000140107F0BFFC2190002800F0D080279821
:1050F0005A4600F1140107F0B5FC2390002800F097
:10510000C180279BD868002840F07E81169A5245BE
:1051100000F0B4801A9B10999A00CDF810900AFB09
:105120000313C4EB0A01D946229005EB83030D91CA
:1051300015990E93129B01FB02F223441E921893C1
:105140004FEA8B03D3460593179B139A5B45109C3C
:10515000CCBF002301235A45B8BF00230B93129BF9
:105160005B440F93189B5B440A93049B1A46A2422C
:1051700075D01498079BC0EB040A0E9D03440C9352
:105180005A4621460398FEF711FA030E06465FD0F1
:10519000099B089AA3420799CCBF00230123A2428E
:1051A0000C9A214402EB0407BDF9A020B8BF0023EC
:1051B0000691BA420B9903EA01030DDCBDF9A22066
:1051C0000A98824208DCBDF9A420BA4204DBBDF98A
:1051D000A620824280F2A6804FF00008002B00F04B
:1051E0008380BAF1000F09DB0D9B002B06DB1A460A
:1051F00051460398FEF7DAF9030E75D0BDF9A030D9
:105200009F4223DBBDF9A2300A9883421EDCBDF920
:10521000A430BB421ADBBDF9A630834216DB304610
:105220002F4B229EFF221B6846F07F419847199A18
:105230002C4B53F822301B691B689847219B024670
:105240000A9900933846119B0CF014FDC5F8208094
:10525000059B4C44CA441D44049BA34290D10E9B21
:105260001E99159A0B4493440E930D9B1946169B59
:1052700011445B450D917FF467AF279B2399186814
:105280000CF0C0F9279B219918680CF0BBF9279DF9
:105290001B991A9B1C980B44A980421E1D99013B27
:1052A000E8800A442B81199B6A811946209A914211
:1052B00002D0094B1B685A741F98FEF72BFE27A8D3
:1052C000FCF72CFE2BB0BDE8F08FB0F906309E4203
:1052D0007FF4A3AEF3E700BFB8000020F012002077
:1052E000C8000020F4120020BDF9A030069A9342B5
:1052F00086DCBDF9A2200F98824281DCBDF9A42092
:1053000006998A42FFF67CAFBDF9A620014682428B
:10531000FFF676AF239B2A6A06980093119B0CF048
:10532000A9FC6BE7DDF89C80B8F90420BA422FDCB9
:10533000B8F90810B9422BDBB8F906E001468645FA
:1053400026DCB8F90A00884222DBD8F81400F8B14C
:105350002593BB1A194622930A9BCEEB03031A46E8
:105360002493FEF723F9030E259B11D0B8F90410FE
:10537000B8F90820521A249902FB011222990A4412
:1053800008EB8208D8F8202042F07F4090460FE0DA
:10539000119A1068002833D0D0F80CE039460A9AE8
:1053A000DEF814802293C047229B804640F07F4065
:1053B0002493199A9A4B53F8222012695268904705
:1053C000249B22900AE7F368304628A91B6B984774
:1053D00083E60022089B4FF0FF390992149ACB46CE
:1053E00010931344089357E6139900224FF0FF33AC
:1053F00017920A4616938A4622441593139255E64D
:1054000080464FF07F40D3E7FCF744FC169B269084
:10541000534500F099801A9B10999A00CDF810908E
:105420000AFB0313C4EB0A01D9460D9105EB830374
:1054300012990F934FEA8B032144D3460593189199
:105440001599079B01FB02F22292149A13440C93C4
:10545000179B139A5B45CCBF002301235A45109A32
:10546000B8BF00230B93129B5B441E93189B5B44B5
:105470000A93049B93425AD01446149A0F9DC2EB90
:10548000040A5A4621460398FEF790F8064600287B
:1054900046D0099B089AA3420B99CCBF0023012355
:1054A000A242BDF9A020B8BF00231F460C9B03EB0E
:1054B0000408079B0F40424523440CDCBDF9A220A1
:1054C0000A98824207DCBDF9A420424503DBBDF9FE
:1054D000A620824257DA00220692002F39D0BAF174
:1054E000000F0E9309DB0D9B002B06DB1A4651467D
:1054F0000398FEF75BF80E9B58B3BDF9A0209045CA
:105500000CDBBDF9A2300A998B4207DCBDF9A4304F
:10551000434503DBBDF9A6308B4257DA069B2B626D
:10552000059B4C44CA441D44049B9C42A9D10F9B3B
:105530002299159A0B4493440F930D9B1946169B81
:1055400011449B450D9183D126A8FCF7E7FC279BCE
:1055500094E6BDF9A0209A42D1DCBDF9A2101E9FAD
:10556000B942CCDCBDF9A4109942C8DBBDF9A61044
:10557000B942C4DB1846239B2A6A39460093119B23
:105580000CF078FBB9E7279A0692B2F9042042455D
:105590000DDC0698B0F90810414508DBB0F906E0CB
:1055A0000A998E4503DCB0F90A00884218DA119A8C
:1055B000106800288FD0D0F80CE041460E930A9A6C
:1055C000DEF8143098470E9B069086E7269A4046F0
:1055D000119B52F82620219E00960CF04BFB9DE774
:1055E0002593C2EB0803CEEB010206990E9348699E
:1055F00019462492FDF7DAFF259B0028D7D006989C
:10560000B0F90410B0F90820521A249902FB0112D3
:105610000E990A4400EB8202126A06925DE700BF0F
:10562000F412002008B5034B74221968FAF71BFE28
:1056300008BD00BFB800002008B502F067FD02F009
:105640009FFEBDE8084003F0C3BB00BF70B50A4D24
:1056500001282A68567C01D9304670BD0446FDF702
:105660001DFC0028F8D02B685C74FFF7E5FF034BA6
:1056700030461C6070BD00BFB800002044230020ED
:1056800002F066BD02F09EBD02F0CEBD034B0246A5
:105690001B68D86902B1DA61704700BFB80000200A
:1056A00010B418B111B10346002002E0002101201E
:1056B0000B46034C034A216013605DF8044B7047AE
:1056C000FC1200200013002002F0F4BD084A0B4633
:1056D000014670B415681A46064C074E6D7C308042
:1056E00054F82500054DC4682B80236A70BC184708
:1056F000B8000020F4120020DE120020E01200208A
:10570000034B1B68B3F92A2058851046704700BF29
:10571000B8000020024B1B6803B11847704700BF58
:1057200044110020024B1A6802B91860FFF7F2BF5B
:10573000D01000202DE9F041804682B01C200D469B
:1057400017461E46FCF734F8044618B9204602B046
:10575000BDE8F081194B1A4A1A60FCF79BFA0090D9
:1057600035B303465D616846C3F800801F619E81C2
:10577000144DFCF7D3FB20460BF0D0F9AB683BB9D6
:10578000114A2846012340F80C2FAB6001F000FCC1
:105790002046FCF77FFA2A68034602A82C6040F8EE
:1057A000043D9A60FCF7BAFB204602B0BDE8F081E8
:1057B000FDF7B8FF009B0546D4E700BF1813002093
:1057C0009558000830110020510F010800B97047AA
:1057D0002DE9F041DFF8B88082B00546D8F80040E6
:1057E000A04242D06F461CB919E0FCF797FBB4B158
:1057F0002046FCF74FFA034638469C680093A542C2
:10580000F3D12846FCF746FA0346009A01A89968A6
:1058100001939160FCF782FB3846FCF77FFB28463A
:10582000FCF738FAD8F804400090A542184B29D06C
:1058300094B101AE02E0FCF771FB6CB12046FCF7BD
:1058400029FA034630465C680193A542F3D1009AD9
:1058500052685A60FCF762FB3846FCF75FFB28464B
:10586000FBF7E6FF02B0BDE8F08102AEFCF712FAEA
:1058700083686F4646F8040D3046C8F80030FCF7E0
:105880004DFBCCE7426838465A60FCF747FBE6E739
:10589000301100202DE9F0431B4D85B000266F68C4
:1058A0002C463B462BB3FDF73DFF80466868FCF76E
:1058B000F1F9034668465A690093C8EB0202002AD0
:1058C0001BDCD3F8049061681A69CDF80480039159
:1058D0000292C4F80490D3F80080FCF71FFB01A8E3
:1058E000C047B9F1000F04D0636801269F42D9D1A7
:1058F0000026304605B0BDE8F0836846FCF70EFB95
:10590000304605B0BDE8F0833011002010B582B0FC
:1059100018B90124204602B010BD0C46FCF7BAF9B4
:10592000828902AB224243F8040D184614BF0124B9
:105930000024FCF7F3FA204602B010BD00B970470E
:1059400030B585B00546FCF7A5F90190FDF7EAFEF4
:1059500004AA52F80C1D8B69034410464B61FCF7F6
:10596000DDFA2846FCF796F9124B02905C68A542D6
:1059700019D084B12046FCF78DF9034603A85C6872
:105980000393A54202D0FCF7C9FAF2E7029A5268E3
:105990005A60FCF7C3FA02A8FCF7C0FA28460BF0DD
:1059A000BDF805B030BD426802A85A60FCF7B6FAEF
:1059B000F4E700BF3011002000B9704710B582B085
:1059C0000C46FCF767F902AB846143F8040D1846F6
:1059D000FCF7A4FA02B010BD0A4A002330B51468DF
:1059E00083B003605CB105462046FCF753F902AB77
:1059F000026943F8040D18462A60FCF78FFA204626
:105A000003B030BD30110020002370B50B6082B0B0
:105A100018B90446204602B070BD0D46FCF73AF9AD
:105A2000846801AE01902CB93046FCF777FA204625
:105A300002B070BD3046FCF771FA2046FCF72AF937
:105A4000036901902B60EFE7014B1B68DB68184787
:105A500008130020014B1B681B681847081300201F
:105A6000014B1B685B68184708130020014B1B683B
:105A70009B68184708130020F8B5084E05460468CF
:105A8000336820461B6898473368074620465B68A2
:105A90009847044438462C60F8BD00BF0813002026
:105AA00000292DE9F04111DD00240F460646DFF8FC
:105AB00020802546D8F80030301901355B689847BA
:105AC0000444A742F6DC2846BDE8F0810025FAE749
:105AD00008130020F8B569B105460C460026064FAC
