:020000040800F2
:10000000A00B0020E10100084B4100082533000847
:1000100049410008BD1000085148000800000000D8
:100020000000000000000000000000006542000821
:1000300021140008000000004D410008674200083C
:10004000FB010008FB010008FB010008FB010008A0
:10005000FB010008FB010008FB010008FB01000890
:10006000FB010008FB010008FB010008FB01000880
:10007000FB010008FB010008FB010008FB01000870
:10008000FB010008FB010008FB010008FB01000860
:10009000FB010008FB010008FB010008FB01000850
:1000A000FB010008FB010008FB010008FB01000840
:1000B000FB010008FB010008FB010008FB01000830
:1000C000FB010008FB010008FB010008FB01000820
:1000D000FB010008FB010008FB010008FB01000810
:1000E000FB010008FB010008FB010008FB01000800
:1000F000FB010008FB010008FB010008FB010008F0
:10010000FB010008FB010008FB010008FB010008DF
:10011000FB010008FB01000869430008FB0100081F
:10012000FB010008FB010008FB010008FB010008BF
:10013000FB010008FB010008FB010008FB010008AF
:10014000FB010008FB010008FB010008FB0100089F
:10015000FB010008FB010008FB010008FB0100088F
:10016000FB010008FB010008FB010008FB0100087F
:10017000FB010008FB010008FB0100080000000073
:10018000FB010008FB010008FB010008FB0100085F
:10019000FB010008FB010008FB010008FB0100084F
:1001A000FB010008FB010008FB010008FB0100083F
:1001B000FB010008FB010008FB010008FB0100082F
:1001C000FB010008FB010008DFF810D000F0A2F8E6
:1001D00000480047094C0008AFF30080A00B002046
:1001E0000648804706480047FEE7FEE7FEE7FEE7D1
:1001F000FEE7FEE7FEE7FEE7FEE7FEE71543000841
:10020000C90100082DE9F05F0546002092469B4693
:1002100088460646814640241BE02846414647461C
:10022000224600F066F853465A46C01A914110D350
:1002300011461846224600F04DF82D1A67EB0108CA
:100240004F4622460120002100F044F817EB000938
:100250004E41201EA4F10104DFDC484631462A4607
:100260004346BDE8F09F00000649074A086850432E
:1002700043F23902104408604008704701490860A1
:10028000704700009C0000206D4EC64140EA01030B
:100290009B0703D009E008C9121F08C0042AFAD23C
:1002A00003E011F8013B00F8013B521EF9D2704700
:1002B000D2B201E000F8012B491EFBD270470022A8
:1002C000F6E710B513460A4604461946FFF7F0FF55
:1002D000204610BD202A04DB203A00FA02F100205B
:1002E00070479140C2F1200320FA03F31943904074
:1002F0007047202A04DB203A21FA02F000217047DF
:1003000021FA02F3D040C2F120029140084319467D
:1003100070470000064C074D06E0E06840F001031E
:1003200094E8070098471034AC42F6D3FFF750FF2B
:1003300004680008246800081CB5044600F07CFA34
:10034000034600F069FA02460020CDE900040648A1
:10035000064C006800EB800101EBC00104EB810159
:10036000C96D03F0A9FA1CBD5000002054050020FF
:100370000648C02330B408240522046061034361A9
:10038000C261C16230BC02F095B80000D004002008
:1003900030B40A4C0A4B246804EB440403EB840396
:1003A0009B689C881D68E41DDB88E408203A14FBE8
:1003B00002F203FB025230BC01F046B850000020AC
:1003C0003C060020094810B50068816941F0010130
:1003D000816101220648110301F097FC01220548C2
:1003E000BDE81040082101F090BC00005405002039
:1003F00000200240002802402DE9F0470027044673
:100400001546894610463A4600E0521C10F8011B7A
:100410000029FAD100F000FADFF89CC0012B274E2A
:10042000DCF8001001EB410106EB81018968898845
:10043000B0FBF1F002D0022B09D104E0801A48434E
:1004400004EB500002E0801A4843001B84B247F6D8
:10045000FF71601E884200D30124E04600F0DCF901
:100460000146D8F8000000EB400006EB80008068F1
:10047000808807FB101189B2814213D3012012E05A
:1004800049462046FFF784FFD8F800007F1CBFB222
:100490006D1C00EB400006EB8000806880882044E3
:1004A00084B2DBE700202A780AB1012100E00021B4
:1004B0000842E5D1BDE8F087500000203C0600204E
:1004C0002DE9FF4F82461446032089460025A0EB04
:1004D000440878E03E4EA9EB040B3E4F0AEB0500C2
:1004E000316801EB410157F821201FFA8BF103908D
:1004F00080B200F0AFF830681FFA8BF100EB4000DB
:1005000057F82020AAEB0500029080B200F0A2F874
:100510003068A9EB050B1FFA8BF100EB400057F890
:1005200020200AEB0400019080B200F093F83068BC
:100530001FFA8BF100EB400057F82020AAEB0400D3
:10054000009080B200F086F8316809EB040B039844
:1005500001EB410180B257F821201FFA8BF100F026
:1005600079F830681FFA8BF100EB400057F8202033
:10057000029880B200F06EF8326809EB050B019822
:100580001FFA8BF102EB420280B257F8222000F0F2
:1005900061F832681FFA8BF1009802EB420280B2D8
:1005A00057F8222000F056F8B8F1000F04DA08EBF3
:1005B000850000F1060805E0291B641E08EB810098
:1005C00000F10A086D1CA54284D9BDE8FF8F000028
:1005D000500000203C0600207CB51C4B06460D4612
:1005E0001B4C186800EB800101EBC00004EB80009D
:1005F000806C02281BD000F00FF9196800FB056021
:1006000001EB810505EBC10104EB8101C96D01EB33
:10061000800118680E4D0024E83500EB400355F8C2
:100620002330CDE90043012303F046F97CBD00F0FF
:10063000F3F8196800FB056001EB810505EBC101CA
:1006400004EB8101C96D01EB4001E2E7500000209D
:1006500054050020164B70B506460D461868154C1B
:1006600000EB800101EBC00004EB8000806C0228ED
:100670000ED000F0D1F8196805FB006001EB810392
:1006800003EBC10104EB8101C96D41F8202070BD6D
:1006900000F0C2F8196805FB006001EB810303EB71
:1006A000C10104EB8101C96D21F8102070BD00006B
:1006B00050000020540500202DE9F74FDFF8B490DA
:1006C00014460320DFF8B0A0A0EB44060F46002537
:1006D0009046D9F8000082B000EB40015AF82100A2
:1006E00000F006FA4FF6FF7B31E08CB102980BEA7E
:1006F00044027B19001BCDE9000299B280B2FFF7DA
:100700006BFF0098791B89B2019A80B2FFF764FFF2
:100710008DB102980BEA45023B1B401BCDE900025C
:1007200099B280B2FFF758FF0098391989B2019A3F
:1007300080B2FFF751FF002E03DA06EB8506B61DE7
:1007400004E0281B641E06EB80060A366D1CA542D9
:10075000CBD9D9F8000000EB40015AF8210000F095
:10076000C7F9029805B042463946BDE8F04FFFF799
:10077000A7BE0000500000203C0600202DE9FC41EF
:100780009846234B0746234E15460C46186800EB47
:10079000400056F8200000F0ABF91868A6F1E80216
:1007A00000EB800101EBC00002EB8000806C0228AE
:1007B0001FD000F031F8196800FB047001EB8104D0
:1007C00004EBC10102EB8101C96D01EB800400BFA4
:1007D00000F022F8411B1868434600EB400256F82F
:1007E0002220CDE900122A46214603F065F8BDE833
:1007F000FC8100F011F8196800FB047001EB810422
:1008000004EBC10102EB8101C96D01EB4004DFE79C
:10081000500000203C0600200548006800EB8001E5
:1008200001EBC000034901EB8000006E704700003F
:1008300050000020540500200548006800EB8001AE
:1008400001EBC000034901EB8000406E70470000DF
:1008500050000020540500202DE9F041224C2820B2
:10086000092140F21B1604F1140840F21525352227
:1008700040F21D1C0B2340F2352788E8EF100021C1
:100880002046FFF775FD4FF4F07222664FF4887131
:100890006166002084F8340084F8350084F836005E
:1008A0006060A060114AE06022602061204601F093
:1008B0006EFC18B90021204600F05CF80A4801F0EF
:1008C00069FC01220A48110301F01FFA09480122BC
:1008D000082101F01AFA00F017F9074800F0FAF8B9
:1008E0000020BDE8F08100005405002000680140B0
:1008F00000200240002802405400002030B58DB096
:100900000A46002304460093FFF786FFCDE9010362
:10091000FFF792FFFF21039007208DF830300992F6
:100920004FF4C0658DF83130CDE9043106938DF870
:100930003230CDE90750FFF76FFF0A90FFF77CFFD9
:100940000B9022460948694601F0F8FB074904EB81
:1009500044004FF0FF34E83101EB8002230654607D
:10096000034C946041F820300DB030BD5405002098
:10097000540000204748F0B5016887B041F080611D
:100980000160006800F080600590424814380168FA
:1009900041F400010160016801F400010591016862
:1009A00041F010010160016801F01001059101683A
:1009B00041F040010160016801F0400105910168CA
:1009C00041F480710160016801F480710591016852
:1009D00041F400710160016801F400710591016842
:1009E00041F480610160016801F480610591016852
:1009F00041F480710160016801F480710591016822
:100A000041F480610160006802240E2500F48060DA
:100A100005901020CDE9000402A8002180E83200F2
:100A20001D48694601F080F8E602694609200490F5
:100A30001A48CDE9006401F077F8194F4FF4664089
:100A4000CDE9000469463846049501F06DF84EF68C
:100A5000FF706946CDE900041248049501F064F87E
:100A60000495F720104D6946CDE90004284601F0B1
:100A70005BF8012469463846CDE9006401F054F87A
:100A800008206946CDE90004284601F04DF807B07A
:100A9000F0BD00004438024000100240001802403F
:100AA0000020024000240240002802400149086062
:100AB00070470000500000200449054A096801EB16
:100AC000410102EB810148607047000050000020A6
:100AD0003C0600200449054A096801EB410102EB8C
:100AE0008101886070470000500000203C06002013
:100AF0000349044A096801EB410142F821007047AB
:100B0000500000203C0600201B4802222DE9F04145
:100B100000F13401174E07230660042581E82C00FC
:100B2000CB6000240A61D7014A6110238A619102D7
:100B300044604026C0E902454A00C0E90741C0E9D7
:100B400009241030002180E8C800103800F05EF859
:100B500009490948343102F0AFF9084D10B10120BC
:100B6000287000E02C7040F2036000F009F828784B
:100B7000BDE8F081400100A0140700205C000020C7
:100B80002DE9F843204C102700254FF6FF78012669
:100B9000009521468146C4E90067C4E90265A1F1D8
:100BA0005000424602F0BCF9012000F051FF022043
:100BB0002146C4E90007C4E90265A1F1500042469C
:100BC00002F0AEF903214246C4E90017082021468D
:100BD000C4E90205A1F1500002F0A2F94FF4087037
:100BE000009004214246C4E90260C4E9001721468E
:100BF000A1F1500002F094F9A4F150004946BDE87B
:100C0000F84302F07CB9000064070020F0B5044608
:100C10004F4887B0016841F00101016000684C490C
:100C200000F0010005900839086840F48000086071
:100C3000086800F480000590086840F0040008602F
:100C4000086800F004000590086840F0080008609B
:100C5000086800F008000590086840F0100008607F
:100C6000086800F010000590086840F02000086057
:100C7000086800F020000590086840F04000086017
:100C8000086800F040000590086840F080000860A7
:100C9000086801210C2200F0800005900220CDE9B7
:100CA000010108230093CDE903022A48694600F0B8
:100CB0003BFF4CF2037000902748694600F034FF78
:100CC0004FF6837000902548694600F02DFF4FF6DF
:100CD0003F0000902248694600F026FF48F233109A
:100CE00000902048694600F01FFF282000901E4811
:100CF000694600F019FF1D494FF4007500224FF0BE
:100D0000800CEE006F004A606801C1E902C5C1E9CC
:100D100004761831164EC300032581E80D00C1E9A1
:100D200003254A618A6141F8186D21630F488C637D
:100D300000F0EBFD0D4800F019FE00220F213820D5
:100D400001F050FB382001F03FFB07B0F0BD000080
:100D50003838024000080240000C024000100240F7
:100D60000014024000180240001C024054060020FB
:100D7000106402402DE9F04F95B0584D4FF0000B34
:100D800006465C46CDF844B0CDF848B0CDF84CB03E
:100D9000A868016968788847002830707ED00024F0
:100DA0000DF1100A0DF1380908AF8BE0A8680DF1BC
:100DB0002C080AEB440208EB440143696878984721
:100DC0002878012807D138F8142029F814203AF897
:100DD000141027F81410810705D538F81410C1F540
:100DE000805129F81410410705D53AF81410C1F5BF
:100DF000805127F81410000707D538F8140027F899
:100E000014003AF8141029F81410DFF8D48039F8D7
:100E1000140058F82410884201D9421A00E00A1A36
:100E20002F491FFA82FC37F81420143151F824306E
:100E30009A4201D9D31A00E09B1A9BB26344052B56
:100E400003D948F8240041F8242095F801C0BCF1EA
:100E5000700F26D058F8242006EB44006B885A43C4
:100E6000120B428051F82410AA885143090B81814A
:100E700013A8214612AB009011AA604603F0CAFDE8
:100E8000301911998175129980F82010139979B150
:100E900001290FD0022910D0032900E01AE010D157
:100EA0000DE006EB4401488037F814008881DFE745
:100EB000012100E00221C17603E00321FBE780F875
:100EC0001BB0641C3078A0423FF670AF304600F093
:100ED00009F8044615B02046BDE8F08F60000020F8
:100EE00074070020F8B504461448002669460096A9
:100EF0003546407803F07EFD0098182816D005DCB2
:100F000068B110280DD0142806D10CE01C280FD091
:100F100040280FD049280FD001252846F8BDA662E9
:100F2000FBE7012000E00220A062F6E70320FBE7D8
:100F30000420F9E70520F7E70620F5E76000002028
:100F400070B50C4C00260C4D60807020A180296883
:100F50008847696870208847512802D003263046A8
:100F600070BDA5607020607008212170E968884715
:100F7000F5E70000600000206C00002070B50D4611
:100F8000064600F0C1F80D4CE0604FF07F40FFF7DF
:100F9000AFFD2289A188208892B289B280B2FFF782
:100FA0008BFB4FF0FF30FFF7A3FD2289A9B2B0B24F
:100FB00092B2FFF781FBC4E9006570BD1004002008
:100FC0000B4901280246D1E9000109D0022A09D0C3
:100FD000032A09D0042A0AD1401E491EFFF7CEBFBA
:100FE000401CFAE7401C00E0401E491CF6E7704731
:100FF0001004002070B5134C00262046A6816680A0
:10100000FFF7B8FE04F5607061880F4D02689142E9
:1010100015DB4268914212DCA28983689A420EDB9A
:1010200041616A69052A05DB02690161881A00F0DD
:101030000DF800E001616869401C686170BD6E6177
:1010400070BD0000A00000200000002070B5054623
:101050004FF07F40FFF74CFD174C05233C222189C0
:10106000208889B280B2FFF789FB4FF0FF30FFF78D
:101070003FFD2068284420600028606828446060A4
:1010800004DC00203C21C4E900010BE0FFF7C4FBB5
:101090006168884206D8FFF7BFFB6060FFF7BCFBC2
:1010A0003C38206020890523228881B2BDE8704049
:1010B00090B23C22FFF762BB20040020FEE7000054
:1010C00070B50C4605464FF07F40FFF711FDC5EBAC
:1010D00005120C4804EB840102EB42020A2300EBE8
:1010E000820000EB810230F821001189382280B2A1
:1010F00089B2FFF743FBBDE870404FF0FF30FFF7C8
:10110000F7BC0000A80200202DE9FC5F0D46044654
:101110000092FFF781FB671D661FB84201D9002EC0
:1011200004DC0098002103F029F80090A81F022891
:1011300004D20098012103F021F80090A91D6E4807
:1011400082688A420FDCC2688A420CDB0168491E51
:10115000B94208DC4068401CB04204DB0098012121
:1011600003F00CF80090FFF767FBDFF890A105F1A2
:101170000508404508D801238C21032060A2FFF711
:101180003BF90221CAF80810DFF880B1A5F1050982
:10119000DBF8C010494503DBDBF8BC204A4505DD20
:1011A000DBF8BC00404550DC41454EDB601D03F0E0
:1011B00051FB0346601F03F04DFB03EB83010190DD
:1011C0000BEB8105D5F8C40001281AD1002019467F
:1011D000C5F8C4000120FFF773FFDAF81810491EA4
:1011E000CAF81810D5F8B400B84203D0D5F8B80042
:1011F000B04201D1002100E00121009802F0BEFFC1
:101200000090019800EB80010BEB8105D5F8C4003C
:1012100001281AD10020C5F8C40001990120FFF768
:101220004FFFDAF81810491ECAF81810D5F8B400A4
:10123000B84203D0D5F8B800B04201D1002100E097
:101240000121009802F09AFF00905D46DBF80C0047
:10125000484502DBAA684A4504DDA968414547DCE8
:10126000404545DB601D03F0F5FA0346601F03F0BF
:10127000F1FA03EB8309804605EB89042069012814
:1012800017D1002019462061FFF71AFFDAF818106D
:10129000491ECAF8181055F82900B84202D06068F3
:1012A000B04201D1002100E00121009802F066FF68
:1012B000009008EB880905EB89042069012817D103
:1012C000002041462061FFF7FBFEDAF81810491EA6
:1012D000CAF8181055F82900B84202D06068B04228
:1012E00001D1002100E00121009802F047FF0090A9
:1012F0000098BDE8FC9F00002004002000000020B2
:1013000047616D65204F766572000000A8020020DD
:10131000F0B5059C44EA034503685C6C04F0404466
:101320002C435C640368DA634268B2F5403F02D044
:101330000068C160F0BD01F47F42856801F47F045C
:10134000224301F07F4301F47F0701F47F46CCB2D2
:10135000BDB1012D16D001F47F02C1F3C401D20C3E
:10136000022D11D0032D14D0320B390D15011A0F97
:1013700045EA0123210943EA02320A4300688263F5
:10138000F0BD1A432243F9E7B30A5B0143EAC222E4
:10139000F3E7F40ADB0F640144EA822242EAC33233
:1013A000EBE7000001681823CAB2103AB2FBF3F26F
:1013B000054B6FF30901032A9B5CC36500D9091D26
:1013C00081650846704700002C4D000810B5836900
:1013D0004FF0C074826A0146002053B1B3F5005F3C
:1013E00015D072B1012A0CD0022A0AD0032A09D1E1
:1013F00004E01AB1012A06D0022A03D1C96AC90140
:1014000000D5012010BDC96AA142FAD010BD002A42
:10141000F7D0012AF2D0022AF3D0032AF3D010BD6C
:1014200070470000074A13681918B1F57A7F02DB8C
:10143000A0F2E730191803488B4202D0036813600A
:10144000FAE77047000000202DE9F74F29480026F1
:10145000DFF89CA0006800EB40000AEB8000806889
:101460008588C788E81D834620F00700401B00F0F0
:10147000FF0939E04FEADB010298012901FB060070
:1014800009D0022909D0017842788378080440EA1B
:101490000220184303E0007801E0008840BA0024ED
:1014A00080461AE02A1B02EB09010120491E8840F0
:1014B00010EA080F009800EB04020E48016890B291
:1014C00001EB410202D05AF8222002E00AEB82012D
:1014D0004A680199FFF7BEF8641CAC42E2D3019858
:1014E000401C80B20190761CBE42C3D3BDE8FE8F83
:1014F0003C06002050000020F0B5D1E90125D1E9DB
:101500000343D1E905762A43D1F800C044EA030435
:10151000D1E9073542EA0402496A42EA0702BCF10E
:10152000010F42EA060208D004681A432A430A431C
:10153000E30BDB031A4302600BE0066844682B43AD
:1015400026F4F84529430B4303606FF30E0422434E
:1015500042600020F0BD426942EA41014161002041
:10156000704738B591E81C00C9686FF01F051A4331
:1015700005EB441444EA41210A4300920261002031
:1015800038BD00002DE9F043914691E81C006FF052
:101590000F05521E2E0105EB03131A430B7E06EBBB
:1015A00004268C8A2F034FEA054C0D8A32434FF0F4
:1015B0007F4808EB0366CB68B9F1010F07EB0545DF
:1015C0000CEB04540CD081683F1107EB03331A4332
:1015D0002A432243324301F070410A43826011E002
:1015E0008168DFF828C0C7681B03A3F58053234335
:1015F0002A4301EA0C0132430B43836007F0704435
:101600002243C2600020BDE8F0830000FF0F0FFFFF
:1016100070B5214CA069B0B304F11C052C340F2126
:101620006868225CF920FEF7B3FE28680F21225C6F
:1016300040F20B10FEF7ACFE3A220F21E720FEF736
:10164000A7FE08350F216868225CC320FEF7A0FEC4
:1016500028680F21225CD520FEF79AFE0F4805234B
:101660003C220189008889B280B2FFF787F80B48D5
:101670001038C068FFF7A4FCFFF7BCFCBDE8704061
:101680000A20FFF7CFBE01238C21032004A2FEF71E
:10169000B3FE0220A06070BD0000002020040020E6
:1016A00057696E0070B590F83820012A23D0244C79
:1016B000012680F83860022300EB011280F83930EF
:1016C000158CD36918320A2B43EA054515D0092B2E
:1016D00013D0137B45EA0363056899B1E969A14317
:1016E0001943E961016813680B6151680A291BD02D
:1016F000092919D01DE0022070BDD36803F07F4393
:101700002B43E9E7696AA1431943696201681368D9
:101710008B6151680A2901D009290AD1D168026870
:1017200021F07F41916204E0D168026821F07F419D
:101730001162002180F8396080F83810084670BDC9
:101740000F0003FF70B5040004D094F839000025A1
:1017500010B106E0012070BD204684F8385000F03A
:101760001FF8022084F83900D4E90003012102683F
:1017700022F440321A4302602068A368426B22F0D0
:1017800007021A4342632068E368026C6FF30D029C
:101790001A430264E56384F83910002070BD00002C
:1017A00008B500680649884208D10648016841F436
:1017B00000010160006800F40000009008BD000016
:1017C00000B00240303802402DE9F84300260446BC
:1017D00004270D4600964FF0030800680068C00714
:1017E00026D000F097FA81461EE04068009010F085
:1017F000210F10D00098800603D5E06B40F0020066
:10180000E0630098C00703D0E06B40F00100E063A4
:101810002168212035E0681C06D000F07BFAA0EB9F
:101820000900A8424DD8A5B3206841688907DCD5D6
:101830002068C169406A01F0200100F020000843DF
:1018400035D000F067FA81462DE04068009010F036
:10185000290F1FD00098000703D5E06B40F004006B
:10186000E0630098800603D5E06B40F00200E0637F
:101870000098C00703D0E06B40F00100E0632168EE
:101880002920886084F83970012084F83860BDE828
:10189000F88316E0681C06D000F03CFAA0EB0900C3
:1018A000A8420ED86DB120684168C906CDD522681E
:1018B00012210120916084F83900002084F83860FA
:1018C000E5E7E16B84F8386041F02001E16384F8DA
:1018D00039800320DBE7F8B50446069894F83850C1
:1018E000012D10D0012684F83860022584F8395083
:1018F00000902046FFF70CFD2068016841F00101CF
:1019000001600020F8BD0220F8BD70B504002BD0A6
:1019100094F83500022826D020680025212201688D
:1019200021F00101016020680560206845602068A1
:1019300085602068C5602068056120684261204696
:10194000FFF730FD94F85C203F2191408160E56312
:1019500025646564A564E5642565656584F835508E
:10196000002084F8345070BD012070BD2DE9F0478F
:10197000044600F0CFF9054664B14FF0000984F841
:101980003490022184F835102068016821F00101AB
:1019900001600EE00120BDE8F08700BF00F0BAF959
:1019A000401B052805D920216165032084F83500F6
:1019B000F1E720680068C007F0D1D4E90020D4E93D
:1019C0000251D4E9043C284304F1180519430843A3
:1019D000116895E8E00140EA0C001C4B28431940CF
:1019E00040EA060040EA0700B8F1040F40EA0100AF
:1019F00003D1D4E90B131943084310602068012672
:101A0000656A4069042D20F0070045EA00050CD105
:101A1000D4E90A01054341B12046FFF7D7FC20B1C4
:101A20004020606584F83560B4E720684561204651
:101A3000FFF7B8FC94F85C303F229A408260C4F80B
:101A4000549084F835600020A5E700003F8010F036
:101A500070B5044600F05EF90546601C02D00448EB
:101A60000078044400F056F9401BA042FAD370BD40
:101A700040000020F0B587B014216846FEF71FFC37
:101A80002148016800293CD1012101601F480168FB
:101A900041F001010160006802240025694600F060
:101AA0000100059003264FF683700C278DE8F100A6
:101AB000174800F039F848F2331069468DE8F10014
:101AC000144800F031F84CF2037069468DE8F100DB
:101AD000114800F029F84FF63F0069468DE8F10003
:101AE0000E4800F021F8282069468DE8F1000C48E6
:101AF00000F01AF8082069468DE8F100094800F066
:101B000013F807B0F0BD000038000020383802405C
:101B10000010024000180240000C02400014024075
:101B2000001C0240000802402DE9F84FDFF89CE15C
:101B300000224FF001084FF0030B4FF00F0A00BFD7
:101B40000B6808FA02F42340A34271D14D68022DBC
:101B500001D0122D0FD1D5080E69570700EB85056E
:101B6000A9462D6AFF0E0AFA07FCBE4025EA0C05BD
:101B70002E43C9F820600F79550006680BFA05FC62
:101B800007F0030726EA0C06AF40374307604E68AC
:101B9000012E05D0022E03D0112E01D0122E0ED10F
:101BA0008668CF6826EA0C06AF40374387604668F0
:101BB0000F79A643C7F30017974037434760C468BF
:101BC0008E6824EA0C04AE402643C6604C68E400EC
:101BD00075D53F4C256845F480452560246822F082
:101BE0000306950704F4804400943A4C2D0F2644D4
:101BF000D6F80848DFF8E0C00AFA05F7604524EA9D
:101C0000070401D100272EE0344FB84201D101274B
:101C100029E0334FB84201D1022724E0314FB842C6
:101C200001D103271FE0304FB84202D104271AE048
:101C300045E02E4FB84201D1052714E02C4FB842A1
:101C400001D106270FE02B4FB84201D107270AE048
:101C5000294FB84201D1082705E0284FB84201D1E9
:101C6000092700E00A27AF4027437546C6F80878E1
:101C70004E68DEF80040F60324EA030400D51C4356
:101C8000124E2C60361D4D683468AD0324EA0304FF
:101C900000D51C430D4F346008374D683C68ED0299
:101CA00024EA030400D51C43084D3C600C354E6803
:101CB0002C68B60224EA030400D51C432C60521C95
:101CC000102AFFF43DAFBDE8F88F0000003C014052
:101CD000443802400030014000000240000402404D
:101CE00000080240000C02400010024000140240B4
:101CF00000180240001C0240002002400024024064
:101D00000069084000D0012070470AB18161704726
:101D10000904FBE70148806870470000400000208C
:101D200010B5040014D0242084F841002068016814
:101D300021F001010160204600F0CAF90020606432
:101D400084F84100206384F8420084F8400010BD0C
:101D5000012010BD90F841007047000070B50400EC
:101D600004D094F84100002510B106E0012070BDB8
:101D7000204684F8405000F0ACF9242084F841005B
:101D80002068016821F001010160D4E9001020F011
:101D9000706008612068816821F400418160E0681A
:101DA00021680128A06806D040F404408860E068FB
:101DB000022803D006E040F40040F7E721684FF422
:101DC0000060486020212068114A43681343436043
:101DD0002068C26822F40042C26054F8106B0DCC37
:101DE000104340EA0320F06054F81C3CD4E90002A0
:101DF0001043186054F81C0D026842F001020260A2
:101E0000656484F84110256384F84250002070BD59
:101E1000008000022DE9FF4F83B0044690F8410096
:101E20009A469346DDE91087DDF84890202874D162
:101E30005FEA080014D09FB194F8400001286CD0EC
:101E4000012084F84000FFF765FF012206461923B0
:101E50000090D103204601F035FB002871D103E04A
:101E60004FF4007060646CE00025C4F824802221E7
:101E700084F84110402084F8420065646785534629
:101E800065635A4604992046CDE9009601F0A0FA10
:101E900010B184F8405054E0618DFF2734484FF072
:101EA0008078FF294FF0007A04D927853A464346C7
:101EB000009005E0618D53462185009094F828201C
:101EC0002046049901F0E8FA00224B4604212046FE
:101ED000009601F0F7FAA0BB2068616A406A0870BA
:101EE000606A401C6062208D401E81B22185608D39
:101EF000401E6085608DD8B1D1B900224B4680214B
:101F00002046009601F0DEFAD8B9608DFF2805D989
:101F100027853A464346009506E026E0608D534605
:101F20002085009594F828202046049901F0B4FA01
:101F3000608D0028C8D132464946204601F0EFFAAC
:101F400018B1012007B0BDE8F08F21682020094AB0
:101F5000C86121684B6813404B6084F8410084F8E5
:101F60004250002084F84050ECE70220EAE70000ED
:101F70000024008000E800FE2DE9FF4F83B00446F6
:101F800090F841009A469346DDE91087DDF84890C5
:101F9000202871D15FEA080014D09FB194F8400066
:101FA000012869D0012084F84000FFF7B3FE012228
:101FB000064619230090D103204601F083FA002839
:101FC0006ED103E04FF40070606469E00025C4F84E
:101FD0002480212184F84110402084F84200656467
:101FE0006785534665635A4604992046CDE90096B5
:101FF00001F020FA10B184F8405051E0608DFF27C5
:102000004FF08078FF284FF0007A04D927853A46B0
:102010004346009505E0608D53462085009594F871
:1020200028202046049901F037FA324649462046D6
:1020300001F09CFAA0BB606A216800788862606A3F
:10204000401C6062608D401E6085208D401E80B205
:102050002085618DD9B1D0B900224B468021204620
:10206000009601F02FFAD8B9608DFF2805D9278591
:102070003A464346009506E026E0608D53462085AB
:10208000009594F828202046049901F005FA608D07
:102090000028CAD132464946204601F040FA18B11C
:1020A000012007B0BDE8F08F20682021074AC161F8
:1020B000206843681340436084F8411084F842501C
:1020C000002084F84050ECE70220EAE700E800FE38
:1020D00070477047024881680278114481607047F8
:1020E00040000020032010B500F09CF9002000F013
:1020F00005F800F051F9002010BD000070B50D4D3D
:1021000004464FF47A700C4A29781268B0FBF1F05B
:10211000B2FBF0F000F01CFF48B9102C07D20022EF
:102120002146501E00F05EF900206C6070BD012059
:1021300070BD0000400000204C0000202DE9F0415F
:10214000044690F8A00016460F4601281DD0012530
:1021500084F8A050022084F8A10006EB860000EB72
:10216000C600342204EB80003830FEF78FF8324688
:102170003946204601F0E0FB216800204D6284F8DA
:10218000A15084F8A000BDE8F0810220FBE790F8A0
:10219000A10070472DE9F041040004D094F8A1009B
:1021A000002518B107E00120BDE8F081204684F841
:1021B000A05000F06BF83448022184F8A1100122ED
:1021C00002CC8B6923F070438B6194E84A00194379
:1021D000E3681E4354F8043D31439E6931439961DD
:1021E00021688B6803408B602168A68AA7698B6889
:1021F0003B4343EA06438B602168CB680340CB60D6
:102200002168A38B276ACE683E4346EA0346CE6028
:1022100021680B6903400B612368A68CA76A1969C2
:10222000394341EA0641196121684B6903404B611A
:102230002068A38D266B4169314341EA0341416126
:10224000236894F8351094F83600DE6A000406F02E
:102250007F46DE62236840EA012094F83460D96A40
:1022600031430143D9622068416B41F0060141636B
:102270002068816941F001018161C4F8A45084F8AB
:10228000A120002090E7000000F800F070B586B0B3
:10229000044614216846FEF712F83849206888423F
:1022A0006AD13748016841F080610160006800F040
:1022B0008060059032481438016841F010010160D7
:1022C000016801F010010591016841F4007101609D
:1022D000016801F400710591016841F480610160B9
:1022E000016801F480610591016841F040010160DD
:1022F000016801F040010591016841F480710160BD
:10230000006800240E26694600F4807005901020B5
:10231000009002251B48CDE90154CDE90346FFF7A3
:1023200003FC4EF6FF700090CDE901541648694653
:10233000CDE90346FFF7F8FBF7200090CDE9015403
:1023400012486946CDE90346FFF7EEFB0921E80292
:102350000090CDE90154CDE903410D486946FFF7EE
:10236000E3FB4FF446400090CDE90154094869462B
:10237000CDE90346FFF7D8FB06B070BD0068014009
:10238000443802400010024000240240002802406D
:1023900000180240002002400A4808B5016841F0D8
:1023A00080510160006800F0805000900548001DD9
:1023B000016841F480410160006800F480400090B1
:1023C00008BD000040380240002809DB410900F048
:1023D0001F028900012001F1E0219040C1F80001B5
:1023E000704700000E4BF0B41B680D46C3F3022388
:1023F000C3F10706042E00D90426191D072901D2AE
:10240000002300E0DB1E012404FA06F19C40491E73
:102410002940641E994014402143F0BC02F06CBA7C
:102420000CED00E0064900F0070210B54FF6FF047E
:102430000868044B204040EA02201843086010BDA1
:102440000CED00E00000FA051848F8B5016841F00D
:10245000805101600068164C00F0805000902068A8
:1024600040F480302060FFF755FC4FF47A76054643
:1024700005E000BFFFF74EFC401BB0420FD860687C
:10248000C003F7D5206840F400302060FFF742FC1D
:10249000054606E0FFF73EFC401BB04201D9032091
:1024A000F8BD60688003F5D50020F8BD40380240D3
:1024B000007000402DE9F84F04460078DFF82494BE
:1024C0004FF000063746C0070ED0D9F8001021F4AF
:1024D0000001C9F80010D9F80010626B1143C9F867
:1024E0000010606B00B90126FE4D206884350003A2
:1024F0000ED5E16B286820F4401008432860E06B9B
:10250000B0F5801F01D010B102E0012600E00127E4
:1025100020684FF4800BC0020CD5216C286820F491
:10252000400008432860206C584501D1012601E095
:1025300000B901272068C10100D50126800666D5B3
:10254000E8483830016841F0805101600068DFF8E8
:1025500098A300F080500090DAF8001041F48071E8
:10256000CAF80010FFF7D6FB804605E0FFF7D2FB64
:10257000A0EB080064287DD8DAF80000C005F5D586
:10258000DFF8608308F16808D8F8000010F44070A4
:102590002AD0218E01F44071814225D0D8F8001054
:1025A000D8F8002021F4407142F48032C8F80020AD
:1025B000D8F8002022F48032C8F80020C8F80010B3
:1025C000D8F80000C0070FD0FFF7A4FB824607E051
:1025D000FFF7A0FBA0EB0A0141F288308142CAD884
:1025E000D8F800008007F3D5206BC0F30121032940
:1025F0007ED0D9F8001021F4F811C9F80010228E0D
:10260000D8F80010C2F30B021143C8F8001020786C
:10261000C00607D5286820F0807028602868A16B64
:10262000084328602188AF488830490405D5626E88
:10263000016821F44031114301602188090405D566
:10264000A26E016821F44021114301602168C90391
:1026500005D5E26E016821F4401111430160216843
:10266000890305D5226F016821F4400111430160FF
:10267000217800E018E1490605D5626C016821F077
:102680000301114301602178090605D5A26C016898
:1026900021F00C01114301602188C90505D5E26CC8
:1026A000016821F03001114301602188890505D5B9
:1026B000226D016821F0C0011143016021884905A4
:1026C00005D5626D016821F44071114301602188D4
:1026D000090505D5A26D016821F44061114301602F
:1026E0002188C90407D5E26D016821F4405100E05A
:1026F00041E0114301602188890405D5226E0168FB
:1027000021F44041114301602168490205D5A26FBF
:10271000016821F080611143016021684FF0006A77
:10272000890209D5E26F016821F00061114301605F
:10273000E16F514500D1012721680A0700D5012723
:10274000490305D5626F016821F0407111430160B2
:102750002168090206D5D4F88020016821F0805153
:1027600011430160DFF88491012E0ED02068B0F192
:10277000007F0AD08FE05E4AD9F80030104023F481
:10278000F8120243C9F8002039E7D9F800004E4694
:1027900020F08060C9F80000FFF7BCFA804605E031
:1027A000FFF7B8FAA0EB080064287DD83068000174
:1027B000F6D421784B487C30C90712D0616B81B9BF
:1027C000237A62680168D0F800C09201C1F3014128
:1027D00042EA0142CCF3036142EA016141EA03713A
:1027E000016021680A0303D5E26BB2F5801F04D0B3
:1027F000C9021AD5216C594517D16368016894F84C
:102800000CC002689B01C1F3014143EA0141C2F3DC
:10281000027241EA0C6141EA027101602968626A50
:1028200021F01F01521E114329602168C90110D5F2
:10283000238A62680168D0F800C09201C1F3036185
:1028400042EA034242EA0162CCF3027142EA0171B8
:102850000160216889010CD56168228A237B94F884
:1028600008C0890141EA024141EA036141EA0C7171
:1028700001603168B04641F080613160FFF74AFA8B
:10288000064604E0FFF746FA801B64280CD8D8F807
:1028900000000001F6D56FB3D9F800004E4620F0D5
:1028A0008050C9F8000000E079E0FFF733FA0746EE
:1028B00005E000BFFFF72EFAC01B64286FD8306810
:1028C000C0438000F6D50748216880300A0301D54F
:1028D000E26B1AB1C90225D5216C19BB6369016885
:1028E000277E08E0083802400070004000380240AF
:1028F000FFFCFF0F5AE00268C1F301419B0143EA6C
:102900000143C2F3027143EA076242EA01710160C6
:1029100029686FF0FF03A26A21F4F85103EB022249
:10292000114329602168890212D5E16F51450FD109
:10293000238C6269016807689201C1F3036142EA6E
:10294000034242EA0162C7F3027142EA0171016087
:102950002178090716D561690268D0F800C08B019B
:10296000277FC2F30362CCF3014143EA014141EA0C
:10297000026141EA077101602868E16A20F4403091
:1029800008432860306840F080503060FFF7C2F99B
:10299000044607E0FFF7BEF9001B642802D90320B4
:1029A000BDE8F88F3068C0438000F3D40020F7E71B
:1029B0002DE9F04705000F4663D0444E306800F023
:1029C0000F00B84209D2306820F00F003843306061
:1029D000306800F00F00B84253D128683C4C8107A2
:1029E00012D5400703D5206840F4E05020602878D5
:1029F000000703D5206840F460402060A968206883
:102A000020F0F000084320602878C0072AD0304921
:102A100068680839012810D00968022810D0890791
:102A200000292EDA216821F0030101432160FFF71C
:102A300071F9804641F288390DE009688903EFE7B2
:102A40008901EDE7FFF766F9A0EB0801494502D9D6
:102A50000320BDE8F0876868216801F00C01B1EB44
:102A6000800FEFD1306800F00F00B8420BD930680A
:102A700020F00F0038433060306800F00F00B8429B
:102A800001D00120E5E72878400705D5E9682068EE
:102A900020F4E050084320602878000706D5286914
:102AA000216821F4604141EAC000206000F036F85E
:102AB0002168084AC1F30311515CC8400649086007
:102AC0000020FFF71BFB0020C3E70000003C024092
:102AD00008380240344D00084C00002004490548E5
:102AE00009680068044AC1F38221515CC8407047FC
:102AF000083802404C000020444D000804490548B5
:102B000009680068044AC1F34231515CC84070470B
:102B1000083802404C000020444D0008154910B50B
:102B20001548096811F00C0213D01449042A0FD07B
:102B3000082A0ED10F4C241F2268236802F03F029E
:102B40005B0207D52068C0F38810A0FB010106E0F6
:102B5000084610BD2168C1F38811A1FB00010023C4
:102B6000FDF750FB2168C1F30141491C4900B0FB4E
:102B7000F1F010BD083802400024F40040787D01D7
:102B80002DE9F84F05004FF000076ED02878DFF8E8
:102B90001C93A9F1040AC007AAF104044CD0D9F887
:102BA00000104846C1F38101012908D00068C0F334
:102BB000810002280AD1DAF80000400206D5206818
:102BC000800339D568680028DFD035E06868B0F543
:102BD000803F0BD010B1B0F5A02F11D0206820F4A9
:102BE00080302060206820F4802002E0206840F4DB
:102BF00080302060686890B1FFF78CF806460AE0E4
:102C0000206840F480202060F0E700BFFFF782F8E2
:102C1000801B642872D820688003F7D50CE0FFF78A
:102C200079F8064605E000BFFFF774F8801B6428BA
:102C3000F0D820688003F7D42878800742D5D9F8E7
:102C40000010484611F00C0F08D00068C0F3810056
:102C500002280BD1DAF80000400207D42068800770
:102C600018D5E868012800D114E01CE1E8680028C4
:102C7000206817D040F001002060FFF74BF80646AF
:102C800005E000BFFFF746F8801B0228C2D8206885
:102C90008007F7D52869216821F0F80141EAC000D2
:102CA00020600FE020F001002060FFF733F80646B7
:102CB00005E000BFFFF72EF8801B02281ED8206811
:102CC0008007F7D42878000729D5784869696C30DF
:102CD00000298046016812D041F001010160FFF730
:102CE00019F8064605E000BFFFF714F8801B02281C
:102CF00004D8D8F800008007F6D510E089E021F06C
:102D000001010160FFF706F8064604E0FFF702F84C
:102D1000801B02287DD8D8F800008007F6D42878D8
:102D200040076BD5DFF8848108F13808D8F8000037
:102D3000C0000BD4D8F8001041F08051C8F8001042
:102D4000D8F80000012700F0805000905848016832
:102D5000C90512D40168834641F480710160FEF711
:102D6000D9FF064605E000BFFEF7D4FF801B6428AC
:102D70004FD8DBF80000C005F6D54C4EA868683681
:102D800001280AD008B1052811D0306820F00100D0
:102D90003060306820F0040002E0306840F001004C
:102DA0003060A868A0B1FEF7B5FF83460CE030683C
:102DB00040F004003060F0E7FEF7ACFFA0EB0B0141
:102DC00041F28830814266D830688007F4D50EE041
:102DD000FEF7A0FF834607E0FEF79CFFA0EB0B0188
:102DE00041F28830814256D830688007F4D42FB140
:102DF000D8F8001021F08051C8F80010A869C8B3B5
:102E0000D9F80010C1F3810102294CD002282068B2
:102E100000E040E020F08070206003D0FEF77AFFF1
:102E200005463BE0FEF776FF064604E0FEF772FF3C
:102E3000801B02282FD820688001F7D4D5E90962C9
:102E4000D5E907011B4B570895F82C20084303EBE5
:102E5000074343EA8611084340EA026040F000500D
:102E6000CAF80000206840F080702060FEF752FF32
:102E7000054606E015E000BFFEF74CFF401B0228A8
:102E800009D820688001F7D50BE000BFFEF742FFAC
:102E9000401B022802D90320BDE8F88F206880017A
:102EA000F4D40020F8E70120F6E7000008380240DB
:102EB000007000400000FFFF70B504000D4603D015
:102EC00094F82C0010B107E0012070BD002084F8B8
:102ED0002D00204600F011F8022084F82C00206814
:102EE000211DFEF709FBD4E900022946FEF74AFB43
:102EF000012084F82C00002070BDFEF7BBBD10B58A
:102F0000044690F82C00022809D0022084F82C00F6
:102F10002068FEF720FB012084F82C00002010BD63
:102F200070B5044690F82C000D4602280DD0022002
:102F300084F82C002068FEF714FB2868022805D0CE
:102F40005FF0010084F82C00002070BD0520F9E737
:102F5000401EB0F1807F10B501D3012010BD4FF0AD
:102F6000E02460610F21601701F0C6FC0020A06121
:102F70000721216110BD70477047704770B590F808
:102F80003C20012A24D0134C012580F83C50022219
:102F900080F83D2002685368A242966802D00E4C29
:102FA000A24203D14C6823F4700323430C6823F03E
:102FB000700389681C435460002326F08006026871
:102FC0003143916080F83D5080F83C30184670BD28
:102FD000022070BD000001400004014010B5040053
:102FE00003D094F83D0010B107E0012010BD00208F
:102FF00084F83C00204600F00DF8022084F83D00E3
:103000002068211D01F0B6F9012084F83D00002060
:1030100010BD000008B500680B49884212D10B486A
:10302000016841F01001016000680022114600F0C3
:10303000100000903620FFF7D5F9BDE80840362093
:10304000FFF7C2B908BD0000001000404038024040
:103050000168094ACB6843F00103CB6001688868C6
:103060001040062806D0B0F5803F03D0086840F035
:10307000010008600020704707000100704770B52C
:103080000446006800250169C943890715D4C16851
:10309000C943890711D4EA1E026101212177206802
:1030A00080698007204602D0FFF7E8FF04E000F0C7
:1030B000A7F8204600F0A5F8257720680169C943E4
:1030C000490717D4C168C943490713D402216FF0D7
:1030D0000402026121772068806910F4407F204655
:1030E00002D0FFF7CBFF04E000F08AF8204600F0A2
:1030F00088F8257720680169C943090716D4C16893
:10310000C943090712D404216FF008020261217734
:103110002068C0698007204602D0FFF7AFFF04E0B7
:1031200000F06EF8204600F06CF825772068016901
:10313000C943C90617D4C168C943C90613D40821B5
:103140006FF01002026121772068C06910F4407F9F
:10315000204602D0FFF792FF04E000F051F820462D
:1031600000F04FF8257720680169C943C90708D1E5
:10317000C168C943C90704D1891E0161204600F016
:1031800041F820680169C943090609D4C168C943E7
:10319000090605D46FF0800101612046FFF7ECFEBF
:1031A00020680169C943C90509D4C168C943090632
:1031B00005D46FF4807101612046FFF7DCFE2068C2
:1031C0000169C943490609D4C168C943490605D400
:1031D0006FF040010161204600F028F82068016985
:1031E000C94389060BD4C168C943890607D46FF067
:1031F000200101612046BDE87040FFF7BEBE70BDF2
:10320000704770470848416800290CD00168B1F543
:103210007A7F06DB00210160C068002803D001F03E
:103220006DBD491C0160704700000020704710B55B
:10323000040002D0606F10B107E0012010BD002033
:1032400084F87000204600F025F82420606720688C
:10325000016821F001010160204601F09FF9012879
:10326000ECD0606A10B1204601F016F92068416880
:1032700021F4904141602068816821F02A01816039
:103280002068016841F0010101602046BDE810405E
:1032900001F066B970B586B0044614216846FDF7A2
:1032A0000EF81C492068884231D11B48016841F062
:1032B00010010160006800F01000059016481438F5
:1032C000016841F002010160016801F0020105910D
:1032D000016841F001010160006800240726694689
:1032E00000F0010005908020009002250B48CDE9F8
:1032F0000154CDE90346FEF717FC28020090CDE902
:10330000015407486946CDE90346FEF70DFC06B0B7
:1033100070BD00000010014044380240000402402B
:1033200000000240FEE701688A69D243920701D497
:1033300000228A6200688169C943C90703D0816994
:1033400041F00101816170472DE9F04104460068B8
:1033500090460E468069C043C00635D4002520271C
:1033600020688069C043800616D5701CF8D0FEF72F
:10337000D1FCA0EB0800B04201D8002EF0D1606C67
:1033800084F8405040F02000606484F8417084F874
:1033900042500120BDE8F08121681020C8612068FA
:1033A000C7612046FFF7BFFF2068084942680A400E
:1033B0004260606C40F00400606484F8417084F8FE
:1033C000425084F84050E4E70020E3E700E800FEC4
:1033D0002DE9F843174604461548DAB2DDE90898A6
:1033E0001E4600900023204600F056F8424649460B
:1033F000204600F0BBF8B8B9012EFDB208D0206815
:10340000390A816242464946204600F0AFF858B971
:1034100020688562002240214B462046CDF800807E
:1034200000F050F8002800D00120BDE8F88300002B
:10343000002000802DE9F8430446164817461E4632
:10344000DAB20090C3022046DDE9089800F024F8C3
:1034500042464946204600F089F8B8B9012EFDB22F
:1034600008D02068390A816242464946204600F069
:103470007DF858B920688562002280214B4620469D
:10348000CDF8008000F01EF8002800D00120BDE833
:10349000F88300000020008070B50068C1F30901C6
:1034A000074E41EA0241049C4FF48065426819438B
:1034B00005EA54553543AA4321430A43426070BD8F
:1034C000FF63FF032DE9F0411D4617460E460446F3
:1034D000DDF8188008E0681C06D0FEF71BFCA0EBA6
:1034E0000800A8420BD855B12068806936EA000070
:1034F00013D00020B842EED00020BDE8F081626C0D
:10350000002084F84000202142F02002626484F808
:10351000411084F842000120EFE70120EAE770B58E
:1035200016460D4604460DE0324629462046FFF772
:103530000BFF08B1012070BDFEF7ECFB801BA84219
:1035400007D835B120688069C0438006ECD40020DC
:1035500070BD626C002084F84000202142F02002FF
:10356000626484F8411084F84200E3E770B51646BF
:103570000D4604460FE0324629462046FFF7E4FE9A
:1035800008B1012070BD681C05D0FEF7C3FB801B8D
:10359000A84207D835B120688069C0438007EAD4C3
:1035A000002070BD626C002084F84000202142F0B1
:1035B0002002626484F8411084F84200E1E710B50B
:1035C0000446FEF7ADFB2046BDE81040AFF3008097
:1035D00010B50446FEF7BEFB002818D10C48844203
:1035E00001D10C4800E00C4801210C4A2060002069
:1035F0006260C4E9020120616061E06120622046EE
:1036000000F00EF82046BDE81040FEF7A7BB10BD45
:1036100038040020005C00400054004032279140F4
:10362000F0B542490022424B87B0424D4FF48076BC
:10363000414C9842D1F800C04FF012004FF0020305
:103640004FF0040737D14CF0800CC1F800C0096876
:103650000DF1080C01F0800105918021CDE90010E9
:103660008CE88C00354F69463846FEF75DFA6946AE
:1036700038460096FEF758FA286840F400002860A3
:10368000286800F400000590206840F400002060E5
:10369000206820F40000206000220F214820FEF75F
:1036A000A1FE4820FEF790FE00220F214920FEF7E0
:1036B00099FE492035E04CF0020CC1F800C00968C1
:1036C000CDE9022301F00201CDE90471CDE90060EA
:1036D0001B4E69463046FEF727FA70156946009082
:1036E0003046FEF721FA286840F400102860286868
:1036F00000F400100590206840F40010206020685D
:1037000020F40010206000220F211F20FEF76AFE27
:103710001F20FEF759FE00220F212020FEF762FE37
:103720002020FEF751FE07B0F0BD00003038024007
:10373000380400204038024020380240001C02407B
:1037400000040240FEB50D4606464FF47A74DDE9EA
:1037500008018DE8130029463046FEF75BFB0400A4
:1037600003D029463046FFF72AFF2046FEBDFEB5AE
:103770000D4606464FF47A74DDE908018DE8130022
:1037800029463046FEF7F8FB040003D029463046B0
:10379000FFF715FF2046FEBD2DE9F05FDFF86CA0B6
:1037A0005FF000064FF0280B4FF00109C6EB061240
:1037B000C6EBC60102EB42020BEB4104002504F10B
:1037C0000A080AEB820700BF05EB8502C5EB05106E
:1037D00007EB82018000091D47F8220000F1380242
:1037E00081E81403A1B280B20A233822FCF7C6FF95
:1037F0006D1C082DE8DB761C022ED7DB0021CAF8F1
:10380000B010CAF86411BDE8F09F0000A8020020C3
:1038100070B5274C0020102104F10805206060607D
:1038200028606860A4F11C0081614FF07F40FCF7C4
:1038300083FD686804F110060F21325CC320FCF799
:10384000A7FD28680F21325CD520FCF7A1FD3A22A4
:103850000F21E720FCF79CFD60680F21325CF92006
:10386000FCF796FD20680F21325C40F20B10FCF74C
:103870008FFDFFF791FF0F480522EB248C21046098
:10388000C0E901122046FCF717FF0A48F02140F278
:1038900009121030CD250523C0E9024104612146FB
:1038A000C0E900522846BDE870403C22FCF766BFE4
:1038B0001C000020100400202DE9F84307461B4897
:1038C0000E461546DDE908184FF440321C464260AA
:1038D000174A126802EB820303EBC202A0F1A803AD
:1038E00003EB8202926C022A00D000228260114A0D
:1038F0000260C1600D48FDF725FF002814D10B4878
:103900003946FDF7CFFE00280ED108482B46324637
:1039100041460094FDF7DFFF002805D1BDE8F843DC
:1039200002480A21FDF750BFBDE8F883FC050020DE
:103930005000002000B002402DE9FE4F8146006893
:10394000882493468D888C2204EBCB178A46C36863
:103950009421BE46C459C3F30B432B4404F4704472
:103960001F04019702EBCB1240F80E4001EBCB1382
:10397000DAF800709C214FF0AC0C01EBCB1440F254
:10398000077102910CEBCB11D9F800C098250020EB
:10399000CDF800C0A02605EBCB15DCF80CC006EB7B
:1039A000CB16CCF30B4C0CF1010C07EB0C08DDF83B
:1039B00000C0019F48EA07084CF80E80D9F8007053
:1039C000BAF80CC0B846FF68C7F30A0767444FEA65
:1039D000074E58F8027007F4704C48F802C0D9F846
:1039E00000C0DAF80870DCF80C80C8F30A0808F1A7
:1039F0000108B84448EA0E084CF80280D9F80020C3
:103A0000D75827F00707D750D9F80070DAF81020F8
:103A1000FA509AF831209AF818304FEA022C9AF8A6
:103A20003220120442EA0362D9F800301F591851BB
:103A30009AF8303043EA0C031343D9F800201351AD
:103A4000D9F80020535923F0FF035351D9F800202F
:103A5000DAF814305351D9F800209359029CA3434B
:103A60009351D9F80030DAE9072422439A51D9F862
:103A7000002053585050D9F80020DAF82400505054
:103A8000DAF81000C8B301283AD004283AD0022846
:103A900038D0032836D0072834D00120D9F8003098
:103AA000B02505EBCB11B42284245D5802EBCB1278
:103AB00005F0E0255D50DAE9003504EBCB14EB1A94
:103AC000BAF8285043434543D9F80000DB1C43EAC9
:103AD00005434350D9F8000081586FF30A01815023
:103AE000D9F80000DAF82C108150D9F800000159FB
:103AF00041F001010151BDE8FE8FFFE70420CDE751
:103B00000320CBE70220C9E770B588B01C216846C6
:103B1000FCF7D5FB0F48002204250D4E80234024DE
:103B2000C0E90062C0E90225C0E906320262102144
:103B300042628262C0E904140091019102910391F2
:103B40000491059106916946FFF7B6F908B070BD7A
:103B5000400100A0740200202DE9F04F87B014212D
:103B60006846FCF7ACFBFE48016841F010010160BB
:103B7000016801F010010591016841F04001016008
:103B8000016801F040010591016841F00201016006
:103B9000016801F002010591016841F0080101602E
:103BA000016801F008010591016841F0040101601C
:103BB000016801F004010591016841F00101016013
:103BC000016801F001010591016841F40071016093
:103BD000016801F400710591016841F48071016090
:103BE000016801F480710591016841F48061016010
:103BF000016801F480610591016841F020010160D4
:103C0000016801F020010591016841F08001016027
:103C100000680122202100F080000590D148FEF7C5
:103C200074F8D148002241F20E01FEF76EF8CF4839
:103C300000220821FEF769F8CD4800224FF4005118
:103C4000FEF763F8CB480022C821FEF75EF8002497
:103C50004FF0080AC84869460294CDE900A4FDF770
:103C600063FF09204FF004090326CDF800900225D8
:103C70006946CDE90360C048CDE90154FDF754FF22
:103C80004FF4D0400294CDE900050B206946CDE900
:103C90000360B848FDF748FF0127694630020090ED
:103CA0001220CDE90107B548CDE90349FDF73CFFF6
:103CB00002AA43F62340CDE900054FF00A08AF48B9
:103CC00082E850016946FDF72FFF10200090CDE9F2
:103CD0000154AA486946CDE90345FDF725FF802038
:103CE0000090CDE901549F486946CDE9034AFDF7AC
:103CF0001BFF4FF4F8500294CDE900050C206946F3
:103D0000CDE903609E48FDF70FFFA8030090CDE9C1
:103D100001549C486946CDE90347FDF705FF602043
:103D20004FF00D0B00906946CDE901549248CDE962
:103D3000034BFDF7F9FE4020694602AACDE90005D4
:103D40008E4882E85001FDF7EFFEE8026946CDE9B2
:103D500000048D480294FDF7E7FE402000908B4858
:103D60006946CDE901047F48FDF7DEFE4FF4E050DF
:103D7000694602AACDE90005824882E85001FDF7B4
:103D8000D3FEF0200090CDE9015477486946CDE993
:103D90000348FDF7C9FE68020090CDE9015475485B
:103DA0006946CDE90348FDF7BFFE20200090CDE92C
:103DB00001746C4869460394FDF7B6FECDF800A087
:103DC0006946CDE901546748CDE9034BFDF7ACFEE8
:103DD00041F20E000090CDE90174634869460394F6
:103DE000FDF7A2FE28036946CDE900046448029469
:103DF000FDF79AFECDF800A06946CDE901745B4855
:103E00000394FDF791FE28020090CDE90154594832
:103E10006946CDE9034BFDF787FE10206946CDE9E1
:103E2000000450480294FDF77FFE0C20CDF800906E
:103E30006946CDE903604B48CDE90154FDF774FEB6
:103E400048F204006946CDE9000449480294FDF7B0
:103E50006BFE28030090CDE9017445486946039440
:103E6000FDF762FE4FF4BC400090CDE9015440489C
:103E70006946CDE9034BFDF757FE00976946CDE94A
:103E800001543948CDE90345FDF74EFEA8026946C5
:103E9000CDE9000434480294FDF746FEE8010090A5
:103EA000CDE9015437486946CDE90347FDF73CFEAB
:103EB0002803009035486946CDE901042A48FDF7FA
:103EC00033FEC020694602AACDE900052C4882E8ED
:103ED0005004FDF729FE1020694602AACDE900052D
:103EE000234882E85001FDF71FFEC8200090CDE96D
:103EF0000174204869460394FDF716FE4FF4F860FC
:103F00006946CDE9000622480294FDF70DFE052022
:103F1000694602AACDE90005194882E85001FDF77B
:103F200003FE32200294CDE900050B206946CDE95D
:103F300003601348FDF7F8FD0920CDF800906946AD
:103F4000CDE903600D48CDE90154FDF7EDFD4FF4D7
:103F500060506946CDE90005092002941AE000008E
:103F600030380240000C024000200240002802408D
:103F7000001C0240001802400010024000040240F1
:103F8000000802400000024000240240000012101D
:103F900000140240CDE903602948FDF7C5FD29481A
:103FA0006946CDE900940294FDF7BEFD8620029497
:103FB000CDE900050B206946CDE903602248FDF7F5
:103FC000B3FD009769462048CDE90164FDF7ACFDDB
:103FD00050200090CDE901541B486946CDE9034BC0
:103FE000FDF7A2FDF101009112211848CDE901175A
:103FF000CDE903696946FDF797FD2821124802AA19
:10400000CDE90015694682E85001FDF78DFD0920D4
:1040100040210091CDE90154CDE903400B486946A8
:10402000FDF782FD0521B0030090CDE90154CDE9F3
:10403000034107486946FDF777FD07B0BDE8F08FFB
:10404000000C02400018024000000240001C024028
:1040500000040240F0B59BB034216846FCF72FF90C
:1040600034210DA8FCF72BF92A480024284B0721FE
:1040700040F2E51740F28E264FF4257C03600525BB
:104080004460032284600E23C460C0E90441B91C6B
:10409000C0E90BC100F1180181E8EC0080F8344060
:1040A00080F8354080F83640FEF774F84FF48066AB
:1040B00001940294002200946946CDE906468DF8E9
:1040C00030400394049405948DF831401148CDE9B3
:1040D00008540A940B948DF83240FEF72FF80D9493
:1040E00001220E940DA90F94109411941294CDE90D
:1040F0001346CDE915548DF864408DF865400548A8
:10410000179418948DF86640FEF718F81BB0F0BDB0
:10411000006801400C0100200A48002130B4084C1E
:104120000C224FF4E1330460C0E90131C160C0E901
:1041300004128161C1610162416230BCFFF777B84E
:1041400000100140F4010020FEE7704770470000B6
:10415000084810B50068FCF791F8FCF785F8C1171E
:1041600000EB917121F00301401A0349401CC86023
:1041700010BD0000000000201004002001280246AD
:1041800007D0022A0AD0032A0DD0042803D131B166
:1041900007E009B9042070470220704709B10120E7
:1041A0007047032070470029F6D0F3E72DE9F0416E
:1041B0000125294F294C4FF00008EE023AE0256115
:1041C000A068052836D2DFE800F0030B0E26400079
:1041D000FFF71EFB0321C4F80C80C4E9015129E05C
:1041E000FDF716FA26E04FF07F40FCF781FC1C48F3
:1041F00002898188008892B289B280B2FCF75CFAA9
:104200004FF0FF30FCF774FCC4F80C80C4F8108049
:10421000C4E901580EE031463846FDF771FD48B15A
:104220004FF47A70FDF714FCFFF792FFA560C4F815
:104230000080E56031463846FDF762FD0028BED1BA
:1042400020690028BBD1BDE8F081C4F80C80FFF7DD
:10425000DFFA6560E8E7000000200240000000206F
:10426000100400207047FDF735BF000070B5B4B0F2
:10427000302121A8FCF723F814212DA8FCF71FF802
:1042800084216846FCF71BF82048016841F0805102
:104290000160006800F0805032901D48016841F4D0
:1042A000404101600068002529AB00F44040329095
:1042B0000224219410200821D822CDE9274583E843
:1042C000160001262C94CDE9246021A8FEF758FCA5
:1042D000FEF7BAF8E2024FF4A0510F20CDE93012F8
:1042E0002DAA072182E831002DA8FEF761FBCDE958
:1042F00007454820009032211195CDE90A65CDE9A6
:1043000005146846FEF7D6F834B070BD4038024058
:1043100000700040104A30B51048146800210F4B5F
:1043200044F470041460083305680D4A0D4C45F0E0
:104330000105056019600368051D1340074A036005
:104340000C322C600568E305034C25F480250560DC
:10435000803C1160236030BD88ED00E000380240F1
:10436000FFFFF6FE103000240148FEF788BE000073
:10437000B4010020F0B5274B4FF0804E264D026867
:104380009842264E264F274C09D0704507D0A842A8
:1043900005D0B04203D0B84201D0A04205D1D1F837
:1043A00004C022F070024CEA020298421BD0704511
:1043B00019D0A84217D0B04215D0B84213D0A042AD
:1043C00011D0194DA8420ED0184DA8420BD0184D4F
:1043D000A84208D0174DA84205D0174DA84202D0D8
:1043E000164DA84203D1CD6822F440722A434D698C
:1043F00022F080022A43026098428A68C2620A68F8
:10440000826201D0A04201D10969016301214161A9
:10441000F0BD000000000140000400400008004022
:10442000000C0040000401400040014000440140F5
:104430000048014000180040001C004000200040DF
:10444000FDF706BB0148FFF7C3B8000038040020A1
:104450003EB50124002202AB8DF80820CDE90034DE
:104460000A46234601460348FFF76CF99DF8080009
:104470003EBD00003804002007B5012382B004AA25
:10448000CDE900230A4601460248FFF770F905B05E
:1044900000BD00003804002090F82410C90706D0A1
:1044A0000168836A4A6822F400321A434A6090F82D
:1044B0002410890706D50168C36A4A6822F480324D
:1044C0001A434A6090F82410490706D50168036B27
:1044D0004A6822F480221A434A6090F8241009079F
:1044E00006D50168436B4A6822F400421A434A60C9
:1044F00090F82410C90606D50168836B8A6822F4F7
:1045000080521A438A6090F82410890606D5016803
:10451000C36B8A6822F400521A438A6090F8241010
:10452000490611D50168036C4A6822F480121A43C7
:104530004A60016CB1F5801F06D10168436C4A687E
:1045400022F4C0021A434A6090F82410090606D5E6
:104550000168826C486820F400201043486070476E
:1045600038B500250446C567FDF7D4FB034620682F
:10457000006800070BD56FF07E40009000222046B7
:104580004FF4001100F034F908B1032038BD2020A9
:10459000606784F87050A067002038BD2DE9F041B5
:1045A00004468068DFF818C2864F2368D4E90452B5
:1045B000E16928431E6800250A438349104306EA3F
:1045C0000C0606431E604FF400422068E66843680C
:1045D00023F44053334343602368A669206AD3F829
:1045E00008C030432CF4306606439E602068B84211
:1045F0000AD1086810F0030052D001287BD00228AD
:104600007AD003286ED186E0704B98420AD10868B0
:1046100010F00C0079D004287BD0082877D00C2823
:1046200060D178E06A4B98420AD1086810F03000F7
:104630006BD010286DD0202869D0302852D16AE084
:10464000644B98420AD1086810F0C0005DD0402841
:104650005FD080285BD0C02844D15CE05E4B98429C
:104660000DD1086810F440704FD0B0F5807F50D065
:10467000B0F5007F4BD0B0F5407F33D14BE0574BC6
:1046800098420FD1086810F4406009D0B0F5806FEF
:104690003FD0B0F5006F3AD0B0F5406F22D13AE08C
:1046A000012120E04E4B98420DD1086810F4405093
:1046B0002BD0B0F5805F2CD0B0F5005F27D0B0F5DF
:1046C000405F0FD127E0474B98420BD1086810F4A8
:1046D00040401AD0B0F5804F1BD0904217D0B0F5B3
:1046E000404F18D01021E0694FF6EF76904238D154
:1046F00009295DD202E00CE009E006E0DFE801F004
:104700000D1027582A5858582D000021EBE7022198
:10471000E9E70421E7E70821E5E7FEF7DFF901E033
:10472000FEF7ECF90146D4F80400490001EB500112
:10473000B1FBF0F080B2A0F11001B14238D84FF6D1
:10474000F0732168C0F342021840104324E0264968
:104750006068EBE7FEF7E2F9E4E760684FF4803168
:10476000E4E7092924D2DFE801F0050819231C2316
:1047700023231F00FEF7B2F901E0FEF7BFF901465F
:10478000D4F8040001EB5001B1FBF0F080B2A0F1CD
:104790001001B1420CD82168C8600AE01349606872
:1047A000F0E7FEF7BBF9EAE7606802EB5001EBE7E0
:1047B00001250020206660662846BDE8F0810000E3
:1047C000F369FFEF001001409038024000440040C0
:1047D00000480040004C00400050004000140140E0
:1047E00000780040007C00400048E8010024F4000C
:1047F0002DE9F041984617460E460446069D08E00E
:10480000681C06D0FDF786FAA0EB0800A8420BD87A
:1048100055B12068C06936EA000017D00020B842C0
:10482000EED00020BDE8F0812168202000220B6836
:1048300023F4D0730B6021688B6823F001038B6035
:104840006067A067032084F87020EBE70120E6E7AB
:10485000FEE700002749D1F8B820824201DB0020A2
:104860007047D1F8C820824205DCD1F8CC208242C2
:1048700001DB01207047D1F8DC20824205DCD1F851
:10488000E020824201DB02207047D1F8F020824212
:1048900005DCD1F8F420824201DB03207047D1F817
:1048A0000421824205DCD1F80821824201DB042088
:1048B0007047D1F81821824205DCD1F81C218242D0
:1048C00001DB05207047D1F82C21824205DCD1F8AC
:1048D0003021824201DB06207047D1F8402182421C
:1048E00005DCD1F84411814201DB07207047082024
:1048F00070470000A8020020090700284FEA116154
:1049000004DB00F1E02080F80014704700F00F0095
:1049100000F1E02080F8141D704702E008C8121F63
:1049200008C1002AFAD170477047002001E001C198
:10493000121F002AFBD1704710B5044C20780028C4
:1049400003D1FFF77FFD0120207010BD96000020ED
:10495000C82010B5FFF774FDBDE81040FFF7ECBFAD
:10496000F8B5064600208DF8000004460546FFF71E
:10497000E3FFA821F0B2FFF76BFD8DF800009DF872
:104980000000512800D10125641CE4B2032C01D29F
:10499000002DEED09DF80000F8BD70477047000074
:1049A00038B500248DF800400221C0B2FFF750FD59
:1049B0008DF800009DF8000000F00F008DF8000059
:1049C0009DF80000052801D98DF800409DF80010E1
:1049D0000248417084709DF8000038BD96000020A8
:1049E0000022A421C0B2FFF747BD0122A421C0B21A
:1049F000FFF742BD38B50C4600218DF800100121AB
:104A0000C0B2FFF725FD8DF800009DF80000206082
:104A100038BD00002DE9F84306461F4600209046A9
:104A2000DDF820900A468DF8000001462B4800254D
:104A30002C46407890424FD90A2A2DD2DFE802F066
:104A400005090D1115191D21252903210725082404
:104A500022E009210D250E241EE00F211325142428
:104A60001AE0152119251A2416E01B211F252024E0
:104A700012E02121252526240EE027212B252C2498
:104A80000AE02D213125322406E033213725382450
:104A900002E039213D253E24F0B2FFF7D9FC8DF824
:104AA00000009DF800008109C9F800102946F0B205
:104AB000FFF7CEFC8DF800009DF80010F0B2C8F8AA
:104AC00000102146FFF7C4FC8DF800009DF800009F
:104AD000042101EA10103860BDE8F8839600002038
:104AE0002DE9F84F8A4607464448002193468DF841
:104AF00000100E460D460C46827843789A427AD2D0
:104B00000A2A814637D2DFE802F0050A0F14191E7F
:104B100023282D3204210326062505242BE00A2113
:104B200009260C250B2426E010210F26122511241E
:104B300021E016211526182517241CE01C211B2610
:104B40001E251D2417E0222121262425232412E0DE
:104B5000282127262A2529240DE02E212D2630253F
:104B60002F2408E0342133263625352403E03A216A
:104B700039263C253B24F8B2FFF76AFC8DF800008B
:104B80009DF80010F8B2DFF87480A8F10208A8F8C8
:104B900000103146FFF75CFC8DF800009DF8001016
:104BA000B8F8000001F00F0140EA0120A8F8000069
:104BB0002946AAF80000F8B2FFF74AFC8DF8000079
:104BC0009DF80010F8B2A8F800102146FFF740FC4D
:104BD0008DF800009DF80020B8F8001002F00F02D8
:104BE00041EA0221A8F80010ABF8001099F8021071
:104BF000491C89F80210BDE8F88F000096000020DB
:104C000000207047FFF7ECBE0EB5FDF76BFAFFF71B
:104C10002DFBFEF7A1FF2D4800242B49C0E900140D
:104C20008460C4608462C46204634463FCF78AFDE8
:104C300026480121FCF736FDFEF766FFFFF70AFA6A
:104C400022480A2142F62F220094E830019402946F
:104C50001F4BC0E902418461C0E90032FEF7BEF992
:104C60001A4869460094E8300294FEF787F9FFF786
:104C700053FA1648E830FEF7EBF9FBF7EDFD01209B
:104C80004FF04041FBF73AFE0120FBF70FFFFBF727
:104C900099FB4FF07F442046FBF70EFF2016FBF7F1
:104CA00027FF2046FBF748FBFBF7C6FD84B2FBF766
:104CB000B3FD80B22146FCF743F9FEF7A9FD00BF22
:104CC000FFF774FAFCE7000000B00240CC000020BF
:104CD0000010004008480168092901D0491C08E07B
:104CE00042680021052A03D0521CC0E90012704717
:104CF0004160016070470000240000200A4B10B59D
:104D00001868092802D0401C186010BD586800249B
:104D1000052803D0401CC3E9004010BDFFF7DAFFAF
:104D20005C601C6010BD00001C0000200006101616
:104D3000000610160000000000000000010203043D
:104D4000060708090000000001020304000000003B
:104D50000000000000000000000000000000000053
:104D60000000000000000000000000000000000043
:104D70000000000000000000000000000000000033
:104D80000000000000000000000000000000000023
:104D9000000000000000000000000380000380000D
:104DA0000380000380000380000380000380000371
:104DB00080000380000100000100000000000000EE
:104DC00000038000038000000000000000000000DD
:104DD00000000000000000000000000000000000D3
:104DE00000000000000E70000E70000E7000042025
:104DF0000004200004200004200000000000000047
:104E000000000000000000000000000000000000A2
:104E10000000000000000000000000000000000092
:104E200000000000000000000000066000066000B6
:104E30000660000660000660003FF8003FF80006CC
:104E400060000CC0003FF8003FF8000CC0000CC030
:104E5000000CC0000CC0000CC000000000000000EE
:104E60000000000000000000000000000000000141
:104E7000800001800007B0000FF00018700018706B
:104E8000001C00000F800007E00000F00018300058
:104E90001C30001C70001FE0001BC00001800001DE
:104EA0008000018000018000000000000000000080
:104EB000000000000000000000000780000FC0009C
:104EC0001CE0001860001860001CE0000FF80007EC
:104ED000E0001FF000073800061800061800073829
:104EE0000003F00001E000000000000000000000EE
:104EF00000000000000000000000000000000000B2
:104F0000000000000000000003F00007F0000C604B
:104F1000000C00000C00000600000700000F9C00C1
:104F20001DFC0018F0001870000FFC0007DC0000EA
:104F30000000000000000000000000000000000071
:104F400000000000000000000000000000038000DE
:104F50000380000380000100000100000100000147
:104F60000000000000000000000000000000000041
:104F70000000000000000000000000000000000031
:104F80000000000000000000000000000000000021
:104F9000000000180000380000700000F00000E081
:104FA0000000E00001C00001C00001C00001C0001D
:104FB00001C00001C00000E00000E000007000003F
:104FC0007000003800001800000000000000000021
:104FD000000000000000000000001800001C00009D
:104FE0000E00000E00000700000700000380000311
:104FF000800003800003800003800003800007001E
:10500000000700000F00000E00001C000018000048
:105010000000000000000000000000000000000090
:1050200000000180000180000180001DB8001FF811
:105030000007E00003C00003C00006600006600037
:105040000000000000000000000000000000000060
:105050000000000000000000000000000000000050
:105060000000000000000000000000000000000040
:105070000180000180000180000180000180003F6C
:10508000FC003FFC000180000180000180000180E5
:10509000000180000000000000000000000000008F
:1050A0000000000000000000000000000000000000
:1050B00000000000000000000000000000000000F0
:1050C00000000000000000000000000000000000E0
:1050D00000000000000000E00000C00001C000016E
:1050E00080000180000300000300000000000000B9
:1050F00000000000000000000000000000000000B0
:105100000000000000000000000000000000001F80
:10511000F8001FF800000000000000000000000080
:10512000000000000000000000000000000000007F
:10513000000000000000000000000000000000006F
:10514000000000000000000000000000000000005F
:10515000000000000000000000000000000000004F
:1051600000000000000003C00003C00003C00000F6
:10517000000000000000000000000000000000002F
:105180000000000000180000180000380000300087
:1051900000700000600000600000C00000C000015E
:1051A00080000180000300000300000600000600EC
:1051B000000E00000C00001C000018000018000089
:1051C00000000000000000000000000000000000DF
:1051D000000003C00007E0000C30000C300018187D
:1051E00000181800181800181800181800181800CF
:1051F0001818000C30000C300007E00003C000005D
:10520000000000000000000000000000000000009E
:105210000000000000000000000000800007800087
:105220001F80001D800001800001800001800001BE
:105230008000018000018000018000018000018069
:10524000001FF8001FF80000000000000000000030
:10525000000000000000000000000000000000004E
:10526000000007C0001FF000383000301800301870
:105270000000180000300000600001C00003800042
:105280000600000C00001800003FF8003FF8000086
:10529000000000000000000000000000000000000E
:1052A0000000000000000000000003C0000FE0004C
:1052B0000C700000300000300000600003C00003EC
:1052C000E0000070000018000018000018001838F6
:1052D000001FF0000FC000000000000000000000F0
:1052E00000000000000000000000000000000000BE
:1052F000000000E00001E00001E000036000066043
:10530000000660000C60000C600018600030600057
:105310003FF8003FF80000600003F80003F80000C9
:10532000000000000000000000000000000000007D
:10533000000000000000000000001FF0001FF0004F
:105340001800001800001800001BC0001FF0001C0F
:10535000300000180000180000180000180030305D
:10536000003FF0000FC0000000000000000000003F
:10537000000000000000000000000000000000002D
:10538000000000F80003F8000700000E00000C0009
:10539000001800001BC0001FF0001C30001818008F
:1053A0001818001818000C38000FF00003E0000077
:1053B00000000000000000000000000000000000ED
:1053C000000000000000000000001FF8001FF800AF
:1053D000181800183800003000003000007000007D
:1053E000600000600000E00000C00000C00001C0DC
:1053F00000018000018000000000000000000000AB
:10540000000000000000000000000000000000009C
:10541000000007E0000FF0001C38001818001818F2
:10542000000C300007E00007E0000C300018180006
:105430001818001818001C38000FF00007E00000D2
:10544000000000000000000000000000000000005C
:105450000000000000000000000007C0000FF00086
:105460001C30001818001818001818000C38000F0D
:10547000F80003D80000180000300000700000E0C1
:10548000001FC0001F00000000000000000000001E
:10549000000000000000000000000000000000000C
:1054A000000000000000000000000000000003C039
:1054B0000003C00003C00000000000000000000066
:1054C00000000000000003C00003C00003C0000093
:1054D00000000000000000000000000000000000CC
:1054E00000000000000000000000000000000000BC
:1054F00000000000000000F00000F00000F00000DC
:10550000000000000000000000000000E00001C0FA
:105510000001800001800003000002000000000084
:10552000000000000000000000000000000000007B
:105530000000000000000000001C00003C0000F023
:105540000003C0000F00003C0000F000003C000021
:105550000F000003C00000F000003C00001C000031
:10556000000000000000000000000000000000003B
:10557000000000000000000000000000000000002B
:105580000000000000000000007FFC007FFC000025
:1055900000000000007FFC007FFC00000000000015
:1055A00000000000000000000000000000000000FB
:1055B00000000000000000000000000000000000EB
:1055C00000000000000000007000007800001E00D5
:1055D0000007800001E000007800001E0000780055
:1055E00001E0000780001E0000780000700000004D
:1055F00000000000000000000000000000000000AB
:105600000000000000000000000000000007C000D3
:105610000FE0001870001830001830000070000013
:10562000E00003C000038000030000000000000051
:10563000000700000700000000000000000000005C
:10564000000000000000000000000000000000005A
:10565000000003E00007F0000E38000C1800187876
:105660000018F80019D80019980019980019980026
:1056700018F8001878001800000C00000E18000739
:10568000F80003E00000000000000000000000003F
:10569000000000000000000000000000001F80006B
:1056A0001FC00001C0000360000360000630000658
:1056B00030000C30000FF8001FF800180C00300C00
:1056C00000FC7F00FC7F00000000000000000000E4
:1056D00000000000000000000000000000000000CA
:1056E00000000000007FE0007FF00018380018186C
:1056F000001818001838001FF0001FF800181C00D0
:10570000180C00180C00180C007FF8007FF0000047
:105710000000000000000000000000000000000089
:105720000000000000000000000000000003EC008A
:105730000FFC001C1C00180C00300C003000003066
:105740000000300000300000300000180C001C1C6D
:10575000000FF80003F0000000000000000000004F
:105760000000000000000000000000000000000039
:1057700000000000007FC0007FF0001838001818FB
:1057800000180C00180C00180C00180C00180C0065
:10579000180C001818001838007FF0007FE0000097
:1057A00000000000000000000000000000000000F9
:1057B000000000000000000000000000007FF80072
:1057C0007FF8001818001818001998001980001F99
:1057D00080001F8000198000199800181800181800
:1057E000007FF8007FF800000000000000000000CB
:1057F00000000000000000000000000000000000A9
:1058000000000000003FFC003FFC000C0C000C0CF2
:10581000000CCC000CC0000FC0000FC0000CC0007A
:105820000CC0000C00000C00003FC0003FC0000096
:105830000000000000000000000000000000000068
:105840000000000000000000000000000003EC0069
:105850000FFC001C1C00180C00300C003000003045
:10586000000030FE0030FE00300C00380C001C1C24
:10587000000FFC0003F0000000000000000000002A
:105880000000000000000000000000000000000018
:1058900000000000007E7E007E7E001818001818B0
:1058A000001818001818001FF8001FF8001818003A
:1058B0001818001818001818007E7E007E7E000060
:1058C00000000000000000000000000000000000D8
:1058D000000000000000000000000000001FF800B1
:1058E0001FF800018000018000018000018000019C
:1058F00080000180000180000180000180000180A3
:10590000001FF8001FF80000000000000000000069
:105910000000000000000000000000000000000087
:10592000000000000007FE0007FE0000300000300D
:105930000000300000300000300030300030300017
:105940003030003030003060003FE0000F80000059
:105950000000000000000000000000000000000047
:10596000000000000000000000000000007F3E007A
:105970007F3E0018300018600018C0001980001B1E
:1059800080001FC0001CE00018700018300018389C
:10599000007F1F007F1F00000000000000000000CB
:1059A00000000000000000000000000000000000F7
:1059B00000000000007F80007F80000C00000C00D1
:1059C000000C00000C00000C00000C00000C0C008F
:1059D0000C0C000C0C000C0C007FFC007FFC000089
:1059E00000000000000000000000000000000000B7
:1059F00000000000000000000000000000F00F00A8
:105A0000F81F00381C003C3C003C3C00366C003663
:105A10006C0033CC0033CC00318C00300C00300CE7
:105A200000FE7F00FE7F000000000000000000007C
:105A30000000000000000000000000000000000066
:105A4000000000000078FE0078FE001C18001E1800
:105A5000001F18001B18001B980019D80018D80048
:105A600018F8001878001838007F18007F18000018
:105A70000000000000000000000000000000000026
:105A80000000000000000000000000000003C00053
:105A90000FF0001C3800181800381C00300C0030C3
:105AA0000C00300C00300C00381C001818001C389A
:105AB000000FF00003C00000000000000000000024
:105AC00000000000000000000000000000000000D6
:105AD00000000000003FF0003FF8000C1C000C0C20
