:020000040800F2
:100000007804002005010008430F0008470E00088F
:10001000410F0008710100084911000800000000AC
:10002000000000000000000000000000DF0F0008DA
:100030005502000800000000450F0008E10F00080D
:100040001F0100081F0100081F0100081F01000810
:100050001F0100081F0100081F0100081F01000800
:100060001F0100081F0100081F0100081F010008F0
:100070001F0100081F0100081F0100081F010008E0
:100080001F0100081F0100081F0100081F010008D0
:100090001F0100081F0100081F0100081F010008C0
:1000A0001F0100081F0100081F0100081F010008B0
:1000B000351000081F010008000000001F010008A3
:1000C0001F01000800000000000000001F010008E0
:1000D000000000001F0100081F01000800000000D0
:1000E0001F0100081F0100081F010008DFF810D0E1
:1000F00000F02CF8004800475D120008AFF30080C4
:10010000780400200648804706480047FEE7FEE7DF
:10011000FEE7FEE7FEE7FEE7FEE7FEE7FEE7FEE7B7
:1001200033100008ED000008D2B201E000F8012B06
:10013000491EFBD270470022F6E710B513460A4667
:1001400004461946FFF7F0FF204610BD064C074D48
:1001500006E0E06840F0010394E807009847103497
:10016000AC42F6D3FFF7C6FFF412000814130008E0
:10017000FEE700002DE9F04100240F4F2646002540
:100180000121384600F06CF90028F9D003E0012085
:100190006D1C00F061F80121384600F061F900287B
:1001A000F5D1042D00DB641C6006040E761C082EBD
:1001B000E5DB2046BDE8F0810008014070B5002570
:1001C0002C46104E03E001206D1C00F045F8012183
:1001D000304600F045F90028F5D02D1F072D0DD22F
:1001E00003E00120641C00F037F80121304600F0E4
:1001F00037F90028F5D1241F072C01D3002070BD4A
:10020000012070BD000801407CB5FFF7D7FF012831
:100210001DD100244FEA0D05FFF7ACFF2855641CE3
:10022000052CF9DB9DF800109DF801009DF80330C6
:100230000A189DF8020003441A449DF804309A42BB
:1002400005D149085FEA500000F07EFE7CBD002128
:100250000846F9E77047000007490122886000203E
:10026000C1E90020C86802600A61026801E00A6909
:100270000260012AFBD070470000002070B50446E0
:1002800000F0F8F80546601C02D0044800780444E9
:1002900000F0F0F8401BA042FAD370BD200000200F
:1002A0002DE9F84FDFF89C91002409F1040A0AF1C6
:1002B000040B23460F270BF1040EBBE00125A540DC
:1002C0002A40AA4276D1DFF880C14E68A6EB0C081E
:1002D00066452BD00DDC032E34D005DC36B3012E61
:1002E00019D0022E2FD11BE0112E16D0122E2AD19A
:1002F00019E0B8F5881F19D006DCB8F5803F15D095
:10030000B8F5801F1FD111E0B8F5001F0ED0B8F569
:10031000041F18D10AE0CB6815E0CB681B1D12E062
:10032000CB6808330FE0CB680C330CE08B682BB143
:10033000012B4FF0080303D0456104E0042302E0E1
:10034000056100E00023FF2A01D8064601E000F124
:1003500004064FEA840501D9A5F12005D6F80080EE
:1003600007FA05FC28EA0C0803FA05F548EA05082F
:10037000C6F800804D68ED005BD5344DAE6946F09F
:100380000106AE61AD6924F0030605F00105009594
:100390002F4D06EB050CDCF80850A607360F07FAC0
:1003A00006F825EA0805DFF8AC80404503D14FF098
:1003B000000810E03DE0DFF8A080404502D14FF09A
:1003C000010808E0DFF89480404502D14FF00208B0
:1003D00001E04FF0030808FA06F848EA0508CCF8EF
:1003E00008804D68D9F80060ED034D4601D51643ED
:1003F00000E096432E604D68DAF80060AD03554684
:1004000001D5164300E096432E604D68DBF800608E
:10041000ED025D4601D5164300E096432E604D681F
:10042000DEF80060AD02754601D5164300E0964344
:100430002E60641C0A6832FA04F57FF43FAFBDE811
:10044000F88F00000004014000001110001002406D
:100450000000014000080140000C01400010014074
:100460008068084000D0012070470AB101617047E0
:100470000904FBE701488068704700002000002065
:100480000248816802781144816070472000002092
:10049000074810B5016841F010010160032000F029
:1004A00075F8002000F006F800F024F8002010BDD8
:1004B0000020024070B50D4D04464FF47A71287843
:1004C000B1FBF0F00A490968B1FBF0F000F0CCFA9A
:1004D00048B9102C07D200222146501E00F036F8F1
:1004E00000206C6070BD012070BD00002000002065
:1004F0002C0000200C4808B5816941F001018161A0
:10050000816901F001010091C16941F08051C1612F
:10051000C06900F0805000900448416821F0E0611B
:1005200041F08061416008BD0010024000000140C0
:10053000002809DB00F01F020121914040098000E2
:1005400000F1E020C0F8001170470000F0B40E4B3D
:100550001B680C46C3F30223C3F10705042D00D921
:100560000425191D072901D2002300E0DB1E012606
:1005700006FA05F1491E214099409E40761E16401C
:100580003143F0BC00F04ABE0CED00E0064900F03B
:10059000070208684FF6FF03184040EA0220034AAA
:1005A00010430860704700000CED00E00000FA0501
:1005B0002DE9F0470F46050061D0434E306800F04A
:1005C0000700B84209D2306820F007003843306095
:1005D000306800F00700B84251D128683B4C8107D1
:1005E00012D5400703D5606840F4E0606060287869
:1005F000000703D5606840F4605060606068A968D7
:1006000020F0F000084360602878C00728D06868B0
:10061000012810D02168022810D0890700292EDA7D
:10062000616821F0030101436160FFF723FF804609
:1006300041F288390DE021688903EFE78901EDE790
:10064000FFF718FFA0EB0801494502D90320BDE8D8
:10065000F0876068696800F00C00B0EB810FEFD1A3
:10066000306800F00700B8420BD9306820F007006E
:1006700038433060306800F00700B84201D00120F4
:10068000E5E72878400705D56068E96820F4E06070
:10069000084360602878000706D56068296920F45F
:1006A000605040EAC100606000F018F86168084AD4
:1006B000C1F30311515CC840064908600648006850
:1006C000FFF7F8FE0020C2E70020024000100240C1
:1006D000E41200082C0000202400002012A185B0A4
:1006E0000FC98DE80F0014A0144A006804905168E7
:1006F000134801F00C03042B10D0082B0ED1C1F3CA
:100700008343C9031DF803000AD5516804AAC1F345
:100710004041515C0A4A5043B0FBF1F005B07047CC
:1007200008494843FAE700000203040506070809E0
:100730000A0B0C0D0E0F10100102000000100240F9
:1007400000127A0000093D002DE9F84F040070D036
:100750002078C04DC00749D06868C0F381000128E7
:1007600007D06868C0F38100022809D16868C00317
:1007700006D52868800339D560680028E7D035E0C1
:100780006068B0F5803F0BD010B1B0F5A02F11D04C
:10079000286820F480302860286820F4802002E057
:1007A000286840F480302860606890B1FFF762FEEE
:1007B00006460AE0286840F480202860F0E700BF81
:1007C000FFF758FE801B642873D828688003F7D58C
:1007D0000CE0FFF74FFE064605E000BFFFF74AFEBC
:1007E000801B6428F0D828688003F7D420789A4EBC
:1007F00080074FF001094FF0000839D5686810F004
:100800000C0F07D06868C0F38100022809D168681E
:10081000C00306D42868800714D52069012808D1B0
:1008200010E02069B0B1C6F80090FFF723FE07463C
:1008300005E00AE1FFF71EFEC01B0228C4D82868A5
:100840008007F7D52868616920F0F80040EAC10008
:1008500028600DE0C6F80080FFF70CFE074604E0B4
:10086000FFF708FEC01B022823D828688007F7D4AA
:10087000207800072CD57948A169D9B1C0F800903B
:10088000FFF7F8FD074604E0FFF7F4FDC01B022860
:100890000FD8686A8007F7D571484FF4FA5100689D
:1008A000B0FBF1F0009000BF0098411E0091FAD219
:1008B0000EE080E0C0F80080FFF7DCFD074604E0B2
:1008C000FFF7D8FDC01B022875D8686A8007F7D4E7
:1008D0002078400760D5E8690027C00008D4E8699F
:1008E00040F08050E861E869012700F080500090F6
:1008F0005C480168C90513D40168834641F48071DE
:100900000160FFF7B7FD824606E000BFFFF7B2FDCA
:10091000A0EB0A0064284ED8DBF80000C005F5D52E
:10092000E06801280AD008B1052813D0286A20F011
:1009300001002862286A20F0040002E0286A40F0E2
:1009400001002862E06841F2883B98B1FFF792FD10
:1009500082460BE0286A40F004002862EEE700BF00
:10096000FFF788FDA0EB0A0159455AD8286A80078D
:10097000F6D50CE0FFF77EFD824605E0FFF77AFD35
:10098000A0EB0A0159454CD8286A8007F6D41FB15C
:10099000E86920F08050E861E06988B36968C1F3D4
:1009A0008101022944D00228C6F8608004D0FFF7F4
:1009B00061FD044638E034E0FFF75CFD074604E0E3
:1009C000FFF758FDC01B02282BD828688001F7D4F8
:1009D000206AB0F5803F05D16868A16820F4003036
:1009E00008436860D4E908010843696821F4741178
:1009F00008436860C6F86090FFF73CFD044606E0D7
:100A000025E000BFFFF736FD001B022809D8286843
:100A10008001F7D51BE000BFFFF72CFD001B02286B
:100A200002D90320BDE8F88F28688001F4D40EE0D5
:100A30000128F7D06868226A00F48031914204D11D
:100A4000616A00F47010884201D00120EAE70020BA
:100A5000E8E70000001002400000424280044242E9
:100A60002C0000200070004010B5401EB0F1807FC7
:100A700001D3012010BD4FF0E02460610F21601709
:100A800000F0CCFB0020A06107202061002010BDF9
:100A90007047704770B590F83C20012A23D001249C
:100AA00080F83C40022280F83D2003685A689D6827
:100AB00022F070060A6832435A600C4B02689A4270
:100AC00005D0B2F1804F02D0094B9A4204D1496857
:100AD00025F080031943916080F83D40002180F8A3
:100AE0003C10084670BD022070BD0000002C014083
:100AF0000004004010B5040003D094F83D0010B18C
:100B000007E0012010BD002084F83C00204600F0E2
:100B10001FF8022084F83D00211D206800F090FAA3
:100B2000012084F8460084F83E0084F83F0084F8F1
:100B3000400084F8410084F8420084F8430084F8BF
:100B4000440084F8450084F83D00002010BD0000FA
:100B500008B50068B0F1804F12D10A48C16941F070
:100B60000101C161C069002200F00100009011463E
:100B70001C20FFF7EBFCBDE808401C20FFF7D8BCA9
:100B800008BD00000010024090F83D10012901D07E
:100B900001207047022180F83D100168CA6842F0C8
:100BA0000102CA6000680A49884205D0B0F1804F4E
:100BB00002D00849884204D1816801F00701062962
:100BC00003D0016841F0010101600020704700007E
:100BD000002C01400004004070B5044690F83C0031
:100BE000012817D0012584F83C50022084F83D00EC
:100BF0002068826822F0770222F47F4282600868CF
:100C0000502830D00DDC20284DD005DC98B31028BA
:100C10003BD148E0022070BD302844D0402834D178
:100C200039E0602828D0702806D0B0F5805F2CD03D
:100C3000B0F5005F29D10AE0CB68D1E90121206835
:100C400000F02CFA2068816841F0770109E0CB6858
:100C5000D1E90121206800F021FA2068816841F47F
:100C60008041816011E0CA684968206800F028FA74
:100C70005021206807E016E0CA684968206800F043
:100C800030FA6021206800F013FA84F83D5000200B
:100C900084F83C0070BDCA684968206800F010FA0A
:100CA00040212068EFE7226801461046EBE77047D5
:100CB00070B50446006801694FF00005C943890713
:100CC00015D4C168C943890711D4E91E0161012007
:100CD0002077206880698007204602D0FFF7E7FF71
:100CE00004E000F098F8204600F096F82577206898
:100CF0000169C943490717D4C168C943490713D4D7
:100D00006FF004010161022020772068806910F4EF
:100D1000407F204602D0FFF7CAFF04E000F07BF8D6
:100D2000204600F079F8257720680169C943090752
:100D300016D4C168C943090712D46FF008010161D4
:100D4000042020772068C0698007204602D0FFF782
:100D5000AEFF04E000F05FF8204600F05DF8257774
:100D600020680169C943C90617D4C168C943C906C7
:100D700013D46FF010010161082020772068C0694A
:100D800010F4407F204602D0FFF791FF04E000F00E
:100D900042F8204600F040F8257720680169C943F1
:100DA000C90708D1C168C943C90704D1891E0161B7
:100DB000204600F033F820680169C943090609D4C8
:100DC000C168C943090605D46FF08001016120465E
:100DD000FFF75EFE20680169C943490609D4C1686E
:100DE000C943490605D46FF040010161204600F077
:100DF00029F820680169C94389060BD4C168C94331
:100E0000890607D46FF0200101612046BDE87040DB
:100E1000FFF73FBE70BD704770470000084801688B
:100E2000002909D0012907D1D0E90112914204DB40
:100E300000214160016001617047491C41607047B9
:100E4000000000207047FEE72DE9F04385B0002444
:100E500024480094019402940394816941F01001A4
:100E60008161816901F010010491816941F02001E3
:100E70008161816901F020010491816941F00401DF
:100E80008161816901F004010491816941F00801E7
:100E900081618069DFF8508000F008000490002232
:100EA00001214046FFF7E1FADFF8409048F2FF7772
:100EB000002239464846FFF7D8FA01250226039654
:100EC0000095CDE9015469464046FFF7E9F90097DE
:100ED0000396CDE9015469464846FFF7E1F905B0AC
:100EE000BDE8F0830010024000080140000C014002
:100EF00010B586B000241148009401940294039424
:100F000004944FF08041059401604FF43471C0E9BE
:100F100001140121C0E903148461FFF7EBFD4FF4D4
:100F20008050009069460548FFF756FE049404A9D6
:100F300002480594FFF7AEFD06B010BD300000205A
:100F4000FEE77047704700000A222DE9F04190FB50
:100F5000F2F390FBF2F802FB130691FBF2F091FB27
:100F6000F2F502FB1017C32000F0F0F8542000F057
:100F700021F93A2000F01EF90D4C14F8080000F099
:100F800019F9A05D00F016F9202000F013F94820AF
:100F900000F010F93A2000F00DF9605D00F00AF958
:100FA000E05D00F007F9BDE8F041252000F002B94E
:100FB0001400002010B5862000F0C8F84E2000F084
:100FC000F9F8542000F0F6F8552000F0F3F853201B
:100FD00000F0F0F8BDE81040542000F0EBB8704786
:100FE000FFF74EBA30B58FB028216846FFF7A3F857
:100FF00014210AA8FFF79FF801210804CDE9001089
:101000000024029402250491CDE907504FF4E0102A
:1010100009906846FFF798FB0F20CDE90A056802A2
:10102000CDE90C4002210AA80E94FFF7C1FA0FB0D7
:1010300030BD70470148FFF73BBE00003000002084
:1010400070B50268134B144C4FF08046984203D0A1
:10105000B04201D0A04203D122F070054A682A4371
:10106000984203D0B04201D0A04203D122F4407490
:10107000CA6822434C6922F08002224302608A68D7
:10108000C2620A688262984201D109690163012142
:10109000416170BD002C01400004004010B584681F
:1010A00042EA032224F47F440A432243826010BDB3
:1010B000826822F070020A4342F0070181607047A3
:1010C00010B5036A046A24F001040462846924F000
:1010D000F00444EA021423F00A020A438461026223
:1010E00010BD10B5036A23F0100303628369046A1C
:1010F00023F4704343EA023224F0A00343EA0111CF
:101100008261016210BD000010B50E4C0122114633
:101110002046FFF7AAF90220FFF79EF800220121DE
:101120002046FFF7A2F940F26C70FFF795F8012214
:1011300011462046FFF799F9BDE810400320FFF75C
:101140008BB8000000080140FEE7000070B50346C0
:101150000220FFF781F816484FF47F010160036019
:10116000134C4115103C00222046FFF77EF9002267
:1011700021152046FFF779F9A515002229462046BA
:10118000FFF773F90120FFF767F80122294620468F
:10119000FFF76BF90120FFF75FF800222946204690
:1011A000FFF763F9BDE870400120FFF755B8000074
:1011B000100C014070B503460220FFF74DF81648A9
:1011C0004FF47F0101600360134C4115103C002275
:1011D0002046FFF74AF9012291022046FFF745F920
:1011E000A515002229462046FFF73FF90120FFF709
:1011F00033F8012229462046FFF737F90120FFF78F
:101200002BF8002229462046FFF72FF9BDE8704051
:101210000120FFF721B80000100C01400907090E5A
:10122000002804DB00F1E02080F80014704700F093
:101230000F0000F1E02080F8141D704702E008C89C
:10124000121F08C1002AFAD170477047002001E040
:1012500001C1121F002AFBD1704700001D49002068
:101260000860FFF715F9FFF7BDFEFFF7EDFDFFF78B
:101270003FFE1948FFF788FC3820FFF767FF06207C
:10128000FFF764FF0C20FFF761FF0122134CD50329
:1012900029462046FFF7E9F8FFF78CFE4FF47A70F5
:1012A000FEF7ECFF0E4F44F250660022294620461E
:1012B000FFF7DBF8FFF728FFFEF7A6FF3046FEF743
:1012C000CBFF012229462046FFF7CFF83846FEF72C
:1012D000C3FFEAE70000002030000020000C0140BE
:1012E000803801000000000000000000010203043B
:1012F0000607080914130008000000203000000051
:101300003C1200084413000830000020480400008C
:101310004C12000800000000000000000000000067
:101320000000000000000000303132333435363721
:10133000383900000100000010000000000000002B
:041340000024F40091
:04000005080000ED02
:00000001FF
