:020000040800F2
:1000000048130020A9010008CF1D0008E71C0008C4
:10001000CD1D0008AF070008D52300080000000030
:1000200000000000000000000000000005010008C2
:10003000410900080000000049010008691F00088C
:10004000C3010008C3010008C3010008C301000880
:10005000C3010008C3010008C3010008C301000870
:10006000C3010008C3010008C3010008C301000860
:10007000C30100082909000835090008C301000868
:10008000C3010008C3010008C3010008C301000840
:10009000C3010008C3010008C3010008C301000830
:1000A000C301000821200008C3010008C3010008A3
:1000B000C3010008C301000800000000C3010008DC
:1000C000C30100080000000000000000C301000898
:1000D00000000000C9230008C30100080000000060
:1000E000C3010008C3010008C3010008DFF810D0F5
:1000F00000F0FAFA004800476D2A0008AFF30080CC
:1001000048130020204B19680868B0E8F00F80F30E
:100110000988BFF36F8F4FF0000080F311884EF015
:100120000D0E70470000000006480068006880F36C
:10013000088862B661B6BFF34F8FBFF36F8F00DFE1
:1001400000BF00BF08ED00E0EFF30980BFF36F8F41
:100150000D4B1A6820E9F00F106008B54FF0500001
:1001600080F3118803F0A0FD4FF0000080F31188A8
:10017000BDE8084019680868B0E8F00F80F3098806
:10018000BFF36F8F704700BF44000020EFF3118072
:100190004FF0500181F31188704780F31188704748
:1001A000EFF3058070470000064880470648004787
:1001B000FEE7FEE7FEE7FEE7FEE7FEE7FEE7FEE717
:1001C000FEE7FEE7D91F0008ED000008202A04DB47
:1001D000203A21FA02F00021704721FA02F3D040C0
:1001E000C2F1200291400843194670472DE9FE4FA5
:1001F000804681EA0300C00F0C46009021F00041C8
:1002000023F00045B8EB0200A94105D24046214643
:1002100090461C460B46024623F00040104347D050
:10022000270DC7F30A00C3F30A510290401A019048
:1002300040286BDAC3F3130040F4801B0098924609
:1002400020B10023D2EB030A63EB0B0B0198594654
:10025000C0F14002504600F099F906460D4650465E
:100260005946019A00F0A1F910EB08006141002401
:1002700087EA115284EAE7731A4340D0009A62B3C6
:10028000019A012A4FEA075215DC001B61EB0201BB
:100290004FF0004202EA0752CDE90042001C41F54E
:1002A000801132462B4600F0A1F903B0BDE8F08F73
:1002B00040462146F9E7001B61EB0201001C41F5B5
:1002C000801300185B412018A2F5001747EB0301CB
:1002D00040EAD570B6196D4111E06D084FEA360657
:1002E00045EAC0754FEA0752001B61EB0201001C92
:1002F00041F5801149084FEA30000019514132465A
:100300002B4603B0BDE8F04F00F061B90098012220
:1003100040000023D0EB020263EBE073009821461B
:100320004FEAE074B8EB000061EB0401E9E783F009
:1003300000435BE781F0004158E72DE9FE4F81EA79
:10034000030404F0004421F0004100944FF0000B3E
:1003500023F0004350EA01045ED052EA03045BD06C
:10036000C3F30A54C1F30A552C44A4F2F3340194A4
:10037000A0FB0254C1F3130141F48011C3F3130332
:1003800043F4801301FB024400FB034E840A970AE6
:1003900044EA815447EA8357A4FB076802958D0A13
:1003A00005FB07854FEA932C04FB0C542705029D9F
:1003B0004FEA065847EA1637B5EB08056EEB070C0F
:1003C000870E920E47EA811742EA8312A7FB0201C9
:1003D000B6EB0B0164EB00042B0D43EA0C335E1803
:1003E00044EB1C50DA465146E7FB0201C5F3130407
:1003F0004FEA0B3343EA14534FEA0432019C43EAB9
:100400000603A4F10C040294009CCDE900B400F0B2
:10041000EDF803B0BDE8F08F00200146F9E72DE9C3
:10042000F04D81EA030404F0004B21F0004514462E
:100430004FF0000A23F0004150EA050220D054EAB0
:1004400001021DD0C5F30A570246C5F31303C1F3D9
:100450001300C1F30A5640F4801543F48013A7EB50
:100460000608101BD64608F2FD3873EB050002D3D0
:1004700008F1010801E092185B41B8F1000F03DABE
:1004800000200146BDE8F08D00204FF480110646A3
:1004900084460EE0171B73EB050705D3121B63EBB5
:1004A000050306434CEA010C49084FEA3000921854
:1004B0005B4150EA0107EDD152EA030012D082EA13
:1004C000040083EA0501084305D0101BAB4106D2A6
:1004D0000122002306E000224FF0004302E06FF00B
:1004E000010253101AEB06004CEB085110EB0A0006
:1004F00041EB0B01BDE8F04D00F069B80EB5C10F3E
:1005000080EAE0700844CA07002140F233438DE8D6
:100510000E000A460B4600F069F803B000BD70B546
:10052000C1F30A5201F000450024C1F3130140F267
:10053000FF3341F480119A4201DA002070BD40F28D
:1005400033439A42A2F2334203DC5242FFF73EFEAB
:1005500000E090402C43F1D0404270BD30B5041E05
:1005600071F1000404DB4FF00044404264EB0101F0
:10057000141E73F1000405DB1C464FF00043524289
:1005800063EB04038B4208BF824230BD202A04DBA8
:10059000203A00FA02F1002070479140C2F1200396
:1005A00020FA03F3194390407047202A06DBCB174B
:1005B000203A41FA02F043EAE07306E041FA02F31E
:1005C000D040C2F12002914008431946704710B54F
:1005D000141E73F1000408DA401C41F10001921866
:1005E0005B411A4301D120F0010010BD2DE9F04D0F
:1005F00092469B4611B1B1FA81F202E0B0FA80F264
:1006000020329046FFF7C2FF04460F4640EA0A0038
:1006100041EA0B0153465A46084313D0114653EAA8
:10062000010019D0C8F140025046FFF7CFFD054642
:100630000E46504659464246FFF7A8FF084305D0EC
:10064000012004E020463946BDE8F08D0020054336
:1006500046EAE0762C4337430A986305E40AA0EBA8
:1006600008000022FD0A44EA47540A3002D500205F
:100670000146E9E7010510196941DDE9084500195E
:100680006941BDE8F04DA2E770B521F00043034396
:100690000CD0C1F30A550024D5EB040564EB040328
:1006A000D617AD1AB34102DB0020014670BD2018F9
:1006B00041EB025170BD000030B5041E71F1000421
:1006C00004DB4FF00044404264EB0101141E73F15F
:1006D000000405DB1C464FF00043524263EB040369
:1006E000994208BF904230BD064C074D06E0E068D5
:1006F00040F0010394E8070098471034AC42F6D369
:10070000FFF7F8FCF0410008104200082DE9F04D19
:1007100000231A461B1A8A4103DB00200146BDE86C
:10072000F08DC1F30A52C1F3130141F480154FF06B
:10073000000BD10702D100186D41521E002704465C
:1007400040F2FF11384601EB620A3E4680460246FF
:1007500000204FF48011FFF739FDC2197141BB1819
:1007600046EB0100B4EB030C75EB000C04D3E41A68
:1007700065EB000517460E46241908F101006D418E
:1007800080463428E3DDF91946EB0600091BA84131
:1007900003D24FF0FF32134601E0002213461BEB59
:1007A000070046EB0A51BDE8F04DFFF710BFFEE72A
:1007B000104C114E4FF480454FF49677A0690128F4
:1007C00009D1A068012806D101F012FBA068401CE5
:1007D000A06002F041F82946304600F026FB3B4677
:1007E000102206A1094801F017FA142002F0D0F9EE
:1007F000E4E7000000000020000C014043616C634E
:10080000756C61746F722E2E200D0A00DC000020C2
:100810003F4EDFF8008106F130040A254FF400470F
:100820004FF49679706806286ED2DFE800F06D0309
:10083000090F344C01F00CFB7068401C70601FE025
:1008400001F01EFC01F050FB642017E0C42001F011
:10085000C3FD202001F0F4FD202001F0F1FD322045
:1008600002F096F9C42001F0B7FD206890FBF5F086
:100870003030C0B201F0E4FD20683BE002F088F9BE
:100880003946404600F0D1FA4B46102222A12548B5
:1008900001F0C2F9C6E7C72001F09EFD202001F05B
:1008A000CFFD202001F0CCFD322002F071F9C720ED
:1008B00001F092FD606890FBF5F03030C0B201F0BD
:1008C000BFFD606816E0CA2001F086FD202001F01F
:1008D000B7FD202001F0B4FD322002F059F9CA2002
:1008E00001F07AFDA06890FBF5F03030C0B201F065
:1008F000A7FDA06890FBF5F105FB11003030C0B2F8
:1009000001F09EFD3220B9E701F0BAFB9CE7000040
:1009100000000020000C0140436C6F636B2E2E2002
:100920000D0A0000DC000020014800F031B8000092
:10093000A4000020014800F02BB80000E4010020D2
:100940007047FEE710B5040002D0607910B106E0F0
:10095000012010BD00202071204600F005F8012084
:100960006071002010BD000008B50068064988428B
:1009700008D10648416941F040014161406900F0F9
:100980004000009008BD000000300240001002400E
:100990002DE9F05FDFF860820446D8F80020DFF828
:1009A00058B2954D944E944F0068DFF84C92DFF8A2
:1009B00048A20BF1080B1C35303644374FF4006168
:1009C0004FF4004C4FF4002E09F158090AF16C0A5B
:1009D000584501D1082316E0A84201D1802312E036
:1009E000B04201D10B460EE0B84201D163460AE0A5
:1009F000484501D1734606E0504502D14FF400034B
:100A000001E04FF000631A4231D00268D24312076E
:100A10002DD4026822F0080202602068584501D1F6
:100A2000082114E0A84201D1802110E0B0420ED08C
:100A3000B84201D161460AE0484501D1714606E05D
:100A4000504502D14FF4000101E04FF00061C8F8B9
:100A50000410606B40F001006063042084F8210002
:100A6000002084F82000216B09B1204688476248A5
:100A7000D0F800C04FF4806120680A010B044FF4E5
:100A8000802E584502D14FF0040816E0A84202D14A
:100A90004FF0400811E0B04201D188460DE0B84265
:100AA00001D1904609E0484501D1F04605E05045A6
:100AB00002D14FF4800800E098461CEA080F33D0BA
:100AC000D0F800C06FEA0C0C5FEA4C7C2CD4D0F854
:100AD00000C05FEA8C6C05D4D0F800C02CF0040C88
:100AE000C0F800C02068584501D1042113E0A84295
:100AF00001D140210FE0B0420DD0B84201D11146E2
:100B000009E0484501D1714605E0504502D14FF456
:100B1000800100E0194638484160112084F8210026
:100B2000E16A09B120468847334AD2F800C05B46E3
:100B3000206851154FF4005B4FF4003E984202D1FB
:100B40004FF0020817E0A84202D14FF0200812E04F
:100B5000B04201D188460EE0B84201D1D8460AE041
:100B6000484501D1F04606E0504502D14FF4001847
:100B700001E04FF000781CEA080F3BD0D0F800C02D
:100B80006FEA0C0C5FEA8C7C34D4D0F800C05FEACA
:100B90008C6C05D4D0F800C02CF0020CC0F800C05A
:100BA0002068984201D1022114E0A84201D12021FD
:100BB00010E0B0420ED0B84201D159460AE0484593
:100BC00001D1714606E0504502D14FF4001101E019
:100BD0004FF000715160606B6063012084F8210068
:100BE000002084F82000A16A002903D02046BDE837
:100BF000F05F0847BDE8F09F0000024070B520B1EB
:100C000090F82110002411B103E0012070BD80F89C
:100C10002040022180F8211003681A6843F6F07121
:100C20008A43D0E901152943D0E9035635432943C6
:100C30004569294385692943C569294311431960D9
:100C40004463012180F82110002070BD31B500F00F
:100C5000F5F8044600F0F2F80099001B8842F9D339
:100C600038BD00002DE9F84FDFF894A100220AF109
:100C7000040B14464FF0010C4FF00F090BF1040E5A
:100C80000B680CFA04F52B40AB4271D15D4E4F68F6
:100C9000A7EB0608B7422BD00DDC032F34D005DCC0
:100CA00037B3012F19D0022F2FD11BE0112F16D0EF
:100CB000122F2AD119E0B8F5881F19D006DCB8F533
:100CC000803F15D0B8F5801F1FD111E0B8F5001F87
:100CD0000ED0B8F5041F18D10AE0CA6815E0CA683A
:100CE000121D12E0CA6808320FE0CA680C320CE02C
:100CF0008A682AB1012A4FF0080203D0456104E056
:100D0000042202E0056100E00022FF2B01D8074623
:100D100001E000F104074FEA840601D9A6F120069C
:100D20003D6809FA06F825EA080502FA06F645EADA
:100D300006053D604D68ED005CD5334DAE6946F06B
:100D40000106AE61AD6924F0030605F001050095CA
:100D50002E4D7719BD68A607360F09FA06F825EA61
:100D60000805DFF8AC80404503D14FF0000810E0E3
:100D700040E0DFF8A080404502D14FF0010808E0D4
:100D8000DFF89480404502D14FF0020801E04FF0B7
:100D9000030808FA06F848EA0508C7F808804D680D
:100DA000ED0305D5DAF800501D43CAF8005004E001
:100DB000DAF800609E43CAF800604D68DBF8006016
:100DC000AD035D4601D51E4300E09E432E604D6895
:100DD000DEF80060ED02754601D51E4300E09E433B
:100DE0002E604D68AD020D4D2E6801D51E4300E00A
:100DF0009E432E60641C102CFFF442AFBDE8F88FB8
:100E000000040140000011100010024000000140E9
:100E100000080140000C0140001001400C0401409A
:100E20008068084000D001207047C2684A40C26014
:100E300070470AB1016170470904FBE70148006887
:100E4000704700003C00002002480168491C016016
:100E5000704700003C000020074810B5016841F0D1
:100E600010010160032000F0AFF8002000F006F848
:100E700000F03EF8002010BD0020024000B5014601
:100E800087B00022192000F07FF8192000F070F8D8
:100E90001348816941F400618161806905A900F40A
:100EA00000600690684600F065F900F0A1F90D4970
:100EB0004000B0FBF1F10D480B4A491E0260416051
:100EC00040F2E7320021C0E90321816000F0CDFC4F
:100ED00010B1012007B000BD044800F0E2FCF9E7C2
:100EE0000010024040420F00002C01401C02002074
:100EF0001D4808B5816941F001018161806900F0F8
:100F000001000090032000F05FF8002211466FF00E
:100F10000B0000F039F8002211466FF00A0000F0D3
:100F200033F8002211466FF0090000F02DF800227E
:100F30001146501F00F028F800221146101F00F043
:100F400023F800220F21901E00F01EF800220F212E
:100F5000501E00F019F80548416821F0E06141F0A9
:100F60008061416008BD00000010024000000140A7
:100F700000F01F02012191404009800000F1E020B3
:100F8000C0F8001170470000F0B40E4B1B680C460F
:100F9000C3F30223C3F10705042D00D90425191D4D
:100FA000072901D2002300E0DB1E012606FA05F125
:100FB000491E214099409E40761E16403143F0BCA8
:100FC00000F006BF0CED00E0064900F007020868DB
:100FD0004FF6FF03184040EA0220034A104308601E
:100FE000704700000CED00E00000FA052DE9F04725
:100FF000DFF8708105460E46D8F8000000F00700C3
:10100000B0420CD2D8F8001021F007013143C8F8E3
:101010000010D8F8000000F00700B04277D128781F
:10102000514C800705D56068A96820F0F00008439E
:1010300060602878C00759D06968012001290DD067
:10104000022929D05FF0020393FAA3F2B2FA82F2E6
:1010500042F02002520904D0226803E04FF400332A
:10106000F2E7626A93FAA3F3B3FA83F303F01F0380
:10107000984002424BD0606820F003000843606053
:10108000FFF7DCFE6968074641F2883001290DD080
:101090000229814617D025E04FF00073D4E700BF46
:1010A000FFF7CCFEC11B494501D918E081466068B5
:1010B000C0F381000128F3D118E000BFFFF7BEFEA6
:1010C000C11B49450BD86068C0F381000228F5D1E7
:1010D0000CE000BFFFF7B2FEC11B494502D9032057
:1010E000BDE8F087606810F00C0FF3D1D8F800105D
:1010F000404601F00701B1420BD9016821F0070118
:1011000031430160006800F00700B04201D00120C7
:10111000E6E72878400705D56068E96820F4E060D4
:10112000084360602878000706D56068296920F4C4
:10113000605040EAC100606000F072F86168F0221F
:1011400092FAA2F201F0F001B2FA82F2D140074A1B
:10115000515CC840064908600020FFF78FFE002060
:10116000BEE7000000200240001002404441000899
:10117000400000200F2202600C4A536803F0030372
:101180004360536803F0F0038360536803F4E06343
:10119000C36052684FF4E06303EAD202026104487C
:1011A000006800F00700086070470000001002406F
:1011B0000020024001480068704700004000002005
:1011C00008480949006849684FF4E06292FAA2F2BF
:1011D00001F4E061B2FA82F2D140044A515CC840A5
:1011E00070470000400000200010024054410008F9
:1011F00008480949006849684FF4605292FAA2F21F
:1012000001F46051B2FA82F2D140044A515CC84004
:1012100070470000400000200010024054410008C8
:1012200010B519A385B00FCB8DE80F001AA01B4B8A
:10123000006804905A681A4802F00C0104291DD075
:1012400008291BD14FF4701494FAA4F402F470111D
:10125000B4FA84F4E140D2031DF8011010D55A68A5
:101260004FF4003393FAA3F302F40032B3FA83F39A
:10127000DA4004AB9A5CB0FBF2F0484305B010BD15
:1012800008484843FAE70000020304050607080976
:101290000A0B0C0D0E0F101001020000001002408E
:1012A00000127A0000093D002DE9F84F044600784D
:1012B000F74DC0074FF0010625D068687704C0F3EA
:1012C0008100012807D06868C0F3810002281BD183
:1012D0006868C00318D597FAA7F0B0FA80F040F01C
:1012E0002000400901D0286800E0686A97FAA7F159
:1012F000B1FA81F101F01F0106FA01F108425ED056
:10130000606800287CD05AE06068B0F5803F0BD060
:1013100010B1B0F5A02F11D0286820F480302860DB
:10132000286820F4802002E0286840F4803028609B
:10133000606828B3FFF782FD80460BE0286840F420
:1013400080202860F0E700BFFFF778FDA0EB0800E1
:10135000642871D897FAA7F0B0FA80F040F0200026
:10136000400901D0286800E0686A97FAA7F1B1FA4D
:1013700081F101F01F0106FA01F10842E4D01EE0FC
:10138000FFF75CFD804605E0FFF758FDA0EB080085
:101390006428DED897FAA7F0B0FA80F040F0200079
:1013A000400901D0286800E0686A97FAA7F1B1FA0D
:1013B00081F101F01F0106FA01F10842E4D1207821
:1013C000DFF8D08280074FF000094FF002075BD5AD
:1013D00068684FF0F80B10F00C0F07D06868C0F386
:1013E000810002281CD16868C00319D497FAA7F0BD
:1013F000B0FA80F040F02000400902D0286801E0F7
:101400008BE0686A97FAA7F1B1FA81F101F01F0148
:1014100006FA01F108422CD0206901287DD128E08C
:10142000206990B396FAA6F0B0FA80F048F82060F0
:10143000FFF704FD824607E011E100BFFFF7FEFC65
:10144000A0EB0A00022884D897FAA7F0B0FA80F03F
:1014500040F02000400901D0286800E0686A97FA4F
:10146000A7F1B1FA81F101F01F0106FA01F108427A
:10147000E4D028689BFAABF26169B2FA82F220F0FC
:10148000F80091400843286025E0FFE796FAA6F1AE
:10149000B1FA81F148F82190FFF7D0FC824605E0CF
:1014A000FFF7CCFCA0EB0A000228CCD897FAA7F0F3
:1014B000B0FA80F040F02000400901D0286800E038
:1014C000686A97FAA7F1B1FA81F101F01F0106FAF3
:1014D00001F10842E4D1207800076ED5A069B8B3C5
:1014E00096FAA6F0B0FA80F008EB8000C0F88064AD
:1014F000FFF7A4FC824605E0FFF7A0FCA0EB0A0082
:101500000228A0D897FAA7F0B0FA80F040F0600067
:10151000B6EB501F02D128680CE062E197FAA7F001
:10152000B0FA80F040F06000B7EB501F01D1286A9C
:1015300000E0686A97FAA7F1B1FA81F101F01F01A2
:1015400006FA01F21042D7D00120FFF77FFB34E00A
:10155000FFE796FAA6F1B1FA81F108EB8101C1F833
:101560008094FFF76BFC824606E000BFFFF766FC45
:10157000A0EB0A00022872D897FAA7F0B0FA80F020
:1015800040F06000B6EB501F01D128680BE097FADD
:10159000A7F0B0FA80F040F06000B7EB501F01D127
:1015A000286A00E0686A97FAA7F1B1FA81F101F0C0
:1015B0001F0106FA01F21042D8D12078400765D504
:1015C000E86940F08050E861E869DFF8CCB000F0ED
:1015D00080500090DBF8001041F48071CBF80010CF
:1015E000FFF72CFC824605E0FFF728FCA0EB0A0081
:1015F000642834D8DBF80000C005F5D5E068012880
:101600000AD008B1052813D0286A20F0010028620A
:10161000286A20F0040002E0286A40F001002862F5
:10162000E06841F2883B90B3FFF708FC82460BE08C
:10163000286A40F004002862EEE700BFFFF7FEFBD7
:10164000A0EB0A0159450AD897FAA7F0B0FA80F042
:1016500040F04000B6EB501F02D128680CE0A3E038
:1016600097FAA7F0B0FA80F040F04000B7EB501FB7
:1016700001D1286A00E0686A97FAA7F1B1FA81F10E
:1016800001F01F0206FA02F10842D7D031E005E06E
:10169000001002400000424200700040FFF7CEFB05
:1016A000824605E0FFF7CAFBA0EB0A0159457BD84B
:1016B00097FAA7F0B0FA80F040F04000B6EB501F68
:1016C00001D128680BE097FAA7F0B0FA80F040F05B
:1016D0004000B7EB501F01D1286A00E0686A97FA12
:1016E000A7F1B1FA81F101F01F0206FA02F10842F6
:1016F000D8D1E06980B36968C1F38101022970D053
:101700004FF080714F000228484609D091FAA1F1AC
:10171000B1FA81F148F82100FFF790FB044669E037
:101720008A4691FAA1F1B1FA81F1C14648F8210047
:10173000FFF784FB804605E0FFF780FBA0EB080085
:10174000022854D897FAA7F0B0FA80F040F02000B1
:10175000400902D0286801E061E0686A97FAA7F1C1
:10176000B1FA81F101F01F0106FA01F10842E3D15B
:10177000206AB0F5803F05D16868A16820F4003088
:1017800008436860D4E908010843696821F47411CA
:10179000084368609AFAAAF0B0FA80F049F820602D
:1017A000FFF74CFB044606E021E000BFFFF746FBD5
:1017B000001B02281BD897FAA7F0B0FA80F040F07F
:1017C0002000400901D0286800E0686A97FAA7F174
:1017D000B1FA81F101F01F0106FA01F10842E5D0EA
:1017E0001DE01EE0FFF72AFB001B022802D90320A0
:1017F000BDE8F88F97FAA7F0B0FA80F040F020002B
:10180000400901D0286800E0686A97FAA7F1B1FAA8
:1018100081F101F01F0106FA01F10842E2D1002036
:10182000E6E70120E4E74FF0E0210428086903D04F
:1018300020F004000861704740F00400FAE710B59A
:10184000401EB0F1807F01D3012010BD4FF0E02495
:1018500060610F21601700F0BBFA0020A061072033
:101860002061002010BD7047704710B5040003D000
:1018700094F8390010B107E0012010BD002084F871
:101880003800204600F00CF8022084F83900211DB1
:10189000206800F0CBFB012084F83900002010BD47
:1018A00070470168CA6842F00102CA6000680168B6
:1018B00041F00101016000207047704770B5044697
:1018C000006801694FF00005C943890715D4C16854
:1018D000C943890711D4E91E0161012020762068DF
:1018E00080698007204602D0FFF7E7FF04E000F0A0
:1018F00098F8204600F096F8257620680169C943DB
:10190000490717D4C168C943490713D46FF00401CC
:101910000161022020762068806910F4407F204613
:1019200002D0FFF7CAFF04E000F07BF8204600F089
:1019300079F8257620680169C943090716D4C1687A
:10194000C943090712D46FF0080101610420207611
:101950002068C0698007204602D0FFF7AEFF04E090
:1019600000F05FF8204600F05DF8257620680169F8
:10197000C943C90617D4C168C943C90613D46FF057
:1019800010010161082020762068C06910F4407FB2
:10199000204602D0FFF791FF04E000F042F8204615
:1019A00000F040F8257620680169C943C90708D1CD
:1019B000C168C943C90704D1891E0161204600F0EE
:1019C00033F820680169C943090609D4C168C943CD
:1019D000090605D46FF0800101612046FFF743FF3F
:1019E00020680169C943490609D4C168C943490649
:1019F00005D46FF040010161204600F01FF8206817
:101A00000169C94389060BD4C168C943890607D453
:101A10006FF0200101612046BDE87040FFF724BF50
:101A200070BD70477047000000680349884201D1CB
:101A3000FFF70ABA70470000002C0140704770475A
:101A400038B5044600680168C26811F0010F02F45D
:101A5000807204D01AB1E16B41F00101E1630168C9
:101A6000C1F34002416901F0010122B119B1E26BF9
:101A700042F00402E2630268C2F3800222B119B1AB
:101A8000E26B42F00202E2630268C2F3C00222B1DA
:101A900019B1E16B41F00801E1630168C068C1F36D
:101AA000401100F0200019B110B1204600F004FBF5
:101AB00020680168C068C1F3C01100F0800019B14E
:101AC00010B1204600F004FC21680868CA68C0F321
:101AD000801002F04002012570B16AB1CA68204648
:101AE00022F04002CA6094F83910322911D080F8EF
:101AF000395000BF00F0F6F8E06B002808D02068ED
:101B000001684068009084F839502046FFF797FF3D
:101B100038BD222180F83910ECE770B5040004D0FC
:101B200094F83900002510B106E0012070BD84F85A
:101B30003850204600F020F8022084F83900206850
:101B4000C16821F40051C160204600F009FB206803
:101B5000016921F4904101612068416921F02A0165
:101B600041612068C16841F40051C160E563012012
:101B700084F83900002070BD70B506460068204921
:101B800086B088423AD11F48816941F48041816121
:101B900080691D4C00F4804004904FF40070009068
:101BA000022001900320039069462046FFF75AF86F
:101BB00000252015CDE90005694620460295FFF76E
:101BC00051F8134C114820601020C4E90105802011
:101BD000C4E9030540016561C4E906502046FFF7EA
:101BE0000DF808B1FEF7ADFE346300220521252073
:101BF0006662FFF7C9F92520FFF7BAF906B070BD94
:101C0000003801400010024000080140440002403A
:101C1000E4010020704700002DE9F047044690F8E9
:101C2000390099460D46012801D0222858D12DB3FC
:101C300022B394F83800012852D0012684F8386085
:101C40000027E76394F8390022281AD05FF01200C9
:101C500084F83900A284E2844FF48058E08C4B462B
:101C6000401EE084A0684FF0000240454FF0800124
:101C7000204613D100F05FFB08BB04E00120BDE863
:101C8000F0873220E4E728882168C0F30800486024
:101C9000206908B16D1C08E0AD1C06E000F04BFBAC
:101CA00068B9216815F8010B4860E08C0028D5D18F
:101CB0004B4600224021204600F03DFB08B10320A6
:101CC000DDE794F83900322806D084F8396000BF87
:101CD00084F838700020D2E7222084F83900F7E732
:101CE0000220CCE77047FEE72DE9F041314886B08D
:101CF000816941F010018161816901F01001049155
:101D0000816941F020018161816901F02001049124
:101D1000816941F004018161816901F0040104914C
:101D2000816941F00801816180694FF6FF770324E2
:101D300000F00800CDE90074049069461E48FEF7E3
:101D400091FF0720CDE9000469461C48FEF78AFF91
:101D50004FF640100124002502268DE87100DFF8BF
:101D6000608069464046FEF77DFF3F20CDE90005D3
:101D7000694640460295FEF775FF6002CDE9000412
:101D8000694603964046FEF76DFFCDE9007469464B
:101D90000C480396FEF766FF0B48416841F400418A
:101DA00041600022E1034046FFF743F806B0BDE87A
:101DB000F0810000001002400010014000140140BA
:101DC00000080140000C014000000140FEE77047A0
:101DD0000907090E002806DA00F00F0000F1E020E4
:101DE00080F8141D704700F1E02080F8001470475F
:101DF00010B5012000F0F0FA062000F0EDFA3820CE
:101E000000F0EAFA0C2000F0E7FA832000F0E4FA90
:101E10004E2000F015FB542000F012FB552000F07E
:101E20000FFB532000F00CFB542000F009FB202096
:101E300000F006FB432000F003FB412000F000FB14
:101E40004C2000F0FDFABDE81040432000F0F8BA45
:101E500010B5012000F0C0FA062000F0BDFA3820CD
:101E600000F0BAFA0C2000F0B7FA832000F0B4FAC0
:101E70004E2000F0E5FA542000F0E2FA552000F080
:101E8000DFFA532000F0DCFA542000F0D9FA2020C9
:101E900000F0D6FA432000F0D3FA4C2000F0D0FA3C
:101EA0004F2000F0CDFA432000F0CAFABDE8104000
:101EB0004B2000F0C5BA00004FF4967401F08CFC82
:101EC000142000F065FE2346102202A10548FFF70A
:101ED000A3FEF3E75363616E4B65795061642E2E68
:101EE000200D0A00DC00002070B5C42000F074FA58
:101EF0001C4C0A25206890FBF5F03030C0B200F091
:101F00009FFA206890FBF5F105FB11003030C0B25C
:101F100000F096FA3A2000F093FA606890FBF5F032
:101F20003030C0B200F08CFA606890FBF5F105FB30
:101F300011003030C0B200F083FA3A2000F080FA8D
:101F4000A06890FBF5F03030C0B200F079FAA068DC
:101F500090FBF5F105FB1100BDE870403030C0B2D8
:101F600000F06EBA3000002000F019BE10B590B03D
:101F70000120022404900094102005900020CDE957
:101F80000740A00409906846FFF78EF900B1FEE70C
:101F90000F20CDE90A0480200C904FF4A0600D9032
:101FA0004FF480600E9000210AA8FFF71FF800B1DF
:101FB000FEE7FFF7FFF84FF47A71B0FBF1F0FFF79F
:101FC0003EFC0420FFF72FFC00220F21501EFEF7DD
:101FD000DBFF10B010BD00000D48016841F00101A9
:101FE000016041680B4A1140416001680A4A114092
:101FF0000160016821F480210160416821F4FE0143
:1020000041604FF41F0181600449C00308607047BC
:10201000001002400000FFF8FFFFF6FE08ED00E0B0
:102020000148FFF74BBC00001C02002070B502689D
:10203000114B124C4FF08046984203D0B04201D071
:10204000A04203D122F070054A682A43984203D087
:10205000B04201D0A04203D122F44074CA682243A6
:1020600002608A68C2620A688262984201D1096984
:1020700001630121416170BD002C0140000400405A
:102080000C4800218268521C82603B2A01DC4268B5
:1020900003E081604268521C42603B2A01DC026816
:1020A00003E041600268521C0260172A00DD0160F3
:1020B000704700003000002010B590F83910222938
:1020C00003D0322901D0022010BD8168B1F5805FB4
:1020D00011D00169002901681FD0496801F07F0310
:1020E000816A4A1C82620B70C18D491E0904090C69
:1020F000C18518D030E00269816A002A02685268FE
:1021000005D0D2B20A80816A491C8162ECE7C2F331
:1021100008020A80816A891CF7E74A68816A4B1CB9
:1021200083620A70E0E70168CA6822F02002CA6090
:1021300090F83910322911D00168CA6822F48072EF
:10214000CA6001684A6922F001024A615FF0010138
:1021500080F83910FFF75EFD002010BD1221F7E76F
:102160002DE9F041044600680169E26821F440511C
:10217000114301612169A06808436169084321682E
:10218000CA6841F20C639A430243CA6020684169FD
:10219000A26921F44071114341614C4920686425D2
:1021A000322688423CD1FFF723F800EBC00101EB57
:1021B000001061688900B0FBF1F7FFF719F800EB38
:1021C000C00101EB00106168B0468900B0FBF1F07E
:1021D000B0FBF5F06FF01801484307EB800106EB08
:1021E0000110B0FBF5F000F0F006FFF701F800EB8E
:1021F000C00101EB001061688900B0FBF1F0B0FB99
:10220000F5F006EB0016FEF7F3FF00EBC00101EB63
:10221000001061688900B0FBF1F7FEF7E9FF3BE0D1
:10222000FEF7CEFF00EBC00101EB001061688900F2
:10223000B0FBF1F7FEF7C4FF00EBC00101EB0010AB
:102240006168B0468900B0FBF1F0B0FBF5F06FF0CB
:102250001801484307EB800106EB0110B0FBF5F0D5
:1022600000F0F006FEF7ACFF00EBC00101EB001040
:1022700061688900B0FBF1F0B0FBF5F006EB0016E9
:10228000FEF79EFF00EBC00101EB001061688900C2
:10229000B0FBF1F7FEF794FF00EBC00101EB00107B
:1022A00061688900B0FBF1F0B0FBF5F06FF0180148
:1022B000484307EB800108EB0110B0FBF5F0216803
:1022C00000F00F0030448860BDE8F0810038014024
:1022D00090F83910122903D0322901D0022070471A
:1022E0008168B1F5805F016A0BD04A1C0262026806
:1022F00009785160C18C491E0904090CC1840ED0B3
:1023000017E009880268C1F30801516001690029DA
:10231000016A02D0491C0162ECE7891CFBE70168F5
:10232000CA6822F08002CA600068C16841F04001BA
:10233000C160002070472DE9F0471D4690460E46CB
:102340000446FEF77BFD07465FEA08004FF00009F0
:102350004FF0010808D030E0681C05D095B1FEF7B9
:102360006DFDC01BA8420DD82068006836EA000049
:10237000F2D127E0681C20D025B1FEF75FFDC01B1D
:10238000A8421AD92068C16821F08001C160206884
:10239000C16821F02001C1602068C16821F480710A
:1023A000C1602068416921F00101416184F83980F0
:1023B00084F838900320BDE8F0872068006836EA8A
:1023C0000000D7D00020F6E70148FFF739BB000036
:1023D000DC000020FEE7000070B518494FF47F02D2
:1023E0000A600860012000F0D3FB144C0022103C6E
:1023F0004FF400712046FEF71CFD002221152046F7
:10240000FEF717FDA515002229462046FEF711FD0F
:10241000012000F0BDFB012229462046FEF709FD00
:10242000012000F0B5FB002229462046FEF701FD01
:10243000BDE87040022000F0ABBB0000100C014072
:1024400070B518494FF47F020A600860012000F05F
:102450009FFB144C0022103C4FF400712046FEF705
:10246000E8FC012291022046FEF7E3FCA5150022BC
:1024700029462046FEF7DDFC012000F089FB012201
:1024800029462046FEF7D5FC012000F081FB002202
:1024900029462046FEF7CDFCBDE87040022000F042
:1024A00077BB0000100C0140490050EAC12018BF62
:1024B00004204A0D18BF40F0010040F2FF72B2EB59
:1024C000515F08BF40F00200012808BF0520704797
:1024D0002DE9F0414F1E00EBC7010446D1E9000190
:1024E00015461E4637F006020DD02A463346FDF744
:1024F00024FF7F1E04EBC703D3E90023FDF776FE1C
:1025000037F00602F1D1022F25D0042F13D0062F69
:1025100018BFBDE8F0812A463346FDF70EFFD4E927
:102520000A23FDF763FE2A463346FDF706FFD4E98A
:102530000823FDF75BFE2A463346FDF7FEFED4E98D
:102540000623FDF753FE2A463346FDF7F6FED4E98F
:102550000423FDF74BFE2A463346FDF7EEFED4E991
:102560000223FDF743FE2A463346FDF7E6FED4E993
:102570000023BDE8F041FDF739BE000000221346FC
:1025800010460149FDF74BBF0000F03FFDF72EBE9E
:102590000022134610461146FDF741BF40F20132BA
:1025A00000204FF0E041FEF76FB80000024A002023
:1025B0001107FEF769B8000001FDFFFF02E008C83F
:1025C000121F08C1002AFAD170477047002001E0AD
:1025D00001C1121F002AFBD17047000001490860A9
:1025E00070470000A000002070B5C1F1CF000C467C
:1025F000C0B2FFF7F1FE0025134E641C19E000BFC6
:1026000056F82500182819D006DC15280BD01628F6
:102610000BD0172804D10FE01E2811D0282811D084
:102620003030C0B202E02B2000E02D20FFF708FF81
:102630006D1CA542E4DD70BD2A20F7E72F20F5E7E9
:102640003D20F3E72E20F1E71C0100202DE9F041A9
:102650003E4D0446152909D016290CD03C4F4FF0A9
:10266000FB4617290CD0182940D143E094E80F000D
:10267000FDF7BCFD38E094E80F00FDF758FE33E0AD
:10268000D4E9000132463B46FDF768FF06D0D4E9A5
:10269000020132463B46FDF761FF21D100F0DCF834
:1026A000C620FFF799FE3320FFF7CAFE3520FFF75B
:1026B000C7FE3920FFF7C4FE3920FFF7C1FE3920DD
:1026C000FFF7BEFE3120FFF7BBFE3920FFF7B8FE53
:1026D0003920FFF7B5FE3220FFF7B2FE30202CE0A4
:1026E00094E80F00FDF729FEC5E90A01BDE8F041B5
:1026F00001F0DAB8D4E9020100221346FDF72EFFFB
:102700001FD1D4E9000100221346FDF727FF02D1B3
:1027100000200146E8E700F09FF8CB20FFF75CFEC1
:102720006520FFF78DFE7220FFF78AFE7220FFF70B
:1027300087FE6F20FFF784FE7220BDE8F041FFF7AF
:102740007FBE94E80F00FDF76AFECDE70000002091
:102750001287C7412DE9F04F0746002087B0814618
:102760000090019002904FF0190A4FF001080446C2
:1027700005460646DFF8CCB003905EE05BF8260025
:10278000182824D006DC152821D016281FD0172899
:1027900004D11CE01E2821D0282825D0B8F1000F34
:1027A00027D0FDF7ABFECDE90401684600EBC90276
:1027B0000692D2E900010022234BFDF7BEFDDDE9C0
:1027C0000423FDF713FD069AC2E900012CE04FF047
:1027D000010900248246C84625462DE03A46514666
:1027E0006846FFF733FF27E04FF000084446174DD7
:1027F00022E022462B461648164900F0DBF9CDE9C7
:1028000004015BF82600FDF779FEDDE90423FDF7FE
:1028100094FD6A4602EBC9030493D3E90023FDF754
:10282000E5FC049BC3E900010022084B2046294631
:10283000FDF7DCFC04460D46761CBE429EDB07B06D
:10284000BDE8F08F1C010020000024400000F03F94
:102850009A9999999999B93F70B5C020FFF7BCFD35
:1028600000200949054600BF41F82050401C32288D
:10287000FADB00242020FFF7E3FD641C102CF9DBB9
:102880000248C56170BD00001C010020000000204E
:102890002DE9F047744C0025724BD4E906620127FC
:1028A0004FF002094FF003084FF0060C30B1012839
:1028B00036D0022858D0032876D07DE0012908D0F0
:1028C00002290ED003291AD004291FD0052922D0AD
:1028D00072E0002E4FF0070040D043F8220011466E
:1028E00006E0002E4FF008007FD043F8220011468A
:1028F000FFF77AFEE069401CE061BDE8F0874FF029
:1029000009005EB343F822001146F1E7172043F8AF
:1029100022001146ECE7182043F822001146E7E7B1
:10292000012906D002290BD0032910D0042916D082
:1029300042E04FF004008EB143F822001146D7E781
:102940004FF0050056B143F822001146D0E726B1FA
:1029500043F822C011460620CAE7062045E01620AB
:1029600043F822001146C3E7012904D002290AD006
:10297000032910D020E026B143F82270114601202F
:10298000B6E7012031E026B143F82290114602203B
:10299000AEE7022029E02EB143F822801146032041
:1029A000A6E701E0032020E0042912D0012915D078
:1029B00002291ED0032921D050EA01022DD003287C
:1029C00038D0022899D1002997D1EEB36760A5616C
:1029D00093E7152043F82200114689E726B143F812
:1029E00022501146002083E70020BDE8F04700F0A8
:1029F00031BF282043F82200114679E7012EE7D1A4
:102A00001E2043F822001146FFF7EEFDE069401C4E
:102A1000E061BDE8F047FFF79DBE002ED8D0FFF77C
:102A20001BFFCF20E561FFF7D7FCBDE8F047302062
:102A3000FFF706BD0029CBD16068012808D0022825
:102A400006D0052807D000E008E0401C606054E78D
:102A5000C4F8048051E7C4F804904EE7A761C4E9C4
:102A600001C74AE71C010020000000201FB53648BE
:102A700000240470FEF7F0F9FFF778FAFFF734F955
:102A80003248416941F0010141614069002200F092
:102A90000100009005210D20FEF776FA0D20FEF7CB
:102AA00067FA002205210E20FEF76EFA0E20FEF7CF
:102AB0005FFA25492648203108600846FDF742FFA5
:102AC00000B1FEE72448234901604FF4E131C0E939
:102AD00001140C21C460C0E904418461C461FFF7A2
:102AE0001CF800B1FEE74FF4967314221BA11A489C
:102AF000FFF792F8144803250C300095CDE9010446
:102B00000023802219A11B48039401F099F90E4873
:102B100000951030CDE901040023802216A1184849
:102B2000039401F08DF90848022100911430CDE999
:102B300001040023802213A11448039401F080F9BA
:102B400001F080F8FEE700000000002000100240C5
:102B50000030024000380140DC0000205461736BFB
:102B600043726561742E2E200D0A000043616C6370
:102B7000756C0000B1070008436C6F636B000000C8
:102B8000110800085363616E4B657900B91E000897
:102B900010B500B9012001F02DF8002010BD10B5CE
:102BA00001F00CFA012803D0BDE8104001F036B95D
:102BB00010BD00002DE9F04D1D460C4698B017469B
:102BC00021F0004123F00043002814BF4FF0010C16
:102BD0004FF0000C0CEB440CFE4A0CEB02064FEAE3
:102BE000620C66452BD33E0018BF012606EB450656
:102BF0001644F94A964222D3F84A53EA070C02D007
:102C0000944205D148B918B000201146BDE8F08DB6
:102C1000002808BF4FF0000C01D04FF0010C0CEB66
:102C2000440212F5001F0AD8002F14BF4FF0010C08
:102C30004FF0000C0CEB450212F5001F07D918B03D
:102C40003A462B462146BDE8F04DFFF79FBC0022D7
:102C5000DFF88CA3002CB8BF534526DADFF884C315
:102C60006345A8BF022220DADFF870C39C451CDC54
:102C7000DFF874C30CEB235CBCF1140F08DDCCF15E
:102C8000340627FA06FC0CFA06F6BE420DD108E01F
:102C90005FB9CCF1140623FA06FC0CFA06F69E4244
:102CA00003D10CF00102C2F1020251EA000C19D169
:102CB000002D17DA002C18BF022A01D0012A07D0F4
:102CC0000220FFF78BFC18B0BDE8F04DFFF756BCB3
:102CD0000220FFF783FCFFF751FC18B081F00041A0
:102CE000BDE8F08DB7F1000C6CD1534525D104F14E
:102CF000804212F5801201BF00280020B74918B0A9
:102D000008BFBDE8F08DB548884207DC002DA1BFA3
:102D10006046294618B0BDE8F08D07E0281E05DAA8
:102D200080F0004118B06046BDE8F08DAF497944AD
:102D3000D1E9000118B0BDE8F08DDFF8A0C263450D
:102D400025D1002D1FDA19B1514512D1D8B909E0AA
:102D5000002840F0EC82A24A214618B062F31E011E
:102D6000BDE8F08D0020214618B060F31E01BDE8DB
:102D7000F08D08DA18B02346BDE8F04D0246002079
:102D80006146FDF74CBB18B02146BDE8F08D5145BA
:102D900018DAB5F1804F0DD0A5F1005CBCF1FF5CF5
:102DA00010D1B4F1000C0DDB18B06146BDE8F04D58
:102DB00000F048BE234618B00246BDE8F04D194663
:102DC000FDF7BBBA060024F0004C3BD1D9B1514508
:102DD00033D1002C06DD002DA1BF0020514618B0D4
:102DE000BDE8F08D002C01DD002D1BDB002C13DA7B
:102DF000002D11DB012A4FF0000014BF78497C49F7
:102E000018B0BDE8F08D022A18BF002C0AD0012AA4
:102E100008D1002C06DA0AE0002CB8BF002D11DA28
:102E2000012A04D0002018B00146BDE8F08D18B08A
:102E300000204FF00041BDE8F08DA1F14050B0F10D
:102E40007F601AD0012000EBE47050EA020421D028
:102E5000624C521E4FF0000B104304BF4FF0000BAA
:102E6000644C654883427CDD644A654893421FDDBB
:102E7000884217DB002D25DB37E0002C00DA4AB151
:102E8000022A0CBF01204FF0FF3018B0BDE8F04D12
:102E9000FDF734BB0120FFF7A1FB18B0BDE8F04DF2
:102EA000FFF776BB4D4A8A4202DC002D0ADC1CE0AB
:102EB000814202DA002D18DA04E0484B994220DD05
:102EC000002D12DD0220FFF789FBFFF767FB0546A7
:102ED0000E460022534658462146FDF72EFA18B0FA
:102EE00066F31E012846BDE8F08D0220FFF776FB51
:102EF000FFF75CFB0A46214618B062F31E01BDE8ED
:102F0000F08D002230466146FDF711FA80460E46EC
:102F10006FF00102FDF7B8FB4FF05532394BFDF76A
:102F200009FA42463346FDF708FA0022364BFDF710
:102F300001FA824642463346049110461946FDF78F
:102F4000FCF95246049BFDF7F8F98A4600904FF0D1
:102F5000C0422E4B40463146FDF7EFF92C4A2B4B31
:102F600000E027E0CDE9060151460098FDF7E5F9BC
:102F700082460191274A284B40463146FDF7DDF94C
:102F80005246019BFDF7D3F982460B460246059156
:102F9000DDE90601FDF72AF9DDE90623002688466A
:102FA0003046FDF7C4F95246059BFDF7C3F90246CA
:102FB00000F07EB90020B1F5801F07DA35223046D7
:102FC0006146FDF761FB06466FF0340000EB2150CF
:102FD00024E00000FFFF1F00FFFF0F000000F03F94
:102FE0000000F07F0000404301FCFFFFB61400002A
:102FF0000000F0FF0000F0BF0000E0410000F043DF
:10300000FFFFEF3F5555D53F0000E03F4715F73F25
:10301000FE822B6544DF5DF80BAE543EA0F2FF301C
:103020000190C1F3130040F07F6141F040510291E3
:10303000FE498842D8BF002004DDFD498142C8BF57
:10304000012001DD0D9008E000200D900198401C4A
:1030500001900298A0F5801002900299F5487844FA
:103060000B910D9900EBC100D0E900230F9330467E
:103070000A920B99FDF75BF9CDE90601DDE90A211A
:1030800030460F9BFDF7B2F802460B460020EA4996
:10309000FDF7C5F9059102460B460090DDE90601F2
:1030A000FDF74BF91490E5488A464FF00008784444
:1030B0000299006812904FF0005040EA61010D98AB
:1030C0000F9B01EB804000F5002109910A9A1298AC
:1030D000FDF72DF932460B9BFDF72CF9424653467E
:1030E000FDF72BF90646029140465146099B129A7C
:1030F000FDF723F9DDE90623FDF71CF93246029BB3
:10310000FDF715F9059B009AFDF717F90091149A40
:103110000490534610461946FDF70FF9064602463D
:10312000C7480B46029106217844FFF7D1F9CDE953
:103130000510029B324610461946FDF7FEF8DDE900
:103140000532FDF7FAF80591064653464046194602
:10315000149AFDF74BF8009B049AFDF7EEF83246FF
:10316000059BFDF743F8CDE905104246534610464E
:103170001946FDF7E2F80022B24B02910A90FDF7E2
:1031800035F8DDE90532FDF731F80E464246AD4B24
:103190004046FDF7CCF8029B0A9AFDF7C8F8DDE936
:1031A0000532FDF7C7F8424602910A9033461046B1
:1031B0005146FDF7C2F8CDE906015346149A02992B
:1031C0000A98FDF7BAF88A460290334642460099BB
:1031D0000498FDF7B2F85346029AFDF707F88246C5
:1031E0000B4602460591DDE90601FCF7FFFFDDE92C
:1031F0000623002088460646FDF799F85246059BAF
:10320000FDF798F8824609914FF060428E4B3046A8
:103210004146FDF792F8049006918C4A8A4B50463D
:103220000999FDF78AF882460291894A894B30460E
:103230004146FDF782F85246029BFCF7D7FF864BCA
:103240007B440D9A03EBC203D3E90023FCF7CEFFC6
:103250000E9007910198FDF751F90591DDE90613EC
:1032600082460E9A0498FCF7C1FF7C4A7A440D9B73
:1032700002EBC303D3E9002300930292FCF7B6FFED
:103280005246059BFCF7B2FF002688465246304660
:10329000059BFDF74CF8009B029AFDF748F8069B4A
:1032A000049AFDF744F8079B0E9AFDF743F802468F
:1032B00000200B46029038462946FDF73EF882462C
:1032C00001912B4638461946029AFDF730F83246EE
:1032D0004346FDF732F85246019BFCF787FF07464D
:1032E0008A463246434629460298FDF726F80546A7
:1032F0000E463A465346FCF779FF594A88469142B2
:1033000021DBA8EB020353EA000210D12A46334620
:10331000FDF70DF8CDE90401524A534B38465146AA
:10332000FCF764FFDDE90423FDF7C6F921D2022092
:10333000FFF754F9FFF732F90A46214618B062F355
:103340001E01BDE8F08D494B28F000429A4210D38F
:10335000474A08EB020353EA00027FF4C6AD2A464F
:103360003346FCF7E4FF3A465346FDF7A5F97FF6EE
:10337000BCAD0022019228F000403E493E4A01EBDC
:103380002051824223DA481C4FF4801121FA00F0C8
:1033900040443A4AC0F30A517A44394BA1F2FF3112
:1033A000CB4020EA0303C0F3130040F48010C1F1C6
:1033B0001401C84012680190B8F1000FBCBF404230
:1033C000019028463146FCF7B2FF05460E462A46D4
:1033D000334638465146FCF709FF4FF00008424695
:1033E000284B40460591FCF7A8FFCDE90601264A87
:1033F000264B40460599FCF7A0FF009102902A4613
:10340000334640460599FCF792FF3A465346FCF78F
:1034100091FF1F4A1F4BFCF790FF009B029AFCF79D
:10342000E5FE0746884602460B4635E08E980300C7
:103430007AB60B00FE1000000000F03F36110000CD
:10344000641000000000084009C7EE3FFD033ADCAD
:10345000F5015B14E02F3EBE3C0F0000000F0000A2
:1034600000009040FE822B654715973C00CC9040B1
:1034700000346F3F01FCFFFF0000E03F4C0E0000F6
:10348000FFFF0F00432EE63F396CA80C615C20BEA5
:10349000EF39FAFE422EE63FDDE90601FCF7A6FE13
:1034A000DDE9062305460E46FCF741FF3A46434652
:1034B000FCF740FF0F462A46334600901046194657
:1034C000FCF73BFF824602462E4888460B46052104
:1034D0007844FEF7FDFF52464346FCF72EFF2A468E
:1034E0003346FCF727FF80468A463B46284631464E
:1034F000009AFCF722FF3B46009AFCF777FE069104
:10350000009000224FF0804340465146FCF70FFFE9
:103510000F460C904246534628463146FCF70DFFB5
:103520003B460C9AFCF77BFF069B009AFCF7FFFEDC
:103530002A463346FCF7FBFE0022134BFCF7FAFE4B
:10354000054601980E4601EB00510815002810DCD5
:1035500028463146019AFDF797F8FEF7A5FF0428A3
:1035600008BFFFF723F828463146019AFDF78CF88B
:1035700005460B4618B02A4658462146BDE8F04D90
:10358000FCF7DBBEEC0C00000000F03F70B50B4C0C
:10359000054620684560E0682168854205D2606B79
:1035A000BDE87040091D00F093BA206B091D00F0C2
:1035B0008FFAA06A854200D2A56270BD4400002047
:1035C00070B5124E124C1AE000F066FB3068D0B1B4
:1035D00000F062FD00F0A0FAF068C568281D00F058
:1035E00057FAA068401EA0606068401E606000F04E
:1035F000AFFA286B00F0BEFA284600F0BBFA60680C
:103600000028E1D170BD00F047FDF8E7200300205D
:103610004400002010484FF44061420706D0C01D0E
:103620000D4920F00700411AC1F540610B4A002303
:103630000144C2E900030839103A21F00701116082
:103640004B600B600B1AC0E9001393604FF0004011
:103650005360D06070470000480300208C000020B9
:10366000044C00BFFFF7ACFF20680128FAD900F036
:10367000B5FAF7E75802002030B5114900E01146CD
:103680000A688242FBD34B685C18844203D14068CD
:1036900018444860084643681C18944209D1084CF5
:1036A000103C2468A24209D052681A4442600A6859
:1036B00012680260814200D0086030BD0460F9E702
:1036C0008C0000200648016B096829B1016BC968AC
:1036D000C9684968816270474FF0FF31FAE700001E
:1036E0004400002004484068401C02D0FCF74EFD16
:1036F000FEE7FCF74BFDFEE7940000202DE9F041CA
:103700000546002700F0C8FA2A4E306808B9FFF7CE
:1037100081FFF068054242D1F5B30835680709D04A
:1037200005F00700C0F108000544680702D0FCF767
:103730002DFDFEE785B37068854230D81D481030F6
:1037400001460C6801E020460C466168A94202D29D
:1037500021680029F7D131688C4220D007682168A0
:10376000016060680837411B102909D960194207B8
:1037700002D0FCF70BFDFEE741606560FFF77CFFC0
:1037800061687068401A7060B268904200D2B060A0
:10379000F0680143002000E001E0C4E9000100F00E
:1037A0007BFC780702D0FCF7F1FCFEE73846BDE869
:1037B000F08100007C00002010B5031F4FF08074E2
:1037C0001C601B1F1960191F024B0B601439403815
:1037D0000A6010BDE536000870B501221C4C1503C7
:1037E00029462046FDF725FB002000F087FA00223D
:1037F00029462046FDF71DFB012255032946204698
:10380000FDF717FB012000F079FA00222946204637
:10381000FDF70FFB0122950329462046FDF709FB22
:10382000022000F06BFA002229462046FDF701FB3A
:103830000122D50329462046FDF7FBFA032000F0BC
:103840005DFA29462046BDE870400022FDF7F1BA36
:103850000008014013494A683031032A0DD0042A78
:1038600015D0052A08D18A6802EB820200EB4202D9
:103870008A603B2A00DD886070470A6802EB82029A
:1038800000EB42020A60172AF6DD086070474A68BA
:1038900002EB820200EB42024A603B2AF6DD4860FE
:1038A00070470000000000202DE9F04F002489B08F
:1038B00026462020FEF7C4FD604D761CE846102EFB
:1038C000F7DBD5E90A0100221346FCF747FE07D2D1
:1038D0002D2108F80410E96A641C81F00041E962B6
:1038E0005649D1E90A01FCF71AFE814600250790E6
:1038F000FCF704FE0F4606462846FCF7FFFD02468D
:103900000B4600204E49FFF755F902460B4630465C
:103910003946FCF784FDFCF702FE6D1C0028EBDC49
:10392000012D46D0AD1E2E4637D43046FCF7E6FDBD
:1039300007460B4606913A4600204149FFF73AF9FF
:1039400082468B464846FCF7D9FD814652465B4687
:103950000591FCF764FDFCF7E2FD82463A46002043
:103960003749069BFFF726F907468B465046FCF77A
:10397000C5FD3A465B46FCF7E0FC02460B4648466E
:103980000599FCF7D4FCFCF7CAFD81460AF130002A
:1039900008F80400641C761EC7D50798FCF7AEFD36
:1039A000264BD3E90A23FCF7C5FC0126C5F10A071B
:1039B00030E03020FEF744FD302108F80410641C8C
:1039C000EBE700221E4BFCF7B8FC81468A46FCF769
:1039D000A6FD8346FCF792FD4A465346FCF7AAFC37
:1039E000012E03D12E2308F80430641CC5F109020E
:1039F000B24204DB0BF1300208F80420641CB74229
:103A000007D1BBF1040F04DD18F807305B1C08F880
:103A10000730761CB742D4DAC4F1D000C0B2FEF74A
:103A2000DBFC0025464603E0705DFEF709FD6D1CDA
:103A3000A542F9DB09B0BDE8F08F000000000020CE
:103A4000000024402DE9F04106460F46FCF75EFEDB
:103A5000041E0D4618BF0120284320F00040C0F18D
:103A60007F6000F1E040C00F0ED0301C18BF012075
:103A7000384320F00040C0F17F6000F1E040C00F0B
:103A800004BF0120FEF7AAFD20462946BDE8F081CB
:103A9000D0E9013201699A60D0E901235A604A688D
:103AA000824201D182684A60002202610868401E99
:103AB0000860704700F108014FF0FF32C0E90112C1
:103AC000C160016100210160704700210161704700
:103AD00030B50B685A1C02D000F1080202E00269FE
:103AE00004E02246546825689D42FAD953684B6029
:103AF00099608A60516008610168491C016030BDAD
:103B000042684A6093688B6093685960916008616D
:103B10000168491C0160704710B5FCF737FB0A4883
:103B20004168491C4160BFF34F8FBFF36F8F4068FE
:103B3000012807D10548006810F0FF0F02D0FCF7FC
:103B400025FBFEE710BD00009400002004ED00E01E
:103B5000074910B5486830B1401E486006D1BDE83D
:103B60001040FCF71ABBFCF711FBFEE710BD00008C
:103B70009400002070B500281DD00F4DA0F108045E
:103B80006068E968084202D1FCF700FBFEE72268A2
:103B900012B1FCF7FBFAFEE78843606000F07CF8A6
:103BA00060686968084468602046FFF765FDBDE805
:103BB000704000F071BA70BD7C00002006484FF4E0
:103BC0007A710068B0FBF1F14FF0E020491E4161CD
:103BD00007210161704700004000002004494FF0B8
:103BE00080500860BFF34F8FBFF36F8F70470000A6
:103BF00004ED00E070B502001DD0114CE06A10B178
:103C0000FCF7C4FAFEE700F047F8E0688518206882
:103C1000001DFFF73DFF38B9206890F82C100120F7
:103C200088402169814321612846FFF7AFFC00F0FD
:103C300033FA002803D1BDE87040FFF7CFBF70BD55
:103C4000440000201FB500240094019402942346F0
:103C500080220DA10E48039400F0F2F8012804D050
:103C600000280FD1FCF792FAFEE7FCF78FFA09481B
:103C70004FF0FF31816201214161C460BDE81F4006
:103C800000F092B81FBD000049444C450000000000
:103C900061360008440000200248C16A491CC16224
:103CA0007047000044000020124810B5C16A11B1ED
:103CB0000121C16110BD0021C16101690E4AB1FA43
:103CC00081F1C1F11F0101EB810152F821306BB18B
:103CD00002EB810101F108034A6852684A609A4286
:103CE00001D152684A60D168016010BDFCF74EFAFC
:103CF000FEE70000440000205802002070B5294C67
:103D0000054601212046FDF78BF808B1002121E08E
:103D100002212046FDF784F808B101211AE00421B0
:103D20002046FDF77DF808B1022113E00821204666
:103D3000FDF776F808B103210CE010212046FDF7CD
:103D40006FF808B1042105E020212046FDF768F84E
:103D500018B105212846FEF79BFD01212046FDF7FD
:103D60005FF80028F9D102212046FDF759F8002814
:103D7000F3D104212046FDF753F80028EDD10821A6
:103D80002046FDF74DF80028E7D110212046FDF729
:103D900047F80028E1D120212046FDF741F800280E
:103DA000DBD170BD000801401CB5194908780190AD
:103DB000FF20087008788DF800009DF80000154A73
:103DC00000F0500010700720906005E09DF8003072
:103DD0005B008DF80030401E9DF800301B06F5D4C6
:103DE000000200F4E0609060019808700A480168E1
:103DF00041F470010160016841F070410160FFF71A
:103E0000DDFE00205060FCF78FF900201CBD000093
:103E100000E400E09400002020ED00E010B5FCF785
:103E2000B5F900F0D9F818B104494FF08050086096
:103E3000BDE810400020FCF7B0B9000004ED00E040
:103E40002DE9F05F5FEA000ADDE90B900A9E9B46D0
:103E50001546884604D0072E05D3FCF797F9FEE7F0
:103E6000FCF794F9FEE710B9A800FFF747FC07003C
:103E700014D05420FFF742FC68B1044607636FF08A
:103E8000030000EB8500384420F00707780708D0CE
:103E9000FCF77CF9FEE73846FFF76CFE4FF0FF3485
:103EA00085E041463546002022180B5C82F834300C
:103EB0000A5C12B1401C1028F6D3002084F843009D
:103EC000072D00D306258046E562C4E91158201D60
:103ED000FFF7FBFD04F11800FFF7F7FD2461C5F1C2
:103EE00007016462A161C4F84C8084F850805A468E
:103EF00051463846FFF760FC2060B9F1000F01D051
:103F0000C9F80040FFF708FE2A4DA868401CA860C9
:103F10002868DFF8A48010B1686940B32CE02C60F9
:103F2000A868012828D1002707EB870108EB81004A
:103F3000FFF7C0FD7F1C072FF6D31F488C30FFF71B
:103F4000B9FD1D48A030FFF7B5FD1B48B430FFF7A1
:103F5000B1FD1948C830FFF7ADFD1748DC30FFF759
:103F6000A9FD15488C3028631430686304E0286884
:103F7000C06AB04200D82C60686A401C6862E16A7E
:103F800001202A6988401043286101EB810108EB78
:103F90008100211DFFF7B4FD0124FFF7D9FD6869F9
:103FA00028B12868C06AB04201D2FFF717FE204648
:103FB000BDE8F09F440000205802002005484169F8
:103FC00019B1C06A18B10020704701207047022063
:103FD00070470000440000202DE9F0412C4C0026E1
:103FE000E06A40B1A069401CA061E06900B101260F
:103FF0003046BDE8F081E068401CE060E76877B9D2
:10400000206B006810B1FCF7C1F8FEE7206B616B14
:1040100021636063206A401C2062FFF753FBA06AA3
:10402000DFF87080874209D3206B006880B1206B75
:10403000C068C568686887420DD2A0622068C06AFF
:1040400000EB800158F821000128CED90126CCE7E9
:104050004FF0FF30F1E7281DFFF71AFDA86A18B1ED
:1040600005F11800FFF714FDE96A01202269884074
:104070001043206101EB810108EB8100291DFFF74E
:104080003FFDE86A2168C96A8842CDD30126CBE7A3
:1040900044000020580200202DE9F047274C00265C
:1040A000E06A38B1FFF738FDE06A401EE062E06A7E
:1040B00018B13DE0FCF76AF8FEE7A168204D012049
:1040C00079B3A5F1B40980462868E8B1E868C76803
:1040D00007F11800FFF7DCFC381DFFF7D9FCF96A7F
:1040E000226908FA01F01043206101EB810109EB1C
:1040F0008100391DFFF704FDF86A2168C96A88420A
:10410000E2D3C4F81C80DFE7A06958B14546A06936
:1041100040B1FFF761FF00B1E561A069401EA061F9
:10412000F5E705E0E069012802D10126FFF756FD19
:10413000FFF70EFD3046BDE8F08700004400002088
:104140000C03002000000000000000000102030436
:104150000607080900000000010203040000000037
:10416000000000000000F03F000000000000F83FE9
:1041700000000000000000000000004003B8E23F23
:10418000000000000000000006D0CF43EBFD4C3ED5
:10419000033333333333E33FFFAB6FDBB66DDB3FCA
:1041A0004D268F515555D53F01411DA96074D13F12
:1041B00065DBC9934A86CD3FEF4E454A287ECA3F0C
:1041C0003E5555555555C53F93BDBE166CC166BF8E
:1041D0002CDE25AF6A56113FF16BD2C541BDBBBE87
:1041E000D0A4BE726937663E0000000000000000E7
:1041F0001042000800000020A4000000BC250008B8
:10420000B4420008A4000020A4120000CC2500083D
:10421000000000000100000001000000000000009C
:10422000000000000000000000000000000000008E
:10423000000000000000000000000000000000007E
:104240000C00000000000000000000000000000062
:1042500000A24A040000000000000000000000006E
:10426000000000000000000000000000000000004E
:10427000000000000000000000000000000000003E
:10428000000000000000000000000000000000002E
:10429000000000000000000000000000000000001E
:1042A0000000000000000000AAAAAAAA0000000066
:0442B000000000000A
:04000005080000ED02
:00000001FF
