:020000040800F2
:10000000A8040020050100088F0F0008930E0008C7
:100010008D0F000871010008CB11000800000000DE
:10002000000000000000000000000000A110000817
:100030007301000800000000910F0008A3100008E1
:100040001F0100081F0100081F0100081F01000810
:100050001F0100081F010008990100081F01000886
:100060001F0100081F0100081F0100081F010008F0
:100070001F0100081F0100081F0100081F010008E0
:100080001F0100081F0100081F0100081F010008D0
:100090001F0100081F0100081F0100081F010008C0
:1000A0001F0100081F0100081F0100081F010008B0
:1000B000F91000081F010008000000001F010008DF
:1000C0001F01000800000000000000001F010008E0
:1000D000000000001F0100081F01000800000000D0
:1000E0001F0100081F0100081F010008DFF810D0E1
:1000F00000F02CF8004800470D130008AFF3008013
:10010000A80400200648804706480047FEE7FEE7AF
:10011000FEE7FEE7FEE7FEE7FEE7FEE7FEE7FEE7B7
:10012000F5100008ED000008D2B201E000F8012B44
:10013000491EFBD270470022F6E710B513460A4667
:1001400004461946FFF7F0FF204610BD064C074D48
:1001500006E0E06840F0010394E807009847103497
:10016000AC42F6D3FFF7C6FFA8130008C813000877
:10017000FEE770470749012248610020C1E90320DA
:1001800088690260CA61026801E0CA690260012AE6
:10019000FBD0704700000020012000F097B800005D
:1001A0002DE9F041474C00272046A268406A01260D
:1001B000411C04F12005052A28D2DFE802F0031AC9
:1001C0003D536A0001F090F843F2C821A0638842D1
:1001D00002DC606B002819D100224FF400413A483C
:1001E00000F060F96663EF70AF706F702F70676238
:1001F0001EE0421E072A0BD2616201F075F801F081
:100200006CF820702978084440002870BDE8F0811F
:1002100050B10828FAD101F067F801F05EF82070BB
:1002200029780844287032E06068C4E90960EDE785
:10023000A068401CA060E9E708280ADA616201F0C2
:1002400053F801F04AF8207069780844400068705B
:10025000DCE701F049F801F040F8207069780844C3
:10026000687014E008280ADA616201F03DF801F0D4
:1002700034F82070A97808444000A870C6E701F05F
:1002800033F801F02AF82070A9780844A870666253
:10029000CEE708280ADA616201F026F801F01DF8BD
:1002A0002070E97808444000E870AFE701F01CF8DE
:1002B00001F013F82070E9780844E870A76026631D
:1002C000A4E7000000000020000C0140044910B524
:1002D0000A68024202D00860FFF762FF10BD00000A
:1002E000140401402DE9F84FDFF89C91002409F136
:1002F000040A0AF1040B23460F270BF1040EBBE09E
:100300000125A5402A40AA4276D1DFF880C14E6877
:10031000A6EB0C0866452BD00DDC032E34D005DC93
:1003200036B3012E19D0022E2FD11BE0112E16D07C
:10033000122E2AD119E0B8F5881F19D006DCB8F5BD
:10034000803F15D0B8F5801F1FD111E0B8F5001F10
:100350000ED0B8F5041F18D10AE0CB6815E0CB68C1
:100360001B1D12E0CB6808330FE0CB680C330CE0A8
:100370008B682BB1012B4FF0080303D0456104E0DB
:10038000042302E0056100E00023FF2A01D80646AD
:1003900001E000F104064FEA840501D9A5F120052A
:1003A000D6F8008007FA05FC28EA0C0803FA05F5E0
:1003B00048EA0508C6F800804D68ED005BD5344D6D
:1003C000AE6946F00106AE61AD6924F0030605F0A2
:1003D000010500952F4D06EB050CDCF80850A6072B
:1003E000360F07FA06F825EA0805DFF8AC80404525
:1003F00003D14FF0000810E03DE0DFF8A080404559
:1004000002D14FF0010808E0DFF89480404502D1A6
:100410004FF0020801E04FF0030808FA06F848EA36
:100420000508CCF808804D68D9F80060ED034D460A
:1004300001D5164300E096432E604D68DAF800605F
:10044000AD03554601D5164300E096432E604D6836
:10045000DBF80060ED025D4601D5164300E09643EF
:100460002E604D68DEF80060AD02754601D516437A
:1004700000E096432E60641C0A6832FA04F57FF4AB
:100480003FAFBDE8F88F00000004014000001110EC
:10049000001002400000014000080140000C014033
:1004A000001001400AB1016170470904FBE7000038
:1004B00001488068704700004C00002002488168B5
:1004C00002781144816070474C000020074810B545
:1004D000016841F010010160032000F075F8002070
:1004E00000F006F800F024F8002010BD00200240C3
:1004F00070B50D4D04464FF47A712878B1FBF0F0D9
:100500000A490968B1FBF0F000F0CCFA48B9102CA8
:1005100007D200222146501E00F036F800206C6001
:1005200070BD012070BD00004C000020580000206C
:100530000C4808B5816941F001018161816901F0D0
:1005400001010091C16941F08051C161C06900F0B1
:10055000805000900448416821F0E06141F08061E2
:10056000416008BD0010024000000140002809DB86
:1005700000F01F02012191404009800000F1E020BD
:10058000C0F8001170470000F0B40E4B1B680C4619
:10059000C3F30223C3F10705042D00D90425191D57
:1005A000072901D2002300E0DB1E012606FA05F12F
:1005B000491E214099409E40761E16403143F0BCB2
:1005C00000F06CBE0CED00E0064900F00702086880
:1005D0004FF6FF03184040EA0220034A1043086028
:1005E000704700000CED00E00000FA052DE9F0472F
:1005F0000F46050061D0434E306800F00700B84256
:1006000009D2306820F0070038433060306800F0CD
:100610000700B84251D128683B4C810712D54007EA
:1006200003D5606840F4E06060602878000703D577
:10063000606840F4605060606068A96820F0F00075
:10064000084360602878C00728D06868012810D067
:100650002168022810D0890700292EDA616821F06C
:10066000030101436160FFF723FF804641F28839AF
:100670000DE021688903EFE78901EDE7FFF718FF37
:10068000A0EB0801494502D90320BDE8F087606866
:10069000696800F00C00B0EB810FEFD1306800F01A
:1006A0000700B8420BD9306820F0070038433060AB
:1006B000306800F00700B84201D00120E5E7287853
:1006C000400705D56068E96820F4E0600843606091
:1006D0002878000706D56068296920F4605040EA50
:1006E000C100606000F018F86168084AC1F30311A6
:1006F000515CC8400649086006480068FFF7F8FEEC
:100700000020C2E7002002400010024096130008BB
:10071000580000205000002012A185B00FC98DE8BC
:100720000F0014A0144A006804905168134801F0A7
:100730000C03042B10D0082B0ED1C1F38343C90343
:100740001DF803000AD5516804AAC1F34041515C69
:100750000A4A5043B0FBF1F005B0704708494843DE
:10076000FAE7000002030405060708090A0B0C0D4E
:100770000E0F1010010200000010024000127A005B
:1007800000093D002DE9F84F040070D02078C04DDD
:10079000C00749D06868C0F38100012807D06868A5
:1007A000C0F38100022809D16868C00306D5286813
:1007B000800339D560680028E7D035E06068B0F57F
:1007C000803F0BD010B1B0F5A02F11D0286820F4D5
:1007D00080302860286820F4802002E0286840F4F7
:1007E00080302860606890B1FFF762FE06460AE03C
:1007F000286840F480202860F0E700BFFFF758FE2B
:10080000801B642873D828688003F7D50CE0FFF7B5
:100810004FFE064605E000BFFFF74AFE801B642836
:10082000F0D828688003F7D420789A4E80074FF0DC
:1008300001094FF0000839D5686810F00C0F07D097
:100840006868C0F38100022809D16868C00306D433
:100850002868800714D52069012808D110E0206994
:10086000B0B1C6F80090FFF723FE074605E00AE1A5
:10087000FFF71EFEC01B0228C4D828688007F7D5E2
:100880002868616920F0F80040EAC10028600DE0A6
:10089000C6F80080FFF70CFE074604E0FFF708FEED
:1008A000C01B022823D828688007F7D420780007C7
:1008B0002CD57948A169D9B1C0F80090FFF7F8FDAF
:1008C000074604E0FFF7F4FDC01B02280FD8686A52
:1008D0008007F7D571484FF4FA510068B0FBF1F08A
:1008E000009000BF0098411E0091FAD20EE080E017
:1008F000C0F80080FFF7DCFD074604E0FFF7D8FDF5
:10090000C01B022875D8686A8007F7D42078400792
:1009100060D5E8690027C00008D4E86940F080503D
:10092000E861E869012700F0805000905C480168A8
:10093000C90513D40168834641F480710160FFF753
:10094000B7FD824606E000BFFFF7B2FDA0EB0A004C
:1009500064284ED8DBF80000C005F5D5E068012812
:100960000AD008B1052813D0286A20F001002862B7
:10097000286A20F0040002E0286A40F001002862A2
:10098000E06841F2883B98B1FFF792FD82460BE0A8
:10099000286A40F004002862EEE700BFFFF788FDF8
:1009A000A0EB0A0159455AD8286A8007F6D50CE011
:1009B000FFF77EFD824605E0FFF77AFDA0EB0A0116
:1009C00059454CD8286A8007F6D41FB1E86920F051
:1009D0008050E861E06988B36968C1F38101022948
:1009E00044D00228C6F8608004D0FFF761FD0446B9
:1009F00038E034E0FFF75CFD074604E0FFF758FD00
:100A0000C01B02282BD828688001F7D4206AB0F5D3
:100A1000803F05D16868A16820F400300843686011
:100A2000D4E908010843696821F474110843686037
:100A3000C6F86090FFF73CFD044606E025E000BFE5
:100A4000FFF736FD001B022809D828688001F7D57A
:100A50001BE000BFFFF72CFD001B022802D903207A
:100A6000BDE8F88F28688001F4D40EE00128F7D0A3
:100A70006868226A00F48031914204D1616A00F40E
:100A80007010884201D00120EAE70020E8E700006A
:100A90000010024000004242800442425800002000
:100AA0000070004010B5401EB0F1807F01D30120DE
:100AB00010BD4FF0E02460610F21601700F0EEFBE5
:100AC0000020A06107202061002010BD7047704702
:100AD00070B590F83C20012A23D0012480F83C40D6
:100AE000022280F83D2003685A689D6822F0700653
:100AF0000A6832435A600C4B02689A4205D0B2F140
:100B0000804F02D0094B9A4204D1496825F08003F6
:100B10001943916080F83D40002180F83C10084660
:100B200070BD022070BD0000002C01400004004098
:100B300010B5040003D094F83D0010B107E0012087
:100B400010BD002084F83C00204600F01FF8022071
:100B500084F83D00211D206800F0D4FA012084F8BB
:100B6000460084F83E0084F83F0084F8400084F892
:100B7000410084F8420084F8430084F8440084F87B
:100B8000450084F83D00002010BD000008B5006855
:100B9000B0F1804F12D10A48C16941F00101C16131
:100BA000C069002200F00100009011461C20FFF7F0
:100BB000EBFCBDE808401C20FFF7D8BC08BD0000D6
:100BC0000010024090F83D10012901D0012070472B
:100BD000022180F83D100168CA6842F00102CA6033
:100BE00000680A49884205D0B0F1804F02D0084918
:100BF000884204D1816801F00701062903D0016809
:100C000041F001010160002070470000002C01400C
:100C10000004004070B5044690F83C00012817D04D
:100C2000012584F83C50022084F83D002068826849
:100C300022F0770222F47F4282600868502830D088
:100C40000DDC20284DD005DC98B310283BD148E0BE
:100C5000022070BD302844D0402834D139E06028CB
:100C600028D0702806D0B0F5805F2CD0B0F5005F9A
:100C700029D10AE0CB68D1E90121206800F070FA9F
:100C80002068816841F0770109E0CB68D1E9012152
:100C9000206800F065FA2068816841F48041816035
:100CA00011E0CA684968206800F06CFA5021206899
:100CB00007E016E0CA684968206800F074FA60210D
:100CC000206800F057FA84F83D50002084F83C007A
:100CD00070BDCA684968206800F054FA4021206855
:100CE000EFE7226801461046EBE7704770B504460F
:100CF000006801694FF00005C943890715D4C16830
:100D0000C943890711D4E91E0161012020772068B9
:100D100080698007204602D0FFF7E7FF04E000F07B
:100D200098F8204600F096F8257720680169C943B5
:100D3000490717D4C168C943490713D46FF00401A8
:100D40000161022020772068806910F4407F2046EE
:100D500002D0FFF7CAFF04E000F07BF8204600F065
:100D600079F8257720680169C943090716D4C16855
:100D7000C943090712D46FF00801016104202077EC
:100D80002068C0698007204602D0FFF7AEFF04E06C
:100D900000F05FF8204600F05DF8257720680169D3
:100DA000C943C90617D4C168C943C90613D46FF033
:100DB00010010161082020772068C06910F4407F8D
:100DC000204602D0FFF791FF04E000F042F82046F1
:100DD00000F040F8257720680169C943C90708D1A8
:100DE000C168C943C90704D1891E0161204600F0CA
:100DF00033F820680169C943090609D4C168C943A9
:100E0000090605D46FF0800101612046FFF75EFE00
:100E100020680169C943490609D4C168C943490624
:100E200005D46FF040010161204600F031F82068E0
:100E30000169C94389060BD4C168C943890607D42F
:100E40006FF0200101612046BDE87040FFF73FBE12
:100E500070BD7047704700000B480021C2685AB14E
:100E6000012A09D1D0E904239A4203DB0161C16060
:100E7000C16101E0521C02614268044B521C426095
:100E80009A4200DB4160704700000020A08601000C
:100E90007047FEE7F0B585B0002424480094019423
:100EA00002940394816941F010018161816901F02C
:100EB00010010491816941F020018161816901F093
:100EC00020010491816941F004018161816901F08F
:100ED00004010491816941F0080181618069144F26
:100EE00000F0080048F2FF760490002231463846B0
:100EF000FFF7D8FA01250F480095CDE901046946AE
:100F00000D48FFF7EFF90220CDE90240CDE9006579
:100F100069463846FFF7E6F9002211460620FFF73A
:100F200033FB0620FFF722FB05B0F0BD00100240A6
:100F3000000C0140000021100008014010B586B0EF
:100F400000241148009401940294039404944FF0F7
:100F50008041059401604FF43471C0E9011401210E
:100F6000C0E903148461FFF7E3FD4FF48050009063
:100F700069460548FFF74EFE049404A9024805940B
:100F8000FFF7A6FD06B010BD5C000020FEE770472D
:100F9000704700002DE9F04107460E46104600F06C
:100FA000E7F90546184600F0E3F98046C32000F053
:100FB0000DF91E4C04EB1710007800F03BF907F018
:100FC0000F00205C00F036F92D2000F033F904EB1F
:100FD0001610007800F02EF906F00F00205C00F0EB
:100FE00029F92D2000F026F904EB1510007800F007
:100FF00021F905F00F00205C00F01CF92D2000F015
:1010000019F904EB1810007800F014F908F00F003B
:10101000205C00F00FF942F21070FFF7ABF8BDE86A
:10102000F0410122D1030248FFF73CBA3C00002006
:10103000000C014010B5802000F0C8F84E2000F0F0
:10104000F9F8542000F0F6F8552000F0F3F853209A
:1010500000F0F0F8542000F0EDF8202000F0EAF85D
:10106000492000F0E7F8522000F0E4F8202000F0DA
:10107000E1F8442000F0DEF8452000F0DBF84320E2
:1010800000F0D8F84F2000F0D5F8442000F0D2F856
:10109000452000F0CFF8BDE81040522000F0CAB85B
:1010A0007047FFF70BBA30B58FB028216846FFF7BD
:1010B00042F814210AA8FFF73EF801210804CDE9FF
:1010C00000100024029402250491CDE907504FF44A
:1010D000E01009906846FFF755FB0F20CDE90A059F
:1010E0006802CDE90C4002210AA80E94FFF77EFAAF
:1010F0000FB030BD704700000148FFF7F7BD00009A
:101100005C00002070B50268134B144C4FF0804611
:10111000984203D0B04201D0A04203D122F0700522
:101120004A682A43984203D0B04201D0A04203D17A
:1011300022F44074CA6822434C6922F080022243A0
:1011400002608A68C2620A688262984201D10969B3
:1011500001630121416170BD002C01400004004089
:1011600010B5846842EA032224F47F440A432243F0
:10117000826010BD826822F070020A4342F00701CB
:101180008160704710B5036A046A24F001040462A8
:10119000846924F0F00444EA021423F00A020A43AA
:1011A0008461026210BD10B5036A23F0100303626C
:1011B0008369046A23F4704343EA023224F0A003F3
:1011C00043EA01118261016210BDFEE770B503467A
:1011D0000220FEF7CFFF16484FF47F010160036045
:1011E000134C4115103C00222046FFF75BF900220A
:1011F00021152046FFF756F9A5150022294620465D
:10120000FFF750F90120FEF7B5FF012229462046DD
:10121000FFF748F90120FEF7ADFF002229462046DE
:10122000FFF740F9BDE870400120FEF7A3BF0000C2
:10123000100C014070B503460220FEF79BFF1648D4
:101240004FF47F0101600360134C4115103C0022F4
:101250002046FFF727F9012291022046FFF722F9E5
:10126000A515002229462046FFF71CF90120FEF7AC
:1012700081FF012229462046FFF714F90120FEF7DD
:1012800079FF002229462046FFF70CF9BDE870409F
:101290000120FEF76FBF0000100C01400907090E86
:1012A000002804DB00F1E02080F80014704700F013
:1012B0000F0000F1E02080F8141D704702E008C81C
:1012C000121F08C1002AFAD170477047002001E0C0
:1012D00001C1121F002AFBD17047962801DA0020B5
:1012E0007047012070470000064A10465168D162DD
:1012F000936A4068C01A994201DA034B184491621C
:101300007047000000000020A0860100154C002559
:10131000E560FFF7DBF8FFF7C6FEFFF7BBFDFFF761
:101320000DFE1148FFF74EFC3820FFF74FFF062057
:10133000FFF74CFF0C20FFF749FFFFF77BFE012270
:10134000D1030A48FFF7AEF804F120066563206B6D
:101350000128FCD1F378B27871783078FFF71AFE63
:101360002563F4E7000000205C000020000C014031
:10137000552101EA500100F0550041EA40003321B7
:1013800001EA900100F0330041EA8000010941EADE
:101390000010C0B270470000000000000000010211
:1013A0000304060708090000C81300080000002015
:1013B0005C000000BC120008241400085C0000203F
:1013C0004C040000CC1200080000000000000000E7
:1013D000000000000000000000000000000000000D
:1013E00000000000000000000000000000000000FD
:1013F00000000000000000000000000000000000ED
:10140000000000003031323334353637383941424C
:1014100043444546010000001000000000000000A9
:041420000024F400B0
:04000005080000ED02
:00000001FF
